{
	"blank.sol": {
		"HelloWorld": {
			"abi": [
				{
					"inputs": [],
					"stateMutability": "nonpayable",
					"type": "constructor"
				},
				{
					"inputs": [],
					"name": "getMessage",
					"outputs": [
						{
							"internalType": "string",
							"name": "",
							"type": "string"
						}
					],
					"stateMutability": "view",
					"type": "function"
				}
			],
			"devdoc": {
				"details": "一个简单的智能合约，用于存储和检索 \"Hello, World!\" 消息，并附带时间戳。",
				"kind": "dev",
				"methods": {
					"constructor": {
						"details": "合约构造函数，在部署合约时调用。 它将 _message 初始化为 \"Hello, World!\"。"
					}
				},
				"title": "HelloWorld",
				"version": 1
			},
			"evm": {
				"assembly": "    /* \"blank.sol\":193:5734  contract HelloWorld {... */\n  mstore(0x40, 0x80)\n    /* \"blank.sol\":456:513  constructor() {... */\n  callvalue\n  dup1\n  iszero\n  tag_1\n  jumpi\n  revert(0x00, 0x00)\ntag_1:\n  pop\n    /* \"blank.sol\":480:506  _message = \"Hello, World!\" */\n  mload(0x40)\n  dup1\n  0x40\n  add\n  0x40\n  mstore\n  dup1\n  0x0d\n  dup2\n  mstore\n  0x20\n  add\n  0x48656c6c6f2c20576f726c642100000000000000000000000000000000000000\n  dup2\n  mstore\n  pop\n    /* \"blank.sol\":480:488  _message */\n  0x00\n    /* \"blank.sol\":480:506  _message = \"Hello, World!\" */\n  swap1\n  dup2\n  tag_4\n  swap2\n  swap1\n  tag_5\n  jump\t// in\ntag_4:\n  pop\n    /* \"blank.sol\":193:5734  contract HelloWorld {... */\n  jump(tag_6)\n    /* \"#utility.yul\":7:106   */\ntag_7:\n    /* \"#utility.yul\":59:65   */\n  0x00\n    /* \"#utility.yul\":93:98   */\n  dup2\n    /* \"#utility.yul\":87:99   */\n  mload\n    /* \"#utility.yul\":77:99   */\n  swap1\n  pop\n    /* \"#utility.yul\":7:106   */\n  swap2\n  swap1\n  pop\n  jump\t// out\n    /* \"#utility.yul\":112:292   */\ntag_8:\n    /* \"#utility.yul\":160:237   */\n  0x4e487b7100000000000000000000000000000000000000000000000000000000\n    /* \"#utility.yul\":157:158   */\n  0x00\n    /* \"#utility.yul\":150:238   */\n  mstore\n    /* \"#utility.yul\":257:261   */\n  0x41\n    /* \"#utility.yul\":254:255   */\n  0x04\n    /* \"#utility.yul\":247:262   */\n  mstore\n    /* \"#utility.yul\":281:285   */\n  0x24\n    /* \"#utility.yul\":278:279   */\n  0x00\n    /* \"#utility.yul\":271:286   */\n  revert\n    /* \"#utility.yul\":298:478   */\ntag_9:\n    /* \"#utility.yul\":346:423   */\n  0x4e487b7100000000000000000000000000000000000000000000000000000000\n    /* \"#utility.yul\":343:344   */\n  0x00\n    /* \"#utility.yul\":336:424   */\n  mstore\n    /* \"#utility.yul\":443:447   */\n  0x22\n    /* \"#utility.yul\":440:441   */\n  0x04\n    /* \"#utility.yul\":433:448   */\n  mstore\n    /* \"#utility.yul\":467:471   */\n  0x24\n    /* \"#utility.yul\":464:465   */\n  0x00\n    /* \"#utility.yul\":457:472   */\n  revert\n    /* \"#utility.yul\":484:804   */\ntag_10:\n    /* \"#utility.yul\":528:534   */\n  0x00\n    /* \"#utility.yul\":565:566   */\n  0x02\n    /* \"#utility.yul\":559:563   */\n  dup3\n    /* \"#utility.yul\":555:567   */\n  div\n    /* \"#utility.yul\":545:567   */\n  swap1\n  pop\n    /* \"#utility.yul\":612:613   */\n  0x01\n    /* \"#utility.yul\":606:610   */\n  dup3\n    /* \"#utility.yul\":602:614   */\n  and\n    /* \"#utility.yul\":633:651   */\n  dup1\n    /* \"#utility.yul\":623:704   */\n  tag_32\n  jumpi\n    /* \"#utility.yul\":689:693   */\n  0x7f\n    /* \"#utility.yul\":681:687   */\n  dup3\n    /* \"#utility.yul\":677:694   */\n  and\n    /* \"#utility.yul\":667:694   */\n  swap2\n  pop\n    /* \"#utility.yul\":623:704   */\ntag_32:\n    /* \"#utility.yul\":751:753   */\n  0x20\n    /* \"#utility.yul\":743:749   */\n  dup3\n    /* \"#utility.yul\":740:754   */\n  lt\n    /* \"#utility.yul\":720:738   */\n  dup2\n    /* \"#utility.yul\":717:755   */\n  sub\n    /* \"#utility.yul\":714:798   */\n  tag_33\n  jumpi\n    /* \"#utility.yul\":770:788   */\n  tag_34\n  tag_9\n  jump\t// in\ntag_34:\n    /* \"#utility.yul\":714:798   */\ntag_33:\n    /* \"#utility.yul\":535:804   */\n  pop\n    /* \"#utility.yul\":484:804   */\n  swap2\n  swap1\n  pop\n  jump\t// out\n    /* \"#utility.yul\":810:951   */\ntag_11:\n    /* \"#utility.yul\":859:863   */\n  0x00\n    /* \"#utility.yul\":882:885   */\n  dup2\n    /* \"#utility.yul\":874:885   */\n  swap1\n  pop\n    /* \"#utility.yul\":905:908   */\n  dup2\n    /* \"#utility.yul\":902:903   */\n  0x00\n    /* \"#utility.yul\":895:909   */\n  mstore\n    /* \"#utility.yul\":939:943   */\n  0x20\n    /* \"#utility.yul\":936:937   */\n  0x00\n    /* \"#utility.yul\":926:944   */\n  keccak256\n    /* \"#utility.yul\":918:944   */\n  swap1\n  pop\n    /* \"#utility.yul\":810:951   */\n  swap2\n  swap1\n  pop\n  jump\t// out\n    /* \"#utility.yul\":957:1050   */\ntag_12:\n    /* \"#utility.yul\":994:1000   */\n  0x00\n    /* \"#utility.yul\":1041:1043   */\n  0x20\n    /* \"#utility.yul\":1036:1038   */\n  0x1f\n    /* \"#utility.yul\":1029:1034   */\n  dup4\n    /* \"#utility.yul\":1025:1039   */\n  add\n    /* \"#utility.yul\":1021:1044   */\n  div\n    /* \"#utility.yul\":1011:1044   */\n  swap1\n  pop\n    /* \"#utility.yul\":957:1050   */\n  swap2\n  swap1\n  pop\n  jump\t// out\n    /* \"#utility.yul\":1056:1163   */\ntag_13:\n    /* \"#utility.yul\":1100:1108   */\n  0x00\n    /* \"#utility.yul\":1150:1155   */\n  dup3\n    /* \"#utility.yul\":1144:1148   */\n  dup3\n    /* \"#utility.yul\":1140:1156   */\n  shl\n    /* \"#utility.yul\":1119:1156   */\n  swap1\n  pop\n    /* \"#utility.yul\":1056:1163   */\n  swap3\n  swap2\n  pop\n  pop\n  jump\t// out\n    /* \"#utility.yul\":1169:1562   */\ntag_14:\n    /* \"#utility.yul\":1238:1244   */\n  0x00\n    /* \"#utility.yul\":1288:1289   */\n  0x08\n    /* \"#utility.yul\":1276:1286   */\n  dup4\n    /* \"#utility.yul\":1272:1290   */\n  mul\n    /* \"#utility.yul\":1311:1408   */\n  tag_39\n    /* \"#utility.yul\":1341:1407   */\n  0xffffffffffffffffffffffffffffffffffffffffffffffffffffffffffffffff\n    /* \"#utility.yul\":1330:1339   */\n  dup3\n    /* \"#utility.yul\":1311:1408   */\n  tag_13\n  jump\t// in\ntag_39:\n    /* \"#utility.yul\":1429:1468   */\n  tag_40\n    /* \"#utility.yul\":1459:1467   */\n  dup7\n    /* \"#utility.yul\":1448:1457   */\n  dup4\n    /* \"#utility.yul\":1429:1468   */\n  tag_13\n  jump\t// in\ntag_40:\n    /* \"#utility.yul\":1417:1468   */\n  swap6\n  pop\n    /* \"#utility.yul\":1501:1505   */\n  dup1\n    /* \"#utility.yul\":1497:1506   */\n  not\n    /* \"#utility.yul\":1490:1495   */\n  dup5\n    /* \"#utility.yul\":1486:1507   */\n  and\n    /* \"#utility.yul\":1477:1507   */\n  swap4\n  pop\n    /* \"#utility.yul\":1550:1554   */\n  dup1\n    /* \"#utility.yul\":1540:1548   */\n  dup7\n    /* \"#utility.yul\":1536:1555   */\n  and\n    /* \"#utility.yul\":1529:1534   */\n  dup5\n    /* \"#utility.yul\":1526:1556   */\n  or\n    /* \"#utility.yul\":1516:1556   */\n  swap3\n  pop\n    /* \"#utility.yul\":1245:1562   */\n  pop\n  pop\n    /* \"#utility.yul\":1169:1562   */\n  swap4\n  swap3\n  pop\n  pop\n  pop\n  jump\t// out\n    /* \"#utility.yul\":1568:1645   */\ntag_15:\n    /* \"#utility.yul\":1605:1612   */\n  0x00\n    /* \"#utility.yul\":1634:1639   */\n  dup2\n    /* \"#utility.yul\":1623:1639   */\n  swap1\n  pop\n    /* \"#utility.yul\":1568:1645   */\n  swap2\n  swap1\n  pop\n  jump\t// out\n    /* \"#utility.yul\":1651:1711   */\ntag_16:\n    /* \"#utility.yul\":1679:1682   */\n  0x00\n    /* \"#utility.yul\":1700:1705   */\n  dup2\n    /* \"#utility.yul\":1693:1705   */\n  swap1\n  pop\n    /* \"#utility.yul\":1651:1711   */\n  swap2\n  swap1\n  pop\n  jump\t// out\n    /* \"#utility.yul\":1717:1859   */\ntag_17:\n    /* \"#utility.yul\":1767:1776   */\n  0x00\n    /* \"#utility.yul\":1800:1853   */\n  tag_44\n    /* \"#utility.yul\":1818:1852   */\n  tag_45\n    /* \"#utility.yul\":1827:1851   */\n  tag_46\n    /* \"#utility.yul\":1845:1850   */\n  dup5\n    /* \"#utility.yul\":1827:1851   */\n  tag_15\n  jump\t// in\ntag_46:\n    /* \"#utility.yul\":1818:1852   */\n  tag_16\n  jump\t// in\ntag_45:\n    /* \"#utility.yul\":1800:1853   */\n  tag_15\n  jump\t// in\ntag_44:\n    /* \"#utility.yul\":1787:1853   */\n  swap1\n  pop\n    /* \"#utility.yul\":1717:1859   */\n  swap2\n  swap1\n  pop\n  jump\t// out\n    /* \"#utility.yul\":1865:1940   */\ntag_18:\n    /* \"#utility.yul\":1908:1911   */\n  0x00\n    /* \"#utility.yul\":1929:1934   */\n  dup2\n    /* \"#utility.yul\":1922:1934   */\n  swap1\n  pop\n    /* \"#utility.yul\":1865:1940   */\n  swap2\n  swap1\n  pop\n  jump\t// out\n    /* \"#utility.yul\":1946:2215   */\ntag_19:\n    /* \"#utility.yul\":2056:2095   */\n  tag_49\n    /* \"#utility.yul\":2087:2094   */\n  dup4\n    /* \"#utility.yul\":2056:2095   */\n  tag_17\n  jump\t// in\ntag_49:\n    /* \"#utility.yul\":2117:2208   */\n  tag_50\n    /* \"#utility.yul\":2166:2207   */\n  tag_51\n    /* \"#utility.yul\":2190:2206   */\n  dup3\n    /* \"#utility.yul\":2166:2207   */\n  tag_18\n  jump\t// in\ntag_51:\n    /* \"#utility.yul\":2158:2164   */\n  dup5\n    /* \"#utility.yul\":2151:2155   */\n  dup5\n    /* \"#utility.yul\":2145:2156   */\n  sload\n    /* \"#utility.yul\":2117:2208   */\n  tag_14\n  jump\t// in\ntag_50:\n    /* \"#utility.yul\":2111:2115   */\n  dup3\n    /* \"#utility.yul\":2104:2209   */\n  sstore\n    /* \"#utility.yul\":2022:2215   */\n  pop\n    /* \"#utility.yul\":1946:2215   */\n  pop\n  pop\n  pop\n  jump\t// out\n    /* \"#utility.yul\":2221:2294   */\ntag_20:\n    /* \"#utility.yul\":2266:2269   */\n  0x00\n    /* \"#utility.yul\":2287:2288   */\n  0x00\n    /* \"#utility.yul\":2280:2288   */\n  swap1\n  pop\n    /* \"#utility.yul\":2221:2294   */\n  swap1\n  jump\t// out\n    /* \"#utility.yul\":2300:2489   */\ntag_21:\n    /* \"#utility.yul\":2377:2409   */\n  tag_54\n  tag_20\n  jump\t// in\ntag_54:\n    /* \"#utility.yul\":2418:2483   */\n  tag_55\n    /* \"#utility.yul\":2476:2482   */\n  dup2\n    /* \"#utility.yul\":2468:2474   */\n  dup5\n    /* \"#utility.yul\":2462:2466   */\n  dup5\n    /* \"#utility.yul\":2418:2483   */\n  tag_19\n  jump\t// in\ntag_55:\n    /* \"#utility.yul\":2353:2489   */\n  pop\n    /* \"#utility.yul\":2300:2489   */\n  pop\n  pop\n  jump\t// out\n    /* \"#utility.yul\":2495:2681   */\ntag_22:\n    /* \"#utility.yul\":2555:2675   */\ntag_57:\n    /* \"#utility.yul\":2572:2575   */\n  dup2\n    /* \"#utility.yul\":2565:2570   */\n  dup2\n    /* \"#utility.yul\":2562:2576   */\n  lt\n    /* \"#utility.yul\":2555:2675   */\n  iszero\n  tag_59\n  jumpi\n    /* \"#utility.yul\":2626:2665   */\n  tag_60\n    /* \"#utility.yul\":2663:2664   */\n  0x00\n    /* \"#utility.yul\":2656:2661   */\n  dup3\n    /* \"#utility.yul\":2626:2665   */\n  tag_21\n  jump\t// in\ntag_60:\n    /* \"#utility.yul\":2599:2600   */\n  0x01\n    /* \"#utility.yul\":2592:2597   */\n  dup2\n    /* \"#utility.yul\":2588:2601   */\n  add\n    /* \"#utility.yul\":2579:2601   */\n  swap1\n  pop\n    /* \"#utility.yul\":2555:2675   */\n  jump(tag_57)\ntag_59:\n    /* \"#utility.yul\":2495:2681   */\n  pop\n  pop\n  jump\t// out\n    /* \"#utility.yul\":2687:3230   */\ntag_23:\n    /* \"#utility.yul\":2788:2790   */\n  0x1f\n    /* \"#utility.yul\":2783:2786   */\n  dup3\n    /* \"#utility.yul\":2780:2791   */\n  gt\n    /* \"#utility.yul\":2777:3223   */\n  iszero\n  tag_62\n  jumpi\n    /* \"#utility.yul\":2822:2860   */\n  tag_63\n    /* \"#utility.yul\":2854:2859   */\n  dup2\n    /* \"#utility.yul\":2822:2860   */\n  tag_11\n  jump\t// in\ntag_63:\n    /* \"#utility.yul\":2906:2935   */\n  tag_64\n    /* \"#utility.yul\":2924:2934   */\n  dup5\n    /* \"#utility.yul\":2906:2935   */\n  tag_12\n  jump\t// in\ntag_64:\n    /* \"#utility.yul\":2896:2904   */\n  dup2\n    /* \"#utility.yul\":2892:2936   */\n  add\n    /* \"#utility.yul\":3089:3091   */\n  0x20\n    /* \"#utility.yul\":3077:3087   */\n  dup6\n    /* \"#utility.yul\":3074:3092   */\n  lt\n    /* \"#utility.yul\":3071:3120   */\n  iszero\n  tag_65\n  jumpi\n    /* \"#utility.yul\":3110:3118   */\n  dup2\n    /* \"#utility.yul\":3095:3118   */\n  swap1\n  pop\n    /* \"#utility.yul\":3071:3120   */\ntag_65:\n    /* \"#utility.yul\":3133:3213   */\n  tag_66\n    /* \"#utility.yul\":3189:3211   */\n  tag_67\n    /* \"#utility.yul\":3207:3210   */\n  dup6\n    /* \"#utility.yul\":3189:3211   */\n  tag_12\n  jump\t// in\ntag_67:\n    /* \"#utility.yul\":3179:3187   */\n  dup4\n    /* \"#utility.yul\":3175:3212   */\n  add\n    /* \"#utility.yul\":3162:3173   */\n  dup3\n    /* \"#utility.yul\":3133:3213   */\n  tag_22\n  jump\t// in\ntag_66:\n    /* \"#utility.yul\":2792:3223   */\n  pop\n  pop\n    /* \"#utility.yul\":2777:3223   */\ntag_62:\n    /* \"#utility.yul\":2687:3230   */\n  pop\n  pop\n  pop\n  jump\t// out\n    /* \"#utility.yul\":3236:3353   */\ntag_24:\n    /* \"#utility.yul\":3290:3298   */\n  0x00\n    /* \"#utility.yul\":3340:3345   */\n  dup3\n    /* \"#utility.yul\":3334:3338   */\n  dup3\n    /* \"#utility.yul\":3330:3346   */\n  shr\n    /* \"#utility.yul\":3309:3346   */\n  swap1\n  pop\n    /* \"#utility.yul\":3236:3353   */\n  swap3\n  swap2\n  pop\n  pop\n  jump\t// out\n    /* \"#utility.yul\":3359:3528   */\ntag_25:\n    /* \"#utility.yul\":3403:3409   */\n  0x00\n    /* \"#utility.yul\":3436:3487   */\n  tag_70\n    /* \"#utility.yul\":3484:3485   */\n  0x00\n    /* \"#utility.yul\":3480:3486   */\n  not\n    /* \"#utility.yul\":3472:3477   */\n  dup5\n    /* \"#utility.yul\":3469:3470   */\n  0x08\n    /* \"#utility.yul\":3465:3478   */\n  mul\n    /* \"#utility.yul\":3436:3487   */\n  tag_24\n  jump\t// in\ntag_70:\n    /* \"#utility.yul\":3432:3488   */\n  not\n    /* \"#utility.yul\":3517:3521   */\n  dup1\n    /* \"#utility.yul\":3511:3515   */\n  dup4\n    /* \"#utility.yul\":3507:3522   */\n  and\n    /* \"#utility.yul\":3497:3522   */\n  swap2\n  pop\n    /* \"#utility.yul\":3410:3528   */\n  pop\n    /* \"#utility.yul\":3359:3528   */\n  swap3\n  swap2\n  pop\n  pop\n  jump\t// out\n    /* \"#utility.yul\":3533:3828   */\ntag_26:\n    /* \"#utility.yul\":3609:3613   */\n  0x00\n    /* \"#utility.yul\":3755:3784   */\n  tag_72\n    /* \"#utility.yul\":3780:3783   */\n  dup4\n    /* \"#utility.yul\":3774:3778   */\n  dup4\n    /* \"#utility.yul\":3755:3784   */\n  tag_25\n  jump\t// in\ntag_72:\n    /* \"#utility.yul\":3747:3784   */\n  swap2\n  pop\n    /* \"#utility.yul\":3817:3820   */\n  dup3\n    /* \"#utility.yul\":3814:3815   */\n  0x02\n    /* \"#utility.yul\":3810:3821   */\n  mul\n    /* \"#utility.yul\":3804:3808   */\n  dup3\n    /* \"#utility.yul\":3801:3822   */\n  or\n    /* \"#utility.yul\":3793:3822   */\n  swap1\n  pop\n    /* \"#utility.yul\":3533:3828   */\n  swap3\n  swap2\n  pop\n  pop\n  jump\t// out\n    /* \"#utility.yul\":3833:5228   */\ntag_5:\n    /* \"#utility.yul\":3950:3987   */\n  tag_74\n    /* \"#utility.yul\":3983:3986   */\n  dup3\n    /* \"#utility.yul\":3950:3987   */\n  tag_7\n  jump\t// in\ntag_74:\n    /* \"#utility.yul\":4052:4070   */\n  0xffffffffffffffff\n    /* \"#utility.yul\":4044:4050   */\n  dup2\n    /* \"#utility.yul\":4041:4071   */\n  gt\n    /* \"#utility.yul\":4038:4094   */\n  iszero\n  tag_75\n  jumpi\n    /* \"#utility.yul\":4074:4092   */\n  tag_76\n  tag_8\n  jump\t// in\ntag_76:\n    /* \"#utility.yul\":4038:4094   */\ntag_75:\n    /* \"#utility.yul\":4118:4156   */\n  tag_77\n    /* \"#utility.yul\":4150:4154   */\n  dup3\n    /* \"#utility.yul\":4144:4155   */\n  sload\n    /* \"#utility.yul\":4118:4156   */\n  tag_10\n  jump\t// in\ntag_77:\n    /* \"#utility.yul\":4203:4270   */\n  tag_78\n    /* \"#utility.yul\":4263:4269   */\n  dup3\n    /* \"#utility.yul\":4255:4261   */\n  dup3\n    /* \"#utility.yul\":4249:4253   */\n  dup6\n    /* \"#utility.yul\":4203:4270   */\n  tag_23\n  jump\t// in\ntag_78:\n    /* \"#utility.yul\":4297:4298   */\n  0x00\n    /* \"#utility.yul\":4321:4325   */\n  0x20\n    /* \"#utility.yul\":4308:4325   */\n  swap1\n  pop\n    /* \"#utility.yul\":4353:4355   */\n  0x1f\n    /* \"#utility.yul\":4345:4351   */\n  dup4\n    /* \"#utility.yul\":4342:4356   */\n  gt\n    /* \"#utility.yul\":4370:4371   */\n  0x01\n    /* \"#utility.yul\":4365:4983   */\n  dup2\n  eq\n  tag_80\n  jumpi\n    /* \"#utility.yul\":5027:5028   */\n  0x00\n    /* \"#utility.yul\":5044:5050   */\n  dup5\n    /* \"#utility.yul\":5041:5118   */\n  iszero\n  tag_81\n  jumpi\n    /* \"#utility.yul\":5093:5102   */\n  dup3\n    /* \"#utility.yul\":5088:5091   */\n  dup8\n    /* \"#utility.yul\":5084:5103   */\n  add\n    /* \"#utility.yul\":5078:5104   */\n  mload\n    /* \"#utility.yul\":5069:5104   */\n  swap1\n  pop\n    /* \"#utility.yul\":5041:5118   */\ntag_81:\n    /* \"#utility.yul\":5144:5211   */\n  tag_82\n    /* \"#utility.yul\":5204:5210   */\n  dup6\n    /* \"#utility.yul\":5197:5202   */\n  dup3\n    /* \"#utility.yul\":5144:5211   */\n  tag_26\n  jump\t// in\ntag_82:\n    /* \"#utility.yul\":5138:5142   */\n  dup7\n    /* \"#utility.yul\":5131:5212   */\n  sstore\n    /* \"#utility.yul\":5000:5222   */\n  pop\n    /* \"#utility.yul\":4335:5222   */\n  jump(tag_79)\n    /* \"#utility.yul\":4365:4983   */\ntag_80:\n    /* \"#utility.yul\":4417:4421   */\n  0x1f\n    /* \"#utility.yul\":4413:4422   */\n  not\n    /* \"#utility.yul\":4405:4411   */\n  dup5\n    /* \"#utility.yul\":4401:4423   */\n  and\n    /* \"#utility.yul\":4451:4488   */\n  tag_83\n    /* \"#utility.yul\":4483:4487   */\n  dup7\n    /* \"#utility.yul\":4451:4488   */\n  tag_11\n  jump\t// in\ntag_83:\n    /* \"#utility.yul\":4510:4511   */\n  0x00\n    /* \"#utility.yul\":4524:4732   */\ntag_84:\n    /* \"#utility.yul\":4538:4545   */\n  dup3\n    /* \"#utility.yul\":4535:4536   */\n  dup2\n    /* \"#utility.yul\":4532:4546   */\n  lt\n    /* \"#utility.yul\":4524:4732   */\n  iszero\n  tag_86\n  jumpi\n    /* \"#utility.yul\":4617:4626   */\n  dup5\n    /* \"#utility.yul\":4612:4615   */\n  dup10\n    /* \"#utility.yul\":4608:4627   */\n  add\n    /* \"#utility.yul\":4602:4628   */\n  mload\n    /* \"#utility.yul\":4594:4600   */\n  dup3\n    /* \"#utility.yul\":4587:4629   */\n  sstore\n    /* \"#utility.yul\":4668:4669   */\n  0x01\n    /* \"#utility.yul\":4660:4666   */\n  dup3\n    /* \"#utility.yul\":4656:4670   */\n  add\n    /* \"#utility.yul\":4646:4670   */\n  swap2\n  pop\n    /* \"#utility.yul\":4715:4717   */\n  0x20\n    /* \"#utility.yul\":4704:4713   */\n  dup6\n    /* \"#utility.yul\":4700:4718   */\n  add\n    /* \"#utility.yul\":4687:4718   */\n  swap5\n  pop\n    /* \"#utility.yul\":4561:4565   */\n  0x20\n    /* \"#utility.yul\":4558:4559   */\n  dup2\n    /* \"#utility.yul\":4554:4566   */\n  add\n    /* \"#utility.yul\":4549:4566   */\n  swap1\n  pop\n    /* \"#utility.yul\":4524:4732   */\n  jump(tag_84)\ntag_86:\n    /* \"#utility.yul\":4760:4766   */\n  dup7\n    /* \"#utility.yul\":4751:4758   */\n  dup4\n    /* \"#utility.yul\":4748:4767   */\n  lt\n    /* \"#utility.yul\":4745:4924   */\n  iszero\n  tag_87\n  jumpi\n    /* \"#utility.yul\":4818:4827   */\n  dup5\n    /* \"#utility.yul\":4813:4816   */\n  dup10\n    /* \"#utility.yul\":4809:4828   */\n  add\n    /* \"#utility.yul\":4803:4829   */\n  mload\n    /* \"#utility.yul\":4861:4909   */\n  tag_88\n    /* \"#utility.yul\":4903:4907   */\n  0x1f\n    /* \"#utility.yul\":4895:4901   */\n  dup10\n    /* \"#utility.yul\":4891:4908   */\n  and\n    /* \"#utility.yul\":4880:4889   */\n  dup3\n    /* \"#utility.yul\":4861:4909   */\n  tag_25\n  jump\t// in\ntag_88:\n    /* \"#utility.yul\":4853:4859   */\n  dup4\n    /* \"#utility.yul\":4846:4910   */\n  sstore\n    /* \"#utility.yul\":4768:4924   */\n  pop\n    /* \"#utility.yul\":4745:4924   */\ntag_87:\n    /* \"#utility.yul\":4970:4971   */\n  0x01\n    /* \"#utility.yul\":4966:4967   */\n  0x02\n    /* \"#utility.yul\":4958:4964   */\n  dup9\n    /* \"#utility.yul\":4954:4968   */\n  mul\n    /* \"#utility.yul\":4950:4972   */\n  add\n    /* \"#utility.yul\":4944:4948   */\n  dup9\n    /* \"#utility.yul\":4937:4973   */\n  sstore\n    /* \"#utility.yul\":4372:4983   */\n  pop\n  pop\n  pop\n    /* \"#utility.yul\":4335:5222   */\ntag_79:\n  pop\n    /* \"#utility.yul\":3925:5228   */\n  pop\n  pop\n  pop\n    /* \"#utility.yul\":3833:5228   */\n  pop\n  pop\n  jump\t// out\n    /* \"blank.sol\":193:5734  contract HelloWorld {... */\ntag_6:\n  dataSize(sub_0)\n  dup1\n  dataOffset(sub_0)\n  0x00\n  codecopy\n  0x00\n  return\nstop\n\nsub_0: assembly {\n        /* \"blank.sol\":193:5734  contract HelloWorld {... */\n      mstore(0x40, 0x80)\n      callvalue\n      dup1\n      iszero\n      tag_1\n      jumpi\n      revert(0x00, 0x00)\n    tag_1:\n      pop\n      jumpi(tag_2, lt(calldatasize, 0x04))\n      shr(0xe0, calldataload(0x00))\n      dup1\n      0xce6d41de\n      eq\n      tag_3\n      jumpi\n    tag_2:\n      revert(0x00, 0x00)\n        /* \"blank.sol\":5624:5732  function getMessage() public view returns (string memory) {... */\n    tag_3:\n      tag_4\n      tag_5\n      jump\t// in\n    tag_4:\n      mload(0x40)\n      tag_6\n      swap2\n      swap1\n      tag_7\n      jump\t// in\n    tag_6:\n      mload(0x40)\n      dup1\n      swap2\n      sub\n      swap1\n      return\n    tag_5:\n        /* \"blank.sol\":5667:5680  string memory */\n      0x60\n        /* \"blank.sol\":5699:5725  _getMessageWithTimestamp() */\n      tag_9\n        /* \"blank.sol\":5699:5723  _getMessageWithTimestamp */\n      tag_10\n        /* \"blank.sol\":5699:5725  _getMessageWithTimestamp() */\n      jump\t// in\n    tag_9:\n        /* \"blank.sol\":5692:5725  return _getMessageWithTimestamp() */\n      swap1\n      pop\n        /* \"blank.sol\":5624:5732  function getMessage() public view returns (string memory) {... */\n      swap1\n      jump\t// out\n        /* \"blank.sol\":5452:5618  function _getMessageWithTimestamp() private view returns (string memory) {... */\n    tag_10:\n        /* \"blank.sol\":5510:5523  string memory */\n      0x60\n        /* \"blank.sol\":5556:5564  _message */\n      0x00\n        /* \"blank.sol\":5572:5605  _formatTimestamp(block.timestamp) */\n      tag_12\n        /* \"blank.sol\":5589:5604  block.timestamp */\n      timestamp\n        /* \"blank.sol\":5572:5588  _formatTimestamp */\n      tag_13\n        /* \"blank.sol\":5572:5605  _formatTimestamp(block.timestamp) */\n      jump\t// in\n    tag_12:\n        /* \"blank.sol\":5542:5611  string.concat(_message, \" (\", _formatTimestamp(block.timestamp), \")\") */\n      add(0x20, mload(0x40))\n      tag_14\n      swap3\n      swap2\n      swap1\n      tag_15\n      jump\t// in\n    tag_14:\n      mload(0x40)\n      0x20\n      dup2\n      dup4\n      sub\n      sub\n      dup2\n      mstore\n      swap1\n      0x40\n      mstore\n        /* \"blank.sol\":5535:5611  return string.concat(_message, \" (\", _formatTimestamp(block.timestamp), \")\") */\n      swap1\n      pop\n        /* \"blank.sol\":5452:5618  function _getMessageWithTimestamp() private view returns (string memory) {... */\n      swap1\n      jump\t// out\n        /* \"blank.sol\":4393:4727  function _formatTimestamp(uint256 timestamp) private pure returns (string memory) {... */\n    tag_13:\n        /* \"blank.sol\":4460:4473  string memory */\n      0x60\n        /* \"blank.sol\":4485:4509  uint256 beijingTimestamp */\n      0x00\n        /* \"blank.sol\":4524:4529  28800 */\n      0x7080\n        /* \"blank.sol\":4512:4521  timestamp */\n      dup4\n        /* \"blank.sol\":4512:4529  timestamp + 28800 */\n      tag_17\n      swap2\n      swap1\n      tag_18\n      jump\t// in\n    tag_17:\n        /* \"blank.sol\":4485:4529  uint256 beijingTimestamp = timestamp + 28800 */\n      swap1\n      pop\n        /* \"blank.sol\":4539:4561  string memory datePart */\n      0x00\n        /* \"blank.sol\":4564:4597  _formatDatePart(beijingTimestamp) */\n      tag_19\n        /* \"blank.sol\":4580:4596  beijingTimestamp */\n      dup3\n        /* \"blank.sol\":4564:4579  _formatDatePart */\n      tag_20\n        /* \"blank.sol\":4564:4597  _formatDatePart(beijingTimestamp) */\n      jump\t// in\n    tag_19:\n        /* \"blank.sol\":4539:4597  string memory datePart = _formatDatePart(beijingTimestamp) */\n      swap1\n      pop\n        /* \"blank.sol\":4607:4629  string memory timePart */\n      0x00\n        /* \"blank.sol\":4632:4665  _formatTimePart(beijingTimestamp) */\n      tag_21\n        /* \"blank.sol\":4648:4664  beijingTimestamp */\n      dup4\n        /* \"blank.sol\":4632:4647  _formatTimePart */\n      tag_22\n        /* \"blank.sol\":4632:4665  _formatTimePart(beijingTimestamp) */\n      jump\t// in\n    tag_21:\n        /* \"blank.sol\":4607:4665  string memory timePart = _formatTimePart(beijingTimestamp) */\n      swap1\n      pop\n        /* \"blank.sol\":4696:4704  datePart */\n      dup2\n        /* \"blank.sol\":4711:4719  timePart */\n      dup2\n        /* \"blank.sol\":4682:4720  string.concat(datePart, \" \", timePart) */\n      add(0x20, mload(0x40))\n      tag_23\n      swap3\n      swap2\n      swap1\n      tag_24\n      jump\t// in\n    tag_23:\n      mload(0x40)\n      0x20\n      dup2\n      dup4\n      sub\n      sub\n      dup2\n      mstore\n      swap1\n      0x40\n      mstore\n        /* \"blank.sol\":4675:4720  return string.concat(datePart, \" \", timePart) */\n      swap4\n      pop\n      pop\n      pop\n      pop\n        /* \"blank.sol\":4393:4727  function _formatTimestamp(uint256 timestamp) private pure returns (string memory) {... */\n      swap2\n      swap1\n      pop\n      jump\t// out\n        /* \"blank.sol\":3439:3805  function _formatDatePart(uint256 timestamp) private pure returns (string memory) {... */\n    tag_20:\n        /* \"blank.sol\":3505:3518  string memory */\n      0x60\n        /* \"blank.sol\":3531:3543  uint256 year */\n      0x00\n        /* \"blank.sol\":3545:3558  uint256 month */\n      0x00\n        /* \"blank.sol\":3560:3571  uint256 day */\n      0x00\n        /* \"blank.sol\":3575:3602  _timestampToDate(timestamp) */\n      tag_26\n        /* \"blank.sol\":3592:3601  timestamp */\n      dup6\n        /* \"blank.sol\":3575:3591  _timestampToDate */\n      tag_27\n        /* \"blank.sol\":3575:3602  _timestampToDate(timestamp) */\n      jump\t// in\n    tag_26:\n        /* \"blank.sol\":3530:3602  (uint256 year, uint256 month, uint256 day) = _timestampToDate(timestamp) */\n      swap3\n      pop\n      swap3\n      pop\n      swap3\n      pop\n        /* \"blank.sol\":3647:3666  _uintToString(year) */\n      tag_28\n        /* \"blank.sol\":3661:3665  year */\n      dup4\n        /* \"blank.sol\":3647:3660  _uintToString */\n      tag_29\n        /* \"blank.sol\":3647:3666  _uintToString(year) */\n      jump\t// in\n    tag_28:\n        /* \"blank.sol\":3698:3728  _padZero(_uintToString(month)) */\n      tag_30\n        /* \"blank.sol\":3707:3727  _uintToString(month) */\n      tag_31\n        /* \"blank.sol\":3721:3726  month */\n      dup5\n        /* \"blank.sol\":3707:3720  _uintToString */\n      tag_29\n        /* \"blank.sol\":3707:3727  _uintToString(month) */\n      jump\t// in\n    tag_31:\n        /* \"blank.sol\":3698:3706  _padZero */\n      tag_32\n        /* \"blank.sol\":3698:3728  _padZero(_uintToString(month)) */\n      jump\t// in\n    tag_30:\n        /* \"blank.sol\":3760:3788  _padZero(_uintToString(day)) */\n      tag_33\n        /* \"blank.sol\":3769:3787  _uintToString(day) */\n      tag_34\n        /* \"blank.sol\":3783:3786  day */\n      dup5\n        /* \"blank.sol\":3769:3782  _uintToString */\n      tag_29\n        /* \"blank.sol\":3769:3787  _uintToString(day) */\n      jump\t// in\n    tag_34:\n        /* \"blank.sol\":3760:3768  _padZero */\n      tag_32\n        /* \"blank.sol\":3760:3788  _padZero(_uintToString(day)) */\n      jump\t// in\n    tag_33:\n        /* \"blank.sol\":3620:3798  string.concat(... */\n      add(0x20, mload(0x40))\n      tag_35\n      swap4\n      swap3\n      swap2\n      swap1\n      tag_36\n      jump\t// in\n    tag_35:\n      mload(0x40)\n      0x20\n      dup2\n      dup4\n      sub\n      sub\n      dup2\n      mstore\n      swap1\n      0x40\n      mstore\n        /* \"blank.sol\":3613:3798  return string.concat(... */\n      swap4\n      pop\n      pop\n      pop\n      pop\n        /* \"blank.sol\":3439:3805  function _formatDatePart(uint256 timestamp) private pure returns (string memory) {... */\n      swap2\n      swap1\n      pop\n      jump\t// out\n        /* \"blank.sol\":3859:4353  function _formatTimePart(uint256 timestamp) private pure returns (string memory) {... */\n    tag_22:\n        /* \"blank.sol\":3925:3938  string memory */\n      0x60\n        /* \"blank.sol\":3950:3960  uint256 ts */\n      0x00\n        /* \"blank.sol\":3963:3972  timestamp */\n      dup3\n        /* \"blank.sol\":3950:3972  uint256 ts = timestamp */\n      swap1\n      pop\n        /* \"blank.sol\":3982:4002  uint256 totalSeconds */\n      0x00\n        /* \"blank.sol\":4005:4007  ts */\n      dup2\n        /* \"blank.sol\":3982:4007  uint256 totalSeconds = ts */\n      swap1\n      pop\n        /* \"blank.sol\":4017:4037  uint256 totalMinutes */\n      0x00\n        /* \"blank.sol\":4055:4057  60 */\n      0x3c\n        /* \"blank.sol\":4040:4052  totalSeconds */\n      dup3\n        /* \"blank.sol\":4040:4057  totalSeconds / 60 */\n      tag_38\n      swap2\n      swap1\n      tag_39\n      jump\t// in\n    tag_38:\n        /* \"blank.sol\":4017:4057  uint256 totalMinutes = totalSeconds / 60 */\n      swap1\n      pop\n        /* \"blank.sol\":4067:4085  uint256 totalHours */\n      0x00\n        /* \"blank.sol\":4103:4105  60 */\n      0x3c\n        /* \"blank.sol\":4088:4100  totalMinutes */\n      dup3\n        /* \"blank.sol\":4088:4105  totalMinutes / 60 */\n      tag_40\n      swap2\n      swap1\n      tag_39\n      jump\t// in\n    tag_40:\n        /* \"blank.sol\":4067:4105  uint256 totalHours = totalMinutes / 60 */\n      swap1\n      pop\n        /* \"blank.sol\":4150:4190  _padZero(_uintToString(totalHours % 24)) */\n      tag_41\n        /* \"blank.sol\":4159:4189  _uintToString(totalHours % 24) */\n      tag_42\n        /* \"blank.sol\":4186:4188  24 */\n      0x18\n        /* \"blank.sol\":4173:4183  totalHours */\n      dup4\n        /* \"blank.sol\":4173:4188  totalHours % 24 */\n      tag_43\n      swap2\n      swap1\n      tag_44\n      jump\t// in\n    tag_43:\n        /* \"blank.sol\":4159:4172  _uintToString */\n      tag_29\n        /* \"blank.sol\":4159:4189  _uintToString(totalHours % 24) */\n      jump\t// in\n    tag_42:\n        /* \"blank.sol\":4150:4158  _padZero */\n      tag_32\n        /* \"blank.sol\":4150:4190  _padZero(_uintToString(totalHours % 24)) */\n      jump\t// in\n    tag_41:\n        /* \"blank.sol\":4221:4263  _padZero(_uintToString(totalMinutes % 60)) */\n      tag_45\n        /* \"blank.sol\":4230:4262  _uintToString(totalMinutes % 60) */\n      tag_46\n        /* \"blank.sol\":4259:4261  60 */\n      0x3c\n        /* \"blank.sol\":4244:4256  totalMinutes */\n      dup6\n        /* \"blank.sol\":4244:4261  totalMinutes % 60 */\n      tag_47\n      swap2\n      swap1\n      tag_44\n      jump\t// in\n    tag_47:\n        /* \"blank.sol\":4230:4243  _uintToString */\n      tag_29\n        /* \"blank.sol\":4230:4262  _uintToString(totalMinutes % 60) */\n      jump\t// in\n    tag_46:\n        /* \"blank.sol\":4221:4229  _padZero */\n      tag_32\n        /* \"blank.sol\":4221:4263  _padZero(_uintToString(totalMinutes % 60)) */\n      jump\t// in\n    tag_45:\n        /* \"blank.sol\":4294:4336  _padZero(_uintToString(totalSeconds % 60)) */\n      tag_48\n        /* \"blank.sol\":4303:4335  _uintToString(totalSeconds % 60) */\n      tag_49\n        /* \"blank.sol\":4332:4334  60 */\n      0x3c\n        /* \"blank.sol\":4317:4329  totalSeconds */\n      dup8\n        /* \"blank.sol\":4317:4334  totalSeconds % 60 */\n      tag_50\n      swap2\n      swap1\n      tag_44\n      jump\t// in\n    tag_50:\n        /* \"blank.sol\":4303:4316  _uintToString */\n      tag_29\n        /* \"blank.sol\":4303:4335  _uintToString(totalSeconds % 60) */\n      jump\t// in\n    tag_49:\n        /* \"blank.sol\":4294:4302  _padZero */\n      tag_32\n        /* \"blank.sol\":4294:4336  _padZero(_uintToString(totalSeconds % 60)) */\n      jump\t// in\n    tag_48:\n        /* \"blank.sol\":4123:4346  string.concat(... */\n      add(0x20, mload(0x40))\n      tag_51\n      swap4\n      swap3\n      swap2\n      swap1\n      tag_52\n      jump\t// in\n    tag_51:\n      mload(0x40)\n      0x20\n      dup2\n      dup4\n      sub\n      sub\n      dup2\n      mstore\n      swap1\n      0x40\n      mstore\n        /* \"blank.sol\":4116:4346  return string.concat(... */\n      swap5\n      pop\n      pop\n      pop\n      pop\n      pop\n        /* \"blank.sol\":3859:4353  function _formatTimePart(uint256 timestamp) private pure returns (string memory) {... */\n      swap2\n      swap1\n      pop\n      jump\t// out\n        /* \"blank.sol\":743:3088  function _timestampToDate(uint256 timestamp)... */\n    tag_27:\n        /* \"blank.sol\":847:859  uint256 year */\n      0x00\n        /* \"blank.sol\":873:886  uint256 month */\n      0x00\n        /* \"blank.sol\":900:911  uint256 day */\n      0x00\n        /* \"blank.sol\":974:997  uint256 SECONDS_PER_DAY */\n      0x00\n        /* \"blank.sol\":1000:1012  24 * 60 * 60 */\n      0x015180\n        /* \"blank.sol\":974:1012  uint256 SECONDS_PER_DAY = 24 * 60 * 60 */\n      swap1\n      pop\n        /* \"blank.sol\":1073:1091  uint256 EPOCH_YEAR */\n      0x00\n        /* \"blank.sol\":1094:1098  1970 */\n      0x07b2\n        /* \"blank.sol\":1073:1098  uint256 EPOCH_YEAR = 1970 */\n      swap1\n      pop\n        /* \"blank.sol\":1158:1182  uint256 days_since_epoch */\n      0x00\n        /* \"blank.sol\":1197:1212  SECONDS_PER_DAY */\n      dup3\n        /* \"blank.sol\":1185:1194  timestamp */\n      dup8\n        /* \"blank.sol\":1185:1212  timestamp / SECONDS_PER_DAY */\n      tag_54\n      swap2\n      swap1\n      tag_39\n      jump\t// in\n    tag_54:\n        /* \"blank.sol\":1158:1212  uint256 days_since_epoch = timestamp / SECONDS_PER_DAY */\n      swap1\n      pop\n        /* \"blank.sol\":1286:1314  uint256 DAYS_PER_YEAR_APPROX */\n      0x00\n        /* \"blank.sol\":1317:1322  36525 */\n      0x8ead\n        /* \"blank.sol\":1286:1322  uint256 DAYS_PER_YEAR_APPROX = 36525 */\n      swap1\n      pop\n        /* \"blank.sol\":1348:1380  uint256 years_since_epoch_approx */\n      0x00\n        /* \"blank.sol\":1410:1430  DAYS_PER_YEAR_APPROX */\n      dup2\n        /* \"blank.sol\":1403:1406  100 */\n      0x64\n        /* \"blank.sol\":1384:1400  days_since_epoch */\n      dup5\n        /* \"blank.sol\":1384:1406  days_since_epoch * 100 */\n      tag_55\n      swap2\n      swap1\n      tag_56\n      jump\t// in\n    tag_55:\n        /* \"blank.sol\":1383:1430  (days_since_epoch * 100) / DAYS_PER_YEAR_APPROX */\n      tag_57\n      swap2\n      swap1\n      tag_39\n      jump\t// in\n    tag_57:\n        /* \"blank.sol\":1348:1430  uint256 years_since_epoch_approx = (days_since_epoch * 100) / DAYS_PER_YEAR_APPROX */\n      swap1\n      pop\n        /* \"blank.sol\":1460:1484  years_since_epoch_approx */\n      dup1\n        /* \"blank.sol\":1447:1457  EPOCH_YEAR */\n      dup5\n        /* \"blank.sol\":1447:1484  EPOCH_YEAR + years_since_epoch_approx */\n      tag_58\n      swap2\n      swap1\n      tag_18\n      jump\t// in\n    tag_58:\n        /* \"blank.sol\":1440:1484  year = EPOCH_YEAR + years_since_epoch_approx */\n      swap8\n      pop\n        /* \"blank.sol\":1581:1611  uint256 days_in_previous_years */\n      0x00\n        /* \"blank.sol\":1614:1615  0 */\n      0x00\n        /* \"blank.sol\":1581:1615  uint256 days_in_previous_years = 0 */\n      swap1\n      pop\n        /* \"blank.sol\":1625:1634  uint256 y */\n      0x00\n        /* \"blank.sol\":1637:1647  EPOCH_YEAR */\n      dup6\n        /* \"blank.sol\":1625:1647  uint256 y = EPOCH_YEAR */\n      swap1\n      pop\n        /* \"blank.sol\":1657:1768  while (y < year) {... */\n    tag_59:\n        /* \"blank.sol\":1668:1672  year */\n      dup10\n        /* \"blank.sol\":1664:1665  y */\n      dup2\n        /* \"blank.sol\":1664:1672  y < year */\n      lt\n        /* \"blank.sol\":1657:1768  while (y < year) {... */\n      iszero\n      tag_60\n      jumpi\n        /* \"blank.sol\":1714:1728  _isLeapYear(y) */\n      tag_61\n        /* \"blank.sol\":1726:1727  y */\n      dup2\n        /* \"blank.sol\":1714:1725  _isLeapYear */\n      tag_62\n        /* \"blank.sol\":1714:1728  _isLeapYear(y) */\n      jump\t// in\n    tag_61:\n        /* \"blank.sol\":1714:1740  _isLeapYear(y) ? 366 : 365 */\n      tag_63\n      jumpi\n        /* \"blank.sol\":1737:1740  365 */\n      0x016d\n        /* \"blank.sol\":1714:1740  _isLeapYear(y) ? 366 : 365 */\n      jump(tag_64)\n    tag_63:\n        /* \"blank.sol\":1731:1734  366 */\n      0x016e\n        /* \"blank.sol\":1714:1740  _isLeapYear(y) ? 366 : 365 */\n    tag_64:\n        /* \"blank.sol\":1688:1740  days_in_previous_years += _isLeapYear(y) ? 366 : 365 */\n      0xffff\n      and\n      dup3\n      tag_65\n      swap2\n      swap1\n      tag_18\n      jump\t// in\n    tag_65:\n      swap2\n      pop\n        /* \"blank.sol\":1754:1757  y++ */\n      dup1\n      dup1\n      tag_66\n      swap1\n      tag_67\n      jump\t// in\n    tag_66:\n      swap2\n      pop\n      pop\n        /* \"blank.sol\":1657:1768  while (y < year) {... */\n      jump(tag_59)\n    tag_60:\n        /* \"blank.sol\":1777:1796  uint256 day_of_year */\n      0x00\n        /* \"blank.sol\":1818:1840  days_in_previous_years */\n      dup3\n        /* \"blank.sol\":1799:1815  days_since_epoch */\n      dup7\n        /* \"blank.sol\":1799:1840  days_since_epoch - days_in_previous_years */\n      tag_68\n      swap2\n      swap1\n      tag_69\n      jump\t// in\n    tag_68:\n        /* \"blank.sol\":1777:1840  uint256 day_of_year = days_since_epoch - days_in_previous_years */\n      swap1\n      pop\n        /* \"blank.sol\":2012:2133  while (int256(day_of_year) < 0) {... */\n    tag_70:\n        /* \"blank.sol\":2041:2042  0 */\n      0x00\n        /* \"blank.sol\":2026:2037  day_of_year */\n      dup2\n        /* \"blank.sol\":2019:2042  int256(day_of_year) < 0 */\n      slt\n        /* \"blank.sol\":2012:2133  while (int256(day_of_year) < 0) {... */\n      iszero\n      tag_71\n      jumpi\n        /* \"blank.sol\":2058:2064  year-- */\n      dup11\n      dup1\n      tag_72\n      swap1\n      tag_73\n      jump\t// in\n    tag_72:\n      swap12\n      pop\n      pop\n        /* \"blank.sol\":2093:2110  _isLeapYear(year) */\n      tag_74\n        /* \"blank.sol\":2105:2109  year */\n      dup12\n        /* \"blank.sol\":2093:2104  _isLeapYear */\n      tag_62\n        /* \"blank.sol\":2093:2110  _isLeapYear(year) */\n      jump\t// in\n    tag_74:\n        /* \"blank.sol\":2093:2122  _isLeapYear(year) ? 366 : 365 */\n      tag_75\n      jumpi\n        /* \"blank.sol\":2119:2122  365 */\n      0x016d\n        /* \"blank.sol\":2093:2122  _isLeapYear(year) ? 366 : 365 */\n      jump(tag_76)\n    tag_75:\n        /* \"blank.sol\":2113:2116  366 */\n      0x016e\n        /* \"blank.sol\":2093:2122  _isLeapYear(year) ? 366 : 365 */\n    tag_76:\n        /* \"blank.sol\":2078:2122  day_of_year += _isLeapYear(year) ? 366 : 365 */\n      0xffff\n      and\n      dup2\n      tag_77\n      swap2\n      swap1\n      tag_18\n      jump\t// in\n    tag_77:\n      swap1\n      pop\n        /* \"blank.sol\":2012:2133  while (int256(day_of_year) < 0) {... */\n      jump(tag_70)\n    tag_71:\n        /* \"blank.sol\":2260:2291  uint8[12] memory days_in_months */\n      0x00\n        /* \"blank.sol\":2260:2685  uint8[12] memory days_in_months = [... */\n      mload(0x40)\n      dup1\n      0x0180\n      add\n      0x40\n      mstore\n      dup1\n        /* \"blank.sol\":2308:2310  31 */\n      0x1f\n        /* \"blank.sol\":2260:2685  uint8[12] memory days_in_months = [... */\n      0xff\n      and\n      dup2\n      mstore\n      0x20\n      add\n        /* \"blank.sol\":2341:2358  _isLeapYear(year) */\n      tag_78\n        /* \"blank.sol\":2353:2357  year */\n      dup15\n        /* \"blank.sol\":2341:2352  _isLeapYear */\n      tag_62\n        /* \"blank.sol\":2341:2358  _isLeapYear(year) */\n      jump\t// in\n    tag_78:\n        /* \"blank.sol\":2341:2368  _isLeapYear(year) ? 29 : 28 */\n      tag_79\n      jumpi\n        /* \"blank.sol\":2366:2368  28 */\n      0x1c\n        /* \"blank.sol\":2341:2368  _isLeapYear(year) ? 29 : 28 */\n      jump(tag_80)\n    tag_79:\n        /* \"blank.sol\":2361:2363  29 */\n      0x1d\n        /* \"blank.sol\":2341:2368  _isLeapYear(year) ? 29 : 28 */\n    tag_80:\n        /* \"blank.sol\":2260:2685  uint8[12] memory days_in_months = [... */\n      0xff\n      and\n      0xff\n      and\n      dup2\n      mstore\n      0x20\n      add\n        /* \"blank.sol\":2429:2431  31 */\n      0x1f\n        /* \"blank.sol\":2260:2685  uint8[12] memory days_in_months = [... */\n      0xff\n      and\n      dup2\n      mstore\n      0x20\n      add\n        /* \"blank.sol\":2454:2456  30 */\n      0x1e\n        /* \"blank.sol\":2260:2685  uint8[12] memory days_in_months = [... */\n      0xff\n      and\n      dup2\n      mstore\n      0x20\n      add\n        /* \"blank.sol\":2479:2481  31 */\n      0x1f\n        /* \"blank.sol\":2260:2685  uint8[12] memory days_in_months = [... */\n      0xff\n      and\n      dup2\n      mstore\n      0x20\n      add\n        /* \"blank.sol\":2502:2504  30 */\n      0x1e\n        /* \"blank.sol\":2260:2685  uint8[12] memory days_in_months = [... */\n      0xff\n      and\n      dup2\n      mstore\n      0x20\n      add\n        /* \"blank.sol\":2526:2528  31 */\n      0x1f\n        /* \"blank.sol\":2260:2685  uint8[12] memory days_in_months = [... */\n      0xff\n      and\n      dup2\n      mstore\n      0x20\n      add\n        /* \"blank.sol\":2550:2552  31 */\n      0x1f\n        /* \"blank.sol\":2260:2685  uint8[12] memory days_in_months = [... */\n      0xff\n      and\n      dup2\n      mstore\n      0x20\n      add\n        /* \"blank.sol\":2576:2578  30 */\n      0x1e\n        /* \"blank.sol\":2260:2685  uint8[12] memory days_in_months = [... */\n      0xff\n      and\n      dup2\n      mstore\n      0x20\n      add\n        /* \"blank.sol\":2605:2607  31 */\n      0x1f\n        /* \"blank.sol\":2260:2685  uint8[12] memory days_in_months = [... */\n      0xff\n      and\n      dup2\n      mstore\n      0x20\n      add\n        /* \"blank.sol\":2632:2634  30 */\n      0x1e\n        /* \"blank.sol\":2260:2685  uint8[12] memory days_in_months = [... */\n      0xff\n      and\n      dup2\n      mstore\n      0x20\n      add\n        /* \"blank.sol\":2660:2662  31 */\n      0x1f\n        /* \"blank.sol\":2260:2685  uint8[12] memory days_in_months = [... */\n      0xff\n      and\n      dup2\n      mstore\n      pop\n      swap1\n      pop\n        /* \"blank.sol\":2736:2737  1 */\n      0x01\n        /* \"blank.sol\":2728:2737  month = 1 */\n      swap11\n      pop\n        /* \"blank.sol\":2800:2991  while (day_of_year >= days_in_months[month - 1]) { // uint256 >= uint8 is fine... */\n    tag_81:\n        /* \"blank.sol\":2822:2836  days_in_months */\n      dup1\n        /* \"blank.sol\":2845:2846  1 */\n      0x01\n        /* \"blank.sol\":2837:2842  month */\n      dup13\n        /* \"blank.sol\":2837:2846  month - 1 */\n      tag_83\n      swap2\n      swap1\n      tag_69\n      jump\t// in\n    tag_83:\n        /* \"blank.sol\":2822:2847  days_in_months[month - 1] */\n      0x0c\n      dup2\n      lt\n      tag_84\n      jumpi\n      tag_85\n      tag_86\n      jump\t// in\n    tag_85:\n    tag_84:\n      0x20\n      mul\n      add\n      mload\n        /* \"blank.sol\":2807:2847  day_of_year >= days_in_months[month - 1] */\n      0xff\n      and\n        /* \"blank.sol\":2807:2818  day_of_year */\n      dup3\n        /* \"blank.sol\":2807:2847  day_of_year >= days_in_months[month - 1] */\n      lt\n        /* \"blank.sol\":2800:2991  while (day_of_year >= days_in_months[month - 1]) { // uint256 >= uint8 is fine... */\n      tag_82\n      jumpi\n        /* \"blank.sol\":2906:2920  days_in_months */\n      dup1\n        /* \"blank.sol\":2929:2930  1 */\n      0x01\n        /* \"blank.sol\":2921:2926  month */\n      dup13\n        /* \"blank.sol\":2921:2930  month - 1 */\n      tag_87\n      swap2\n      swap1\n      tag_69\n      jump\t// in\n    tag_87:\n        /* \"blank.sol\":2906:2931  days_in_months[month - 1] */\n      0x0c\n      dup2\n      lt\n      tag_88\n      jumpi\n      tag_89\n      tag_86\n      jump\t// in\n    tag_89:\n    tag_88:\n      0x20\n      mul\n      add\n      mload\n        /* \"blank.sol\":2891:2931  day_of_year -= days_in_months[month - 1] */\n      0xff\n      and\n      dup3\n      tag_90\n      swap2\n      swap1\n      tag_69\n      jump\t// in\n    tag_90:\n      swap2\n      pop\n        /* \"blank.sol\":2973:2980  month++ */\n      dup11\n      dup1\n      tag_91\n      swap1\n      tag_67\n      jump\t// in\n    tag_91:\n      swap12\n      pop\n      pop\n        /* \"blank.sol\":2800:2991  while (day_of_year >= days_in_months[month - 1]) { // uint256 >= uint8 is fine... */\n      jump(tag_81)\n    tag_82:\n        /* \"blank.sol\":3052:3053  1 */\n      0x01\n        /* \"blank.sol\":3038:3049  day_of_year */\n      dup3\n        /* \"blank.sol\":3038:3053  day_of_year + 1 */\n      tag_92\n      swap2\n      swap1\n      tag_18\n      jump\t// in\n    tag_92:\n        /* \"blank.sol\":3032:3053  day = day_of_year + 1 */\n      swap10\n      pop\n        /* \"blank.sol\":926:3088  {... */\n      pop\n      pop\n      pop\n      pop\n      pop\n      pop\n      pop\n      pop\n      pop\n        /* \"blank.sol\":743:3088  function _timestampToDate(uint256 timestamp)... */\n      swap2\n      swap4\n      swap1\n      swap3\n      pop\n      jump\t// out\n        /* \"blank.sol\":4780:5296  function _uintToString(uint256 number) private pure returns (string memory) {... */\n    tag_29:\n        /* \"blank.sol\":4841:4854  string memory */\n      0x60\n        /* \"blank.sol\":4880:4881  0 */\n      0x00\n        /* \"blank.sol\":4870:4876  number */\n      dup3\n        /* \"blank.sol\":4870:4881  number == 0 */\n      sub\n        /* \"blank.sol\":4866:4918  if (number == 0) {... */\n      tag_94\n      jumpi\n        /* \"blank.sol\":4897:4907  return \"0\" */\n      mload(0x40)\n      dup1\n      0x40\n      add\n      0x40\n      mstore\n      dup1\n      0x01\n      dup2\n      mstore\n      0x20\n      add\n      0x3000000000000000000000000000000000000000000000000000000000000000\n      dup2\n      mstore\n      pop\n      swap1\n      pop\n      jump(tag_93)\n        /* \"blank.sol\":4866:4918  if (number == 0) {... */\n    tag_94:\n        /* \"blank.sol\":4927:4939  uint256 temp */\n      0x00\n        /* \"blank.sol\":4942:4948  number */\n      dup3\n        /* \"blank.sol\":4927:4948  uint256 temp = number */\n      swap1\n      pop\n        /* \"blank.sol\":4958:4972  uint256 digits */\n      0x00\n        /* \"blank.sol\":4982:5057  while (temp != 0) {... */\n    tag_95:\n        /* \"blank.sol\":4997:4998  0 */\n      0x00\n        /* \"blank.sol\":4989:4993  temp */\n      dup3\n        /* \"blank.sol\":4989:4998  temp != 0 */\n      eq\n        /* \"blank.sol\":4982:5057  while (temp != 0) {... */\n      tag_96\n      jumpi\n        /* \"blank.sol\":5014:5022  digits++ */\n      dup1\n      dup1\n      tag_97\n      swap1\n      tag_67\n      jump\t// in\n    tag_97:\n      swap2\n      pop\n      pop\n        /* \"blank.sol\":5044:5046  10 */\n      0x0a\n        /* \"blank.sol\":5036:5046  temp /= 10 */\n      dup3\n      tag_98\n      swap2\n      swap1\n      tag_39\n      jump\t// in\n    tag_98:\n      swap2\n      pop\n        /* \"blank.sol\":4982:5057  while (temp != 0) {... */\n      jump(tag_95)\n    tag_96:\n        /* \"blank.sol\":5066:5085  bytes memory buffer */\n      0x00\n        /* \"blank.sol\":5098:5104  digits */\n      dup2\n        /* \"blank.sol\":5088:5105  new bytes(digits) */\n      0xffffffffffffffff\n      dup2\n      gt\n      iszero\n      tag_99\n      jumpi\n      tag_100\n      tag_101\n      jump\t// in\n    tag_100:\n    tag_99:\n      mload(0x40)\n      swap1\n      dup1\n      dup3\n      mstore\n      dup1\n      0x1f\n      add\n      not(0x1f)\n      and\n      0x20\n      add\n      dup3\n      add\n      0x40\n      mstore\n      dup1\n      iszero\n      tag_102\n      jumpi\n      dup2\n      0x20\n      add\n      0x01\n      dup3\n      mul\n      dup1\n      calldatasize\n      dup4\n      calldatacopy\n      dup1\n      dup3\n      add\n      swap2\n      pop\n      pop\n      swap1\n      pop\n    tag_102:\n      pop\n        /* \"blank.sol\":5066:5105  bytes memory buffer = new bytes(digits) */\n      swap1\n      pop\n        /* \"blank.sol\":5115:5259  while (number != 0) {... */\n    tag_103:\n        /* \"blank.sol\":5132:5133  0 */\n      0x00\n        /* \"blank.sol\":5122:5128  number */\n      dup6\n        /* \"blank.sol\":5122:5133  number != 0 */\n      eq\n        /* \"blank.sol\":5115:5259  while (number != 0) {... */\n      tag_104\n      jumpi\n        /* \"blank.sol\":5159:5160  1 */\n      0x01\n        /* \"blank.sol\":5149:5160  digits -= 1 */\n      dup3\n      tag_105\n      swap2\n      swap1\n      tag_69\n      jump\t// in\n    tag_105:\n      swap2\n      pop\n        /* \"blank.sol\":5218:5220  10 */\n      0x0a\n        /* \"blank.sol\":5209:5215  number */\n      dup6\n        /* \"blank.sol\":5209:5220  number % 10 */\n      tag_106\n      swap2\n      swap1\n      tag_44\n      jump\t// in\n    tag_106:\n        /* \"blank.sol\":5204:5206  48 */\n      0x30\n        /* \"blank.sol\":5204:5220  48 + number % 10 */\n      tag_107\n      swap2\n      swap1\n      tag_18\n      jump\t// in\n    tag_107:\n        /* \"blank.sol\":5191:5222  bytes1(uint8(48 + number % 10)) */\n      0xf8\n      shl\n        /* \"blank.sol\":5174:5180  buffer */\n      dup2\n        /* \"blank.sol\":5181:5187  digits */\n      dup4\n        /* \"blank.sol\":5174:5188  buffer[digits] */\n      dup2\n      mload\n      dup2\n      lt\n      tag_108\n      jumpi\n      tag_109\n      tag_86\n      jump\t// in\n    tag_109:\n    tag_108:\n      0x20\n      add\n      add\n        /* \"blank.sol\":5174:5222  buffer[digits] = bytes1(uint8(48 + number % 10)) */\n      swap1\n      not(0xffffffffffffffffffffffffffffffffffffffffffffffffffffffffffffff)\n      and\n      swap1\n      dup2\n      0x00\n      byte\n      swap1\n      mstore8\n      pop\n        /* \"blank.sol\":5246:5248  10 */\n      0x0a\n        /* \"blank.sol\":5236:5248  number /= 10 */\n      dup6\n      tag_110\n      swap2\n      swap1\n      tag_39\n      jump\t// in\n    tag_110:\n      swap5\n      pop\n        /* \"blank.sol\":5115:5259  while (number != 0) {... */\n      jump(tag_103)\n    tag_104:\n        /* \"blank.sol\":5282:5288  buffer */\n      dup1\n        /* \"blank.sol\":5268:5289  return string(buffer) */\n      swap4\n      pop\n      pop\n      pop\n      pop\n        /* \"blank.sol\":4780:5296  function _uintToString(uint256 number) private pure returns (string memory) {... */\n    tag_93:\n      swap2\n      swap1\n      pop\n      jump\t// out\n        /* \"blank.sol\":5302:5446  function _padZero(string memory s) private pure returns (string memory) {... */\n    tag_32:\n        /* \"blank.sol\":5359:5372  string memory */\n      0x60\n        /* \"blank.sol\":5410:5411  1 */\n      0x01\n        /* \"blank.sol\":5397:5398  s */\n      dup3\n        /* \"blank.sol\":5391:5406  bytes(s).length */\n      mload\n        /* \"blank.sol\":5391:5411  bytes(s).length == 1 */\n      eq\n        /* \"blank.sol\":5391:5439  bytes(s).length == 1 ? string.concat(\"0\", s) : s */\n      tag_112\n      jumpi\n        /* \"blank.sol\":5438:5439  s */\n      dup2\n        /* \"blank.sol\":5391:5439  bytes(s).length == 1 ? string.concat(\"0\", s) : s */\n      jump(tag_113)\n    tag_112:\n        /* \"blank.sol\":5433:5434  s */\n      dup2\n        /* \"blank.sol\":5414:5435  string.concat(\"0\", s) */\n      add(0x20, mload(0x40))\n      tag_114\n      swap2\n      swap1\n      tag_115\n      jump\t// in\n    tag_114:\n      mload(0x40)\n      0x20\n      dup2\n      dup4\n      sub\n      sub\n      dup2\n      mstore\n      swap1\n      0x40\n      mstore\n        /* \"blank.sol\":5391:5439  bytes(s).length == 1 ? string.concat(\"0\", s) : s */\n    tag_113:\n        /* \"blank.sol\":5384:5439  return bytes(s).length == 1 ? string.concat(\"0\", s) : s */\n      swap1\n      pop\n        /* \"blank.sol\":5302:5446  function _padZero(string memory s) private pure returns (string memory) {... */\n      swap2\n      swap1\n      pop\n      jump\t// out\n        /* \"blank.sol\":3240:3382  function _isLeapYear(uint256 year) private pure returns (bool) {... */\n    tag_62:\n        /* \"blank.sol\":3297:3301  bool */\n      0x00\n        /* \"blank.sol\":3333:3334  0 */\n      0x00\n        /* \"blank.sol\":3328:3329  4 */\n      0x04\n        /* \"blank.sol\":3321:3325  year */\n      dup4\n        /* \"blank.sol\":3321:3329  year % 4 */\n      tag_117\n      swap2\n      swap1\n      tag_44\n      jump\t// in\n    tag_117:\n        /* \"blank.sol\":3321:3334  year % 4 == 0 */\n      eq\n        /* \"blank.sol\":3321:3353  year % 4 == 0 && year % 100 != 0 */\n      dup1\n      iszero\n      tag_118\n      jumpi\n      pop\n        /* \"blank.sol\":3352:3353  0 */\n      0x00\n        /* \"blank.sol\":3345:3348  100 */\n      0x64\n        /* \"blank.sol\":3338:3342  year */\n      dup4\n        /* \"blank.sol\":3338:3348  year % 100 */\n      tag_119\n      swap2\n      swap1\n      tag_44\n      jump\t// in\n    tag_119:\n        /* \"blank.sol\":3338:3353  year % 100 != 0 */\n      eq\n      iszero\n        /* \"blank.sol\":3321:3353  year % 4 == 0 && year % 100 != 0 */\n    tag_118:\n        /* \"blank.sol\":3320:3375  (year % 4 == 0 && year % 100 != 0) || (year % 400 == 0) */\n      dup1\n      tag_120\n      jumpi\n      pop\n        /* \"blank.sol\":3373:3374  0 */\n      0x00\n        /* \"blank.sol\":3366:3369  400 */\n      0x0190\n        /* \"blank.sol\":3359:3363  year */\n      dup4\n        /* \"blank.sol\":3359:3369  year % 400 */\n      tag_121\n      swap2\n      swap1\n      tag_44\n      jump\t// in\n    tag_121:\n        /* \"blank.sol\":3359:3374  year % 400 == 0 */\n      eq\n        /* \"blank.sol\":3320:3375  (year % 4 == 0 && year % 100 != 0) || (year % 400 == 0) */\n    tag_120:\n        /* \"blank.sol\":3313:3375  return (year % 4 == 0 && year % 100 != 0) || (year % 400 == 0) */\n      swap1\n      pop\n        /* \"blank.sol\":3240:3382  function _isLeapYear(uint256 year) private pure returns (bool) {... */\n      swap2\n      swap1\n      pop\n      jump\t// out\n        /* \"#utility.yul\":7:106   */\n    tag_122:\n        /* \"#utility.yul\":59:65   */\n      0x00\n        /* \"#utility.yul\":93:98   */\n      dup2\n        /* \"#utility.yul\":87:99   */\n      mload\n        /* \"#utility.yul\":77:99   */\n      swap1\n      pop\n        /* \"#utility.yul\":7:106   */\n      swap2\n      swap1\n      pop\n      jump\t// out\n        /* \"#utility.yul\":112:281   */\n    tag_123:\n        /* \"#utility.yul\":196:207   */\n      0x00\n        /* \"#utility.yul\":230:236   */\n      dup3\n        /* \"#utility.yul\":225:228   */\n      dup3\n        /* \"#utility.yul\":218:237   */\n      mstore\n        /* \"#utility.yul\":270:274   */\n      0x20\n        /* \"#utility.yul\":265:268   */\n      dup3\n        /* \"#utility.yul\":261:275   */\n      add\n        /* \"#utility.yul\":246:275   */\n      swap1\n      pop\n        /* \"#utility.yul\":112:281   */\n      swap3\n      swap2\n      pop\n      pop\n      jump\t// out\n        /* \"#utility.yul\":287:426   */\n    tag_124:\n        /* \"#utility.yul\":376:382   */\n      dup3\n        /* \"#utility.yul\":371:374   */\n      dup2\n        /* \"#utility.yul\":366:369   */\n      dup4\n        /* \"#utility.yul\":360:383   */\n      mcopy\n        /* \"#utility.yul\":417:418   */\n      0x00\n        /* \"#utility.yul\":408:414   */\n      dup4\n        /* \"#utility.yul\":403:406   */\n      dup4\n        /* \"#utility.yul\":399:415   */\n      add\n        /* \"#utility.yul\":392:419   */\n      mstore\n        /* \"#utility.yul\":287:426   */\n      pop\n      pop\n      pop\n      jump\t// out\n        /* \"#utility.yul\":432:534   */\n    tag_125:\n        /* \"#utility.yul\":473:479   */\n      0x00\n        /* \"#utility.yul\":524:526   */\n      0x1f\n        /* \"#utility.yul\":520:527   */\n      not\n        /* \"#utility.yul\":515:517   */\n      0x1f\n        /* \"#utility.yul\":508:513   */\n      dup4\n        /* \"#utility.yul\":504:518   */\n      add\n        /* \"#utility.yul\":500:528   */\n      and\n        /* \"#utility.yul\":490:528   */\n      swap1\n      pop\n        /* \"#utility.yul\":432:534   */\n      swap2\n      swap1\n      pop\n      jump\t// out\n        /* \"#utility.yul\":540:917   */\n    tag_126:\n        /* \"#utility.yul\":628:631   */\n      0x00\n        /* \"#utility.yul\":656:695   */\n      tag_148\n        /* \"#utility.yul\":689:694   */\n      dup3\n        /* \"#utility.yul\":656:695   */\n      tag_122\n      jump\t// in\n    tag_148:\n        /* \"#utility.yul\":711:782   */\n      tag_149\n        /* \"#utility.yul\":775:781   */\n      dup2\n        /* \"#utility.yul\":770:773   */\n      dup6\n        /* \"#utility.yul\":711:782   */\n      tag_123\n      jump\t// in\n    tag_149:\n        /* \"#utility.yul\":704:782   */\n      swap4\n      pop\n        /* \"#utility.yul\":791:856   */\n      tag_150\n        /* \"#utility.yul\":849:855   */\n      dup2\n        /* \"#utility.yul\":844:847   */\n      dup6\n        /* \"#utility.yul\":837:841   */\n      0x20\n        /* \"#utility.yul\":830:835   */\n      dup7\n        /* \"#utility.yul\":826:842   */\n      add\n        /* \"#utility.yul\":791:856   */\n      tag_124\n      jump\t// in\n    tag_150:\n        /* \"#utility.yul\":881:910   */\n      tag_151\n        /* \"#utility.yul\":903:909   */\n      dup2\n        /* \"#utility.yul\":881:910   */\n      tag_125\n      jump\t// in\n    tag_151:\n        /* \"#utility.yul\":876:879   */\n      dup5\n        /* \"#utility.yul\":872:911   */\n      add\n        /* \"#utility.yul\":865:911   */\n      swap2\n      pop\n        /* \"#utility.yul\":632:917   */\n      pop\n        /* \"#utility.yul\":540:917   */\n      swap3\n      swap2\n      pop\n      pop\n      jump\t// out\n        /* \"#utility.yul\":923:1236   */\n    tag_7:\n        /* \"#utility.yul\":1036:1040   */\n      0x00\n        /* \"#utility.yul\":1074:1076   */\n      0x20\n        /* \"#utility.yul\":1063:1072   */\n      dup3\n        /* \"#utility.yul\":1059:1077   */\n      add\n        /* \"#utility.yul\":1051:1077   */\n      swap1\n      pop\n        /* \"#utility.yul\":1123:1132   */\n      dup2\n        /* \"#utility.yul\":1117:1121   */\n      dup2\n        /* \"#utility.yul\":1113:1133   */\n      sub\n        /* \"#utility.yul\":1109:1110   */\n      0x00\n        /* \"#utility.yul\":1098:1107   */\n      dup4\n        /* \"#utility.yul\":1094:1111   */\n      add\n        /* \"#utility.yul\":1087:1134   */\n      mstore\n        /* \"#utility.yul\":1151:1229   */\n      tag_153\n        /* \"#utility.yul\":1224:1228   */\n      dup2\n        /* \"#utility.yul\":1215:1221   */\n      dup5\n        /* \"#utility.yul\":1151:1229   */\n      tag_126\n      jump\t// in\n    tag_153:\n        /* \"#utility.yul\":1143:1229   */\n      swap1\n      pop\n        /* \"#utility.yul\":923:1236   */\n      swap3\n      swap2\n      pop\n      pop\n      jump\t// out\n        /* \"#utility.yul\":1242:1422   */\n    tag_127:\n        /* \"#utility.yul\":1290:1367   */\n      0x4e487b7100000000000000000000000000000000000000000000000000000000\n        /* \"#utility.yul\":1287:1288   */\n      0x00\n        /* \"#utility.yul\":1280:1368   */\n      mstore\n        /* \"#utility.yul\":1387:1391   */\n      0x22\n        /* \"#utility.yul\":1384:1385   */\n      0x04\n        /* \"#utility.yul\":1377:1392   */\n      mstore\n        /* \"#utility.yul\":1411:1415   */\n      0x24\n        /* \"#utility.yul\":1408:1409   */\n      0x00\n        /* \"#utility.yul\":1401:1416   */\n      revert\n        /* \"#utility.yul\":1428:1748   */\n    tag_128:\n        /* \"#utility.yul\":1472:1478   */\n      0x00\n        /* \"#utility.yul\":1509:1510   */\n      0x02\n        /* \"#utility.yul\":1503:1507   */\n      dup3\n        /* \"#utility.yul\":1499:1511   */\n      div\n        /* \"#utility.yul\":1489:1511   */\n      swap1\n      pop\n        /* \"#utility.yul\":1556:1557   */\n      0x01\n        /* \"#utility.yul\":1550:1554   */\n      dup3\n        /* \"#utility.yul\":1546:1558   */\n      and\n        /* \"#utility.yul\":1577:1595   */\n      dup1\n        /* \"#utility.yul\":1567:1648   */\n      tag_156\n      jumpi\n        /* \"#utility.yul\":1633:1637   */\n      0x7f\n        /* \"#utility.yul\":1625:1631   */\n      dup3\n        /* \"#utility.yul\":1621:1638   */\n      and\n        /* \"#utility.yul\":1611:1638   */\n      swap2\n      pop\n        /* \"#utility.yul\":1567:1648   */\n    tag_156:\n        /* \"#utility.yul\":1695:1697   */\n      0x20\n        /* \"#utility.yul\":1687:1693   */\n      dup3\n        /* \"#utility.yul\":1684:1698   */\n      lt\n        /* \"#utility.yul\":1664:1682   */\n      dup2\n        /* \"#utility.yul\":1661:1699   */\n      sub\n        /* \"#utility.yul\":1658:1742   */\n      tag_157\n      jumpi\n        /* \"#utility.yul\":1714:1732   */\n      tag_158\n      tag_127\n      jump\t// in\n    tag_158:\n        /* \"#utility.yul\":1658:1742   */\n    tag_157:\n        /* \"#utility.yul\":1479:1748   */\n      pop\n        /* \"#utility.yul\":1428:1748   */\n      swap2\n      swap1\n      pop\n      jump\t// out\n        /* \"#utility.yul\":1754:1902   */\n    tag_129:\n        /* \"#utility.yul\":1856:1867   */\n      0x00\n        /* \"#utility.yul\":1893:1896   */\n      dup2\n        /* \"#utility.yul\":1878:1896   */\n      swap1\n      pop\n        /* \"#utility.yul\":1754:1902   */\n      swap3\n      swap2\n      pop\n      pop\n      jump\t// out\n        /* \"#utility.yul\":1908:2049   */\n    tag_130:\n        /* \"#utility.yul\":1957:1961   */\n      0x00\n        /* \"#utility.yul\":1980:1983   */\n      dup2\n        /* \"#utility.yul\":1972:1983   */\n      swap1\n      pop\n        /* \"#utility.yul\":2003:2006   */\n      dup2\n        /* \"#utility.yul\":2000:2001   */\n      0x00\n        /* \"#utility.yul\":1993:2007   */\n      mstore\n        /* \"#utility.yul\":2037:2041   */\n      0x20\n        /* \"#utility.yul\":2034:2035   */\n      0x00\n        /* \"#utility.yul\":2024:2042   */\n      keccak256\n        /* \"#utility.yul\":2016:2042   */\n      swap1\n      pop\n        /* \"#utility.yul\":1908:2049   */\n      swap2\n      swap1\n      pop\n      jump\t// out\n        /* \"#utility.yul\":2079:2953   */\n    tag_131:\n        /* \"#utility.yul\":2182:2185   */\n      0x00\n        /* \"#utility.yul\":2219:2224   */\n      dup2\n        /* \"#utility.yul\":2213:2225   */\n      sload\n        /* \"#utility.yul\":2248:2284   */\n      tag_162\n        /* \"#utility.yul\":2274:2283   */\n      dup2\n        /* \"#utility.yul\":2248:2284   */\n      tag_128\n      jump\t// in\n    tag_162:\n        /* \"#utility.yul\":2300:2389   */\n      tag_163\n        /* \"#utility.yul\":2382:2388   */\n      dup2\n        /* \"#utility.yul\":2377:2380   */\n      dup7\n        /* \"#utility.yul\":2300:2389   */\n      tag_129\n      jump\t// in\n    tag_163:\n        /* \"#utility.yul\":2293:2389   */\n      swap5\n      pop\n        /* \"#utility.yul\":2420:2421   */\n      0x01\n        /* \"#utility.yul\":2409:2418   */\n      dup3\n        /* \"#utility.yul\":2405:2422   */\n      and\n        /* \"#utility.yul\":2436:2437   */\n      0x00\n        /* \"#utility.yul\":2431:2597   */\n      dup2\n      eq\n      tag_165\n      jumpi\n        /* \"#utility.yul\":2611:2612   */\n      0x01\n        /* \"#utility.yul\":2606:2947   */\n      dup2\n      eq\n      tag_166\n      jumpi\n        /* \"#utility.yul\":2398:2947   */\n      jump(tag_164)\n        /* \"#utility.yul\":2431:2597   */\n    tag_165:\n        /* \"#utility.yul\":2515:2519   */\n      0xff\n        /* \"#utility.yul\":2511:2520   */\n      not\n        /* \"#utility.yul\":2500:2509   */\n      dup4\n        /* \"#utility.yul\":2496:2521   */\n      and\n        /* \"#utility.yul\":2491:2494   */\n      dup7\n        /* \"#utility.yul\":2484:2522   */\n      mstore\n        /* \"#utility.yul\":2577:2583   */\n      dup2\n        /* \"#utility.yul\":2570:2584   */\n      iszero\n        /* \"#utility.yul\":2563:2585   */\n      iszero\n        /* \"#utility.yul\":2555:2561   */\n      dup3\n        /* \"#utility.yul\":2551:2586   */\n      mul\n        /* \"#utility.yul\":2546:2549   */\n      dup7\n        /* \"#utility.yul\":2542:2587   */\n      add\n        /* \"#utility.yul\":2535:2587   */\n      swap4\n      pop\n        /* \"#utility.yul\":2431:2597   */\n      jump(tag_164)\n        /* \"#utility.yul\":2606:2947   */\n    tag_166:\n        /* \"#utility.yul\":2673:2711   */\n      tag_167\n        /* \"#utility.yul\":2705:2710   */\n      dup6\n        /* \"#utility.yul\":2673:2711   */\n      tag_130\n      jump\t// in\n    tag_167:\n        /* \"#utility.yul\":2733:2734   */\n      0x00\n        /* \"#utility.yul\":2747:2901   */\n    tag_168:\n        /* \"#utility.yul\":2761:2767   */\n      dup4\n        /* \"#utility.yul\":2758:2759   */\n      dup2\n        /* \"#utility.yul\":2755:2768   */\n      lt\n        /* \"#utility.yul\":2747:2901   */\n      iszero\n      tag_170\n      jumpi\n        /* \"#utility.yul\":2835:2842   */\n      dup2\n        /* \"#utility.yul\":2829:2843   */\n      sload\n        /* \"#utility.yul\":2825:2826   */\n      dup2\n        /* \"#utility.yul\":2820:2823   */\n      dup10\n        /* \"#utility.yul\":2816:2827   */\n      add\n        /* \"#utility.yul\":2809:2844   */\n      mstore\n        /* \"#utility.yul\":2885:2886   */\n      0x01\n        /* \"#utility.yul\":2876:2883   */\n      dup3\n        /* \"#utility.yul\":2872:2887   */\n      add\n        /* \"#utility.yul\":2861:2887   */\n      swap2\n      pop\n        /* \"#utility.yul\":2783:2787   */\n      0x20\n        /* \"#utility.yul\":2780:2781   */\n      dup2\n        /* \"#utility.yul\":2776:2788   */\n      add\n        /* \"#utility.yul\":2771:2788   */\n      swap1\n      pop\n        /* \"#utility.yul\":2747:2901   */\n      jump(tag_168)\n    tag_170:\n        /* \"#utility.yul\":2930:2936   */\n      dup4\n        /* \"#utility.yul\":2925:2928   */\n      dup9\n        /* \"#utility.yul\":2921:2937   */\n      add\n        /* \"#utility.yul\":2914:2937   */\n      swap6\n      pop\n        /* \"#utility.yul\":2613:2947   */\n      pop\n      pop\n        /* \"#utility.yul\":2398:2947   */\n    tag_164:\n      pop\n        /* \"#utility.yul\":2186:2953   */\n      pop\n      pop\n        /* \"#utility.yul\":2079:2953   */\n      swap3\n      swap2\n      pop\n      pop\n      jump\t// out\n        /* \"#utility.yul\":2959:3142   */\n    tag_132:\n        /* \"#utility.yul\":3127:3131   */\n      0x2028000000000000000000000000000000000000000000000000000000000000\n        /* \"#utility.yul\":3122:3125   */\n      dup2\n        /* \"#utility.yul\":3115:3132   */\n      mstore\n        /* \"#utility.yul\":2959:3142   */\n      pop\n      jump\t// out\n        /* \"#utility.yul\":3152:3562   */\n    tag_133:\n        /* \"#utility.yul\":3258:3261   */\n      0x00\n        /* \"#utility.yul\":3290:3329   */\n      tag_173\n        /* \"#utility.yul\":3323:3328   */\n      dup3\n        /* \"#utility.yul\":3290:3329   */\n      tag_122\n      jump\t// in\n    tag_173:\n        /* \"#utility.yul\":3349:3438   */\n      tag_174\n        /* \"#utility.yul\":3431:3437   */\n      dup2\n        /* \"#utility.yul\":3426:3429   */\n      dup6\n        /* \"#utility.yul\":3349:3438   */\n      tag_129\n      jump\t// in\n    tag_174:\n        /* \"#utility.yul\":3342:3438   */\n      swap4\n      pop\n        /* \"#utility.yul\":3451:3516   */\n      tag_175\n        /* \"#utility.yul\":3509:3515   */\n      dup2\n        /* \"#utility.yul\":3504:3507   */\n      dup6\n        /* \"#utility.yul\":3497:3501   */\n      0x20\n        /* \"#utility.yul\":3490:3495   */\n      dup7\n        /* \"#utility.yul\":3486:3502   */\n      add\n        /* \"#utility.yul\":3451:3516   */\n      tag_124\n      jump\t// in\n    tag_175:\n        /* \"#utility.yul\":3545:3551   */\n      dup1\n        /* \"#utility.yul\":3540:3543   */\n      dup5\n        /* \"#utility.yul\":3536:3552   */\n      add\n        /* \"#utility.yul\":3529:3552   */\n      swap2\n      pop\n        /* \"#utility.yul\":3262:3562   */\n      pop\n        /* \"#utility.yul\":3152:3562   */\n      swap3\n      swap2\n      pop\n      pop\n      jump\t// out\n        /* \"#utility.yul\":3572:3750   */\n    tag_134:\n        /* \"#utility.yul\":3740:3743   */\n      0x2900000000000000000000000000000000000000000000000000000000000000\n        /* \"#utility.yul\":3735:3738   */\n      dup2\n        /* \"#utility.yul\":3728:3744   */\n      mstore\n        /* \"#utility.yul\":3572:3750   */\n      pop\n      jump\t// out\n        /* \"#utility.yul\":3756:4713   */\n    tag_15:\n        /* \"#utility.yul\":4113:4116   */\n      0x00\n        /* \"#utility.yul\":4135:4227   */\n      tag_178\n        /* \"#utility.yul\":4223:4226   */\n      dup3\n        /* \"#utility.yul\":4214:4220   */\n      dup6\n        /* \"#utility.yul\":4135:4227   */\n      tag_131\n      jump\t// in\n    tag_178:\n        /* \"#utility.yul\":4128:4227   */\n      swap2\n      pop\n        /* \"#utility.yul\":4237:4374   */\n      tag_179\n        /* \"#utility.yul\":4370:4373   */\n      dup3\n        /* \"#utility.yul\":4237:4374   */\n      tag_132\n      jump\t// in\n    tag_179:\n        /* \"#utility.yul\":4399:4400   */\n      0x02\n        /* \"#utility.yul\":4394:4397   */\n      dup3\n        /* \"#utility.yul\":4390:4401   */\n      add\n        /* \"#utility.yul\":4383:4401   */\n      swap2\n      pop\n        /* \"#utility.yul\":4418:4513   */\n      tag_180\n        /* \"#utility.yul\":4509:4512   */\n      dup3\n        /* \"#utility.yul\":4500:4506   */\n      dup5\n        /* \"#utility.yul\":4418:4513   */\n      tag_133\n      jump\t// in\n    tag_180:\n        /* \"#utility.yul\":4411:4513   */\n      swap2\n      pop\n        /* \"#utility.yul\":4523:4660   */\n      tag_181\n        /* \"#utility.yul\":4656:4659   */\n      dup3\n        /* \"#utility.yul\":4523:4660   */\n      tag_134\n      jump\t// in\n    tag_181:\n        /* \"#utility.yul\":4685:4686   */\n      0x01\n        /* \"#utility.yul\":4680:4683   */\n      dup3\n        /* \"#utility.yul\":4676:4687   */\n      add\n        /* \"#utility.yul\":4669:4687   */\n      swap2\n      pop\n        /* \"#utility.yul\":4704:4707   */\n      dup2\n        /* \"#utility.yul\":4697:4707   */\n      swap1\n      pop\n        /* \"#utility.yul\":3756:4713   */\n      swap4\n      swap3\n      pop\n      pop\n      pop\n      jump\t// out\n        /* \"#utility.yul\":4719:4796   */\n    tag_135:\n        /* \"#utility.yul\":4756:4763   */\n      0x00\n        /* \"#utility.yul\":4785:4790   */\n      dup2\n        /* \"#utility.yul\":4774:4790   */\n      swap1\n      pop\n        /* \"#utility.yul\":4719:4796   */\n      swap2\n      swap1\n      pop\n      jump\t// out\n        /* \"#utility.yul\":4802:4982   */\n    tag_136:\n        /* \"#utility.yul\":4850:4927   */\n      0x4e487b7100000000000000000000000000000000000000000000000000000000\n        /* \"#utility.yul\":4847:4848   */\n      0x00\n        /* \"#utility.yul\":4840:4928   */\n      mstore\n        /* \"#utility.yul\":4947:4951   */\n      0x11\n        /* \"#utility.yul\":4944:4945   */\n      0x04\n        /* \"#utility.yul\":4937:4952   */\n      mstore\n        /* \"#utility.yul\":4971:4975   */\n      0x24\n        /* \"#utility.yul\":4968:4969   */\n      0x00\n        /* \"#utility.yul\":4961:4976   */\n      revert\n        /* \"#utility.yul\":4988:5179   */\n    tag_18:\n        /* \"#utility.yul\":5028:5031   */\n      0x00\n        /* \"#utility.yul\":5047:5067   */\n      tag_185\n        /* \"#utility.yul\":5065:5066   */\n      dup3\n        /* \"#utility.yul\":5047:5067   */\n      tag_135\n      jump\t// in\n    tag_185:\n        /* \"#utility.yul\":5042:5067   */\n      swap2\n      pop\n        /* \"#utility.yul\":5081:5101   */\n      tag_186\n        /* \"#utility.yul\":5099:5100   */\n      dup4\n        /* \"#utility.yul\":5081:5101   */\n      tag_135\n      jump\t// in\n    tag_186:\n        /* \"#utility.yul\":5076:5101   */\n      swap3\n      pop\n        /* \"#utility.yul\":5124:5125   */\n      dup3\n        /* \"#utility.yul\":5121:5122   */\n      dup3\n        /* \"#utility.yul\":5117:5126   */\n      add\n        /* \"#utility.yul\":5110:5126   */\n      swap1\n      pop\n        /* \"#utility.yul\":5145:5148   */\n      dup1\n        /* \"#utility.yul\":5142:5143   */\n      dup3\n        /* \"#utility.yul\":5139:5149   */\n      gt\n        /* \"#utility.yul\":5136:5172   */\n      iszero\n      tag_187\n      jumpi\n        /* \"#utility.yul\":5152:5170   */\n      tag_188\n      tag_136\n      jump\t// in\n    tag_188:\n        /* \"#utility.yul\":5136:5172   */\n    tag_187:\n        /* \"#utility.yul\":4988:5179   */\n      swap3\n      swap2\n      pop\n      pop\n      jump\t// out\n        /* \"#utility.yul\":5185:5363   */\n    tag_137:\n        /* \"#utility.yul\":5353:5356   */\n      0x2000000000000000000000000000000000000000000000000000000000000000\n        /* \"#utility.yul\":5348:5351   */\n      dup2\n        /* \"#utility.yul\":5341:5357   */\n      mstore\n        /* \"#utility.yul\":5185:5363   */\n      pop\n      jump\t// out\n        /* \"#utility.yul\":5369:6068   */\n    tag_24:\n        /* \"#utility.yul\":5639:5642   */\n      0x00\n        /* \"#utility.yul\":5661:5756   */\n      tag_191\n        /* \"#utility.yul\":5752:5755   */\n      dup3\n        /* \"#utility.yul\":5743:5749   */\n      dup6\n        /* \"#utility.yul\":5661:5756   */\n      tag_133\n      jump\t// in\n    tag_191:\n        /* \"#utility.yul\":5654:5756   */\n      swap2\n      pop\n        /* \"#utility.yul\":5766:5903   */\n      tag_192\n        /* \"#utility.yul\":5899:5902   */\n      dup3\n        /* \"#utility.yul\":5766:5903   */\n      tag_137\n      jump\t// in\n    tag_192:\n        /* \"#utility.yul\":5928:5929   */\n      0x01\n        /* \"#utility.yul\":5923:5926   */\n      dup3\n        /* \"#utility.yul\":5919:5930   */\n      add\n        /* \"#utility.yul\":5912:5930   */\n      swap2\n      pop\n        /* \"#utility.yul\":5947:6042   */\n      tag_193\n        /* \"#utility.yul\":6038:6041   */\n      dup3\n        /* \"#utility.yul\":6029:6035   */\n      dup5\n        /* \"#utility.yul\":5947:6042   */\n      tag_133\n      jump\t// in\n    tag_193:\n        /* \"#utility.yul\":5940:6042   */\n      swap2\n      pop\n        /* \"#utility.yul\":6059:6062   */\n      dup2\n        /* \"#utility.yul\":6052:6062   */\n      swap1\n      pop\n        /* \"#utility.yul\":5369:6068   */\n      swap4\n      swap3\n      pop\n      pop\n      pop\n      jump\t// out\n        /* \"#utility.yul\":6074:6252   */\n    tag_138:\n        /* \"#utility.yul\":6242:6245   */\n      0x2d00000000000000000000000000000000000000000000000000000000000000\n        /* \"#utility.yul\":6237:6240   */\n      dup2\n        /* \"#utility.yul\":6230:6246   */\n      mstore\n        /* \"#utility.yul\":6074:6252   */\n      pop\n      jump\t// out\n        /* \"#utility.yul\":6258:7381   */\n    tag_36:\n        /* \"#utility.yul\":6666:6669   */\n      0x00\n        /* \"#utility.yul\":6688:6783   */\n      tag_196\n        /* \"#utility.yul\":6779:6782   */\n      dup3\n        /* \"#utility.yul\":6770:6776   */\n      dup7\n        /* \"#utility.yul\":6688:6783   */\n      tag_133\n      jump\t// in\n    tag_196:\n        /* \"#utility.yul\":6681:6783   */\n      swap2\n      pop\n        /* \"#utility.yul\":6793:6930   */\n      tag_197\n        /* \"#utility.yul\":6926:6929   */\n      dup3\n        /* \"#utility.yul\":6793:6930   */\n      tag_138\n      jump\t// in\n    tag_197:\n        /* \"#utility.yul\":6955:6956   */\n      0x01\n        /* \"#utility.yul\":6950:6953   */\n      dup3\n        /* \"#utility.yul\":6946:6957   */\n      add\n        /* \"#utility.yul\":6939:6957   */\n      swap2\n      pop\n        /* \"#utility.yul\":6974:7069   */\n      tag_198\n        /* \"#utility.yul\":7065:7068   */\n      dup3\n        /* \"#utility.yul\":7056:7062   */\n      dup6\n        /* \"#utility.yul\":6974:7069   */\n      tag_133\n      jump\t// in\n    tag_198:\n        /* \"#utility.yul\":6967:7069   */\n      swap2\n      pop\n        /* \"#utility.yul\":7079:7216   */\n      tag_199\n        /* \"#utility.yul\":7212:7215   */\n      dup3\n        /* \"#utility.yul\":7079:7216   */\n      tag_138\n      jump\t// in\n    tag_199:\n        /* \"#utility.yul\":7241:7242   */\n      0x01\n        /* \"#utility.yul\":7236:7239   */\n      dup3\n        /* \"#utility.yul\":7232:7243   */\n      add\n        /* \"#utility.yul\":7225:7243   */\n      swap2\n      pop\n        /* \"#utility.yul\":7260:7355   */\n      tag_200\n        /* \"#utility.yul\":7351:7354   */\n      dup3\n        /* \"#utility.yul\":7342:7348   */\n      dup5\n        /* \"#utility.yul\":7260:7355   */\n      tag_133\n      jump\t// in\n    tag_200:\n        /* \"#utility.yul\":7253:7355   */\n      swap2\n      pop\n        /* \"#utility.yul\":7372:7375   */\n      dup2\n        /* \"#utility.yul\":7365:7375   */\n      swap1\n      pop\n        /* \"#utility.yul\":6258:7381   */\n      swap5\n      swap4\n      pop\n      pop\n      pop\n      pop\n      jump\t// out\n        /* \"#utility.yul\":7387:7567   */\n    tag_139:\n        /* \"#utility.yul\":7435:7512   */\n      0x4e487b7100000000000000000000000000000000000000000000000000000000\n        /* \"#utility.yul\":7432:7433   */\n      0x00\n        /* \"#utility.yul\":7425:7513   */\n      mstore\n        /* \"#utility.yul\":7532:7536   */\n      0x12\n        /* \"#utility.yul\":7529:7530   */\n      0x04\n        /* \"#utility.yul\":7522:7537   */\n      mstore\n        /* \"#utility.yul\":7556:7560   */\n      0x24\n        /* \"#utility.yul\":7553:7554   */\n      0x00\n        /* \"#utility.yul\":7546:7561   */\n      revert\n        /* \"#utility.yul\":7573:7758   */\n    tag_39:\n        /* \"#utility.yul\":7613:7614   */\n      0x00\n        /* \"#utility.yul\":7630:7650   */\n      tag_203\n        /* \"#utility.yul\":7648:7649   */\n      dup3\n        /* \"#utility.yul\":7630:7650   */\n      tag_135\n      jump\t// in\n    tag_203:\n        /* \"#utility.yul\":7625:7650   */\n      swap2\n      pop\n        /* \"#utility.yul\":7664:7684   */\n      tag_204\n        /* \"#utility.yul\":7682:7683   */\n      dup4\n        /* \"#utility.yul\":7664:7684   */\n      tag_135\n      jump\t// in\n    tag_204:\n        /* \"#utility.yul\":7659:7684   */\n      swap3\n      pop\n        /* \"#utility.yul\":7703:7704   */\n      dup3\n        /* \"#utility.yul\":7693:7728   */\n      tag_205\n      jumpi\n        /* \"#utility.yul\":7708:7726   */\n      tag_206\n      tag_139\n      jump\t// in\n    tag_206:\n        /* \"#utility.yul\":7693:7728   */\n    tag_205:\n        /* \"#utility.yul\":7750:7751   */\n      dup3\n        /* \"#utility.yul\":7747:7748   */\n      dup3\n        /* \"#utility.yul\":7743:7752   */\n      div\n        /* \"#utility.yul\":7738:7752   */\n      swap1\n      pop\n        /* \"#utility.yul\":7573:7758   */\n      swap3\n      swap2\n      pop\n      pop\n      jump\t// out\n        /* \"#utility.yul\":7764:7940   */\n    tag_44:\n        /* \"#utility.yul\":7796:7797   */\n      0x00\n        /* \"#utility.yul\":7813:7833   */\n      tag_208\n        /* \"#utility.yul\":7831:7832   */\n      dup3\n        /* \"#utility.yul\":7813:7833   */\n      tag_135\n      jump\t// in\n    tag_208:\n        /* \"#utility.yul\":7808:7833   */\n      swap2\n      pop\n        /* \"#utility.yul\":7847:7867   */\n      tag_209\n        /* \"#utility.yul\":7865:7866   */\n      dup4\n        /* \"#utility.yul\":7847:7867   */\n      tag_135\n      jump\t// in\n    tag_209:\n        /* \"#utility.yul\":7842:7867   */\n      swap3\n      pop\n        /* \"#utility.yul\":7886:7887   */\n      dup3\n        /* \"#utility.yul\":7876:7911   */\n      tag_210\n      jumpi\n        /* \"#utility.yul\":7891:7909   */\n      tag_211\n      tag_139\n      jump\t// in\n    tag_211:\n        /* \"#utility.yul\":7876:7911   */\n    tag_210:\n        /* \"#utility.yul\":7932:7933   */\n      dup3\n        /* \"#utility.yul\":7929:7930   */\n      dup3\n        /* \"#utility.yul\":7925:7934   */\n      mod\n        /* \"#utility.yul\":7920:7934   */\n      swap1\n      pop\n        /* \"#utility.yul\":7764:7940   */\n      swap3\n      swap2\n      pop\n      pop\n      jump\t// out\n        /* \"#utility.yul\":7946:8124   */\n    tag_140:\n        /* \"#utility.yul\":8114:8117   */\n      0x3a00000000000000000000000000000000000000000000000000000000000000\n        /* \"#utility.yul\":8109:8112   */\n      dup2\n        /* \"#utility.yul\":8102:8118   */\n      mstore\n        /* \"#utility.yul\":7946:8124   */\n      pop\n      jump\t// out\n        /* \"#utility.yul\":8130:9253   */\n    tag_52:\n        /* \"#utility.yul\":8538:8541   */\n      0x00\n        /* \"#utility.yul\":8560:8655   */\n      tag_214\n        /* \"#utility.yul\":8651:8654   */\n      dup3\n        /* \"#utility.yul\":8642:8648   */\n      dup7\n        /* \"#utility.yul\":8560:8655   */\n      tag_133\n      jump\t// in\n    tag_214:\n        /* \"#utility.yul\":8553:8655   */\n      swap2\n      pop\n        /* \"#utility.yul\":8665:8802   */\n      tag_215\n        /* \"#utility.yul\":8798:8801   */\n      dup3\n        /* \"#utility.yul\":8665:8802   */\n      tag_140\n      jump\t// in\n    tag_215:\n        /* \"#utility.yul\":8827:8828   */\n      0x01\n        /* \"#utility.yul\":8822:8825   */\n      dup3\n        /* \"#utility.yul\":8818:8829   */\n      add\n        /* \"#utility.yul\":8811:8829   */\n      swap2\n      pop\n        /* \"#utility.yul\":8846:8941   */\n      tag_216\n        /* \"#utility.yul\":8937:8940   */\n      dup3\n        /* \"#utility.yul\":8928:8934   */\n      dup6\n        /* \"#utility.yul\":8846:8941   */\n      tag_133\n      jump\t// in\n    tag_216:\n        /* \"#utility.yul\":8839:8941   */\n      swap2\n      pop\n        /* \"#utility.yul\":8951:9088   */\n      tag_217\n        /* \"#utility.yul\":9084:9087   */\n      dup3\n        /* \"#utility.yul\":8951:9088   */\n      tag_140\n      jump\t// in\n    tag_217:\n        /* \"#utility.yul\":9113:9114   */\n      0x01\n        /* \"#utility.yul\":9108:9111   */\n      dup3\n        /* \"#utility.yul\":9104:9115   */\n      add\n        /* \"#utility.yul\":9097:9115   */\n      swap2\n      pop\n        /* \"#utility.yul\":9132:9227   */\n      tag_218\n        /* \"#utility.yul\":9223:9226   */\n      dup3\n        /* \"#utility.yul\":9214:9220   */\n      dup5\n        /* \"#utility.yul\":9132:9227   */\n      tag_133\n      jump\t// in\n    tag_218:\n        /* \"#utility.yul\":9125:9227   */\n      swap2\n      pop\n        /* \"#utility.yul\":9244:9247   */\n      dup2\n        /* \"#utility.yul\":9237:9247   */\n      swap1\n      pop\n        /* \"#utility.yul\":8130:9253   */\n      swap5\n      swap4\n      pop\n      pop\n      pop\n      pop\n      jump\t// out\n        /* \"#utility.yul\":9259:9669   */\n    tag_56:\n        /* \"#utility.yul\":9299:9306   */\n      0x00\n        /* \"#utility.yul\":9322:9342   */\n      tag_220\n        /* \"#utility.yul\":9340:9341   */\n      dup3\n        /* \"#utility.yul\":9322:9342   */\n      tag_135\n      jump\t// in\n    tag_220:\n        /* \"#utility.yul\":9317:9342   */\n      swap2\n      pop\n        /* \"#utility.yul\":9356:9376   */\n      tag_221\n        /* \"#utility.yul\":9374:9375   */\n      dup4\n        /* \"#utility.yul\":9356:9376   */\n      tag_135\n      jump\t// in\n    tag_221:\n        /* \"#utility.yul\":9351:9376   */\n      swap3\n      pop\n        /* \"#utility.yul\":9411:9412   */\n      dup3\n        /* \"#utility.yul\":9408:9409   */\n      dup3\n        /* \"#utility.yul\":9404:9413   */\n      mul\n        /* \"#utility.yul\":9433:9463   */\n      tag_222\n        /* \"#utility.yul\":9451:9462   */\n      dup2\n        /* \"#utility.yul\":9433:9463   */\n      tag_135\n      jump\t// in\n    tag_222:\n        /* \"#utility.yul\":9422:9463   */\n      swap2\n      pop\n        /* \"#utility.yul\":9612:9613   */\n      dup3\n        /* \"#utility.yul\":9603:9610   */\n      dup3\n        /* \"#utility.yul\":9599:9614   */\n      div\n        /* \"#utility.yul\":9596:9597   */\n      dup5\n        /* \"#utility.yul\":9593:9615   */\n      eq\n        /* \"#utility.yul\":9573:9574   */\n      dup4\n        /* \"#utility.yul\":9566:9575   */\n      iszero\n        /* \"#utility.yul\":9546:9629   */\n      or\n        /* \"#utility.yul\":9523:9662   */\n      tag_223\n      jumpi\n        /* \"#utility.yul\":9642:9660   */\n      tag_224\n      tag_136\n      jump\t// in\n    tag_224:\n        /* \"#utility.yul\":9523:9662   */\n    tag_223:\n        /* \"#utility.yul\":9307:9669   */\n      pop\n        /* \"#utility.yul\":9259:9669   */\n      swap3\n      swap2\n      pop\n      pop\n      jump\t// out\n        /* \"#utility.yul\":9675:9908   */\n    tag_67:\n        /* \"#utility.yul\":9714:9717   */\n      0x00\n        /* \"#utility.yul\":9737:9761   */\n      tag_226\n        /* \"#utility.yul\":9755:9760   */\n      dup3\n        /* \"#utility.yul\":9737:9761   */\n      tag_135\n      jump\t// in\n    tag_226:\n        /* \"#utility.yul\":9728:9761   */\n      swap2\n      pop\n        /* \"#utility.yul\":9783:9849   */\n      0xffffffffffffffffffffffffffffffffffffffffffffffffffffffffffffffff\n        /* \"#utility.yul\":9776:9781   */\n      dup3\n        /* \"#utility.yul\":9773:9850   */\n      sub\n        /* \"#utility.yul\":9770:9873   */\n      tag_227\n      jumpi\n        /* \"#utility.yul\":9853:9871   */\n      tag_228\n      tag_136\n      jump\t// in\n    tag_228:\n        /* \"#utility.yul\":9770:9873   */\n    tag_227:\n        /* \"#utility.yul\":9900:9901   */\n      0x01\n        /* \"#utility.yul\":9893:9898   */\n      dup3\n        /* \"#utility.yul\":9889:9902   */\n      add\n        /* \"#utility.yul\":9882:9902   */\n      swap1\n      pop\n        /* \"#utility.yul\":9675:9908   */\n      swap2\n      swap1\n      pop\n      jump\t// out\n        /* \"#utility.yul\":9914:10108   */\n    tag_69:\n        /* \"#utility.yul\":9954:9958   */\n      0x00\n        /* \"#utility.yul\":9974:9994   */\n      tag_230\n        /* \"#utility.yul\":9992:9993   */\n      dup3\n        /* \"#utility.yul\":9974:9994   */\n      tag_135\n      jump\t// in\n    tag_230:\n        /* \"#utility.yul\":9969:9994   */\n      swap2\n      pop\n        /* \"#utility.yul\":10008:10028   */\n      tag_231\n        /* \"#utility.yul\":10026:10027   */\n      dup4\n        /* \"#utility.yul\":10008:10028   */\n      tag_135\n      jump\t// in\n    tag_231:\n        /* \"#utility.yul\":10003:10028   */\n      swap3\n      pop\n        /* \"#utility.yul\":10052:10053   */\n      dup3\n        /* \"#utility.yul\":10049:10050   */\n      dup3\n        /* \"#utility.yul\":10045:10054   */\n      sub\n        /* \"#utility.yul\":10037:10054   */\n      swap1\n      pop\n        /* \"#utility.yul\":10076:10077   */\n      dup2\n        /* \"#utility.yul\":10070:10074   */\n      dup2\n        /* \"#utility.yul\":10067:10078   */\n      gt\n        /* \"#utility.yul\":10064:10101   */\n      iszero\n      tag_232\n      jumpi\n        /* \"#utility.yul\":10081:10099   */\n      tag_233\n      tag_136\n      jump\t// in\n    tag_233:\n        /* \"#utility.yul\":10064:10101   */\n    tag_232:\n        /* \"#utility.yul\":9914:10108   */\n      swap3\n      swap2\n      pop\n      pop\n      jump\t// out\n        /* \"#utility.yul\":10114:10285   */\n    tag_73:\n        /* \"#utility.yul\":10153:10156   */\n      0x00\n        /* \"#utility.yul\":10176:10200   */\n      tag_235\n        /* \"#utility.yul\":10194:10199   */\n      dup3\n        /* \"#utility.yul\":10176:10200   */\n      tag_135\n      jump\t// in\n    tag_235:\n        /* \"#utility.yul\":10167:10200   */\n      swap2\n      pop\n        /* \"#utility.yul\":10222:10226   */\n      0x00\n        /* \"#utility.yul\":10215:10220   */\n      dup3\n        /* \"#utility.yul\":10212:10227   */\n      sub\n        /* \"#utility.yul\":10209:10250   */\n      tag_236\n      jumpi\n        /* \"#utility.yul\":10230:10248   */\n      tag_237\n      tag_136\n      jump\t// in\n    tag_237:\n        /* \"#utility.yul\":10209:10250   */\n    tag_236:\n        /* \"#utility.yul\":10277:10278   */\n      0x01\n        /* \"#utility.yul\":10270:10275   */\n      dup3\n        /* \"#utility.yul\":10266:10279   */\n      sub\n        /* \"#utility.yul\":10259:10279   */\n      swap1\n      pop\n        /* \"#utility.yul\":10114:10285   */\n      swap2\n      swap1\n      pop\n      jump\t// out\n        /* \"#utility.yul\":10291:10471   */\n    tag_86:\n        /* \"#utility.yul\":10339:10416   */\n      0x4e487b7100000000000000000000000000000000000000000000000000000000\n        /* \"#utility.yul\":10336:10337   */\n      0x00\n        /* \"#utility.yul\":10329:10417   */\n      mstore\n        /* \"#utility.yul\":10436:10440   */\n      0x32\n        /* \"#utility.yul\":10433:10434   */\n      0x04\n        /* \"#utility.yul\":10426:10441   */\n      mstore\n        /* \"#utility.yul\":10460:10464   */\n      0x24\n        /* \"#utility.yul\":10457:10458   */\n      0x00\n        /* \"#utility.yul\":10450:10465   */\n      revert\n        /* \"#utility.yul\":10477:10657   */\n    tag_101:\n        /* \"#utility.yul\":10525:10602   */\n      0x4e487b7100000000000000000000000000000000000000000000000000000000\n        /* \"#utility.yul\":10522:10523   */\n      0x00\n        /* \"#utility.yul\":10515:10603   */\n      mstore\n        /* \"#utility.yul\":10622:10626   */\n      0x41\n        /* \"#utility.yul\":10619:10620   */\n      0x04\n        /* \"#utility.yul\":10612:10627   */\n      mstore\n        /* \"#utility.yul\":10646:10650   */\n      0x24\n        /* \"#utility.yul\":10643:10644   */\n      0x00\n        /* \"#utility.yul\":10636:10651   */\n      revert\n        /* \"#utility.yul\":10663:10841   */\n    tag_141:\n        /* \"#utility.yul\":10831:10834   */\n      0x3000000000000000000000000000000000000000000000000000000000000000\n        /* \"#utility.yul\":10826:10829   */\n      dup2\n        /* \"#utility.yul\":10819:10835   */\n      mstore\n        /* \"#utility.yul\":10663:10841   */\n      pop\n      jump\t// out\n        /* \"#utility.yul\":10847:11386   */\n    tag_115:\n        /* \"#utility.yul\":11069:11072   */\n      0x00\n        /* \"#utility.yul\":11084:11221   */\n      tag_242\n        /* \"#utility.yul\":11217:11220   */\n      dup3\n        /* \"#utility.yul\":11084:11221   */\n      tag_141\n      jump\t// in\n    tag_242:\n        /* \"#utility.yul\":11246:11247   */\n      0x01\n        /* \"#utility.yul\":11241:11244   */\n      dup3\n        /* \"#utility.yul\":11237:11248   */\n      add\n        /* \"#utility.yul\":11230:11248   */\n      swap2\n      pop\n        /* \"#utility.yul\":11265:11360   */\n      tag_243\n        /* \"#utility.yul\":11356:11359   */\n      dup3\n        /* \"#utility.yul\":11347:11353   */\n      dup5\n        /* \"#utility.yul\":11265:11360   */\n      tag_133\n      jump\t// in\n    tag_243:\n        /* \"#utility.yul\":11258:11360   */\n      swap2\n      pop\n        /* \"#utility.yul\":11377:11380   */\n      dup2\n        /* \"#utility.yul\":11370:11380   */\n      swap1\n      pop\n        /* \"#utility.yul\":10847:11386   */\n      swap3\n      swap2\n      pop\n      pop\n      jump\t// out\n\n    auxdata: 0xa264697066735822122003f34cc30fb5079ae69ce1197f8975469791680b0807f2c495447f6c8fcf3a5c64736f6c634300081e0033\n}\n",
				"bytecode": {
					"linkReferences": {},
					"object": "608060405234801561000f575f5ffd5b506040518060400160405280600d81526020017f48656c6c6f2c20576f726c6421000000000000000000000000000000000000008152505f90816100539190610296565b50610365565b5f81519050919050565b7f4e487b71000000000000000000000000000000000000000000000000000000005f52604160045260245ffd5b7f4e487b71000000000000000000000000000000000000000000000000000000005f52602260045260245ffd5b5f60028204905060018216806100d457607f821691505b6020821081036100e7576100e6610090565b5b50919050565b5f819050815f5260205f209050919050565b5f6020601f8301049050919050565b5f82821b905092915050565b5f600883026101497fffffffffffffffffffffffffffffffffffffffffffffffffffffffffffffffff8261010e565b610153868361010e565b95508019841693508086168417925050509392505050565b5f819050919050565b5f819050919050565b5f61019761019261018d8461016b565b610174565b61016b565b9050919050565b5f819050919050565b6101b08361017d565b6101c46101bc8261019e565b84845461011a565b825550505050565b5f5f905090565b6101db6101cc565b6101e68184846101a7565b505050565b5b81811015610209576101fe5f826101d3565b6001810190506101ec565b5050565b601f82111561024e5761021f816100ed565b610228846100ff565b81016020851015610237578190505b61024b610243856100ff565b8301826101eb565b50505b505050565b5f82821c905092915050565b5f61026e5f1984600802610253565b1980831691505092915050565b5f610286838361025f565b9150826002028217905092915050565b61029f82610059565b67ffffffffffffffff8111156102b8576102b7610063565b5b6102c282546100bd565b6102cd82828561020d565b5f60209050601f8311600181146102fe575f84156102ec578287015190505b6102f6858261027b565b86555061035d565b601f19841661030c866100ed565b5f5b828110156103335784890151825560018201915060208501945060208101905061030e565b86831015610350578489015161034c601f89168261025f565b8355505b6001600288020188555050505b505050505050565b610c30806103725f395ff3fe608060405234801561000f575f5ffd5b5060043610610029575f3560e01c8063ce6d41de1461002d575b5f5ffd5b61003561004b565b6040516100429190610667565b60405180910390f35b606061005561005a565b905090565b60605f6100664261008b565b6040516020016100779291906107fc565b604051602081830303815290604052905090565b60605f6170808361009c9190610873565b90505f6100a8826100e2565b90505f6100b48361014c565b905081816040516020016100c99291906108cc565b6040516020818303038152906040529350505050919050565b60605f5f5f6100f0856101f9565b9250925092506100ff8361041f565b61011061010b8461041f565b610578565b61012161011c8461041f565b610578565b60405160200161013393929190610924565b6040516020818303038152906040529350505050919050565b60605f8290505f8190505f603c82610164919061099f565b90505f603c82610174919061099f565b905061019361018e60188361018991906109cf565b61041f565b610578565b6101b06101ab603c856101a691906109cf565b61041f565b610578565b6101cd6101c8603c876101c391906109cf565b61041f565b610578565b6040516020016101df93929190610a25565b604051602081830303815290604052945050505050919050565b5f5f5f5f6201518090505f6107b290505f8287610216919061099f565b90505f618ead90505f8160648461022d9190610a73565b610237919061099f565b905080846102459190610873565b97505f5f90505f8590505b8981101561029557610261816105b1565b61026d5761016d610271565b61016e5b61ffff16826102809190610873565b9150808061028d90610ab4565b915050610250565b5f82866102a29190610afb565b90505b5f8112156102ea578a806102b890610b2e565b9b50506102c48b6105b1565b6102d05761016d6102d4565b61016e5b61ffff16816102e39190610873565b90506102a5565b5f604051806101800160405280601f60ff16815260200161030a8e6105b1565b61031557601c610318565b601d5b60ff1660ff168152602001601f60ff168152602001601e60ff168152602001601f60ff168152602001601e60ff168152602001601f60ff168152602001601f60ff168152602001601e60ff168152602001601f60ff168152602001601e60ff168152602001601f60ff16815250905060019a505b8060018c61039a9190610afb565b600c81106103ab576103aa610b55565b5b602002015160ff168210610400578060018c6103c79190610afb565b600c81106103d8576103d7610b55565b5b602002015160ff16826103eb9190610afb565b91508a806103f890610ab4565b9b505061038c565b60018261040d9190610873565b99505050505050505050509193909250565b60605f8203610465576040518060400160405280600181526020017f30000000000000000000000000000000000000000000000000000000000000008152509050610573565b5f8290505f5b5f821461049457808061047d90610ab4565b915050600a8261048d919061099f565b915061046b565b5f8167ffffffffffffffff8111156104af576104ae610b82565b5b6040519080825280601f01601f1916602001820160405280156104e15781602001600182028036833780820191505090505b5090505b5f851461056c576001826104f99190610afb565b9150600a8561050891906109cf565b60306105149190610873565b60f81b81838151811061052a57610529610b55565b5b60200101907effffffffffffffffffffffffffffffffffffffffffffffffffffffffffffff191690815f1a905350600a85610565919061099f565b94506104e5565b8093505050505b919050565b6060600182511461058957816105aa565b8160405160200161059a9190610bd5565b6040516020818303038152906040525b9050919050565b5f5f6004836105c091906109cf565b1480156105d957505f6064836105d691906109cf565b14155b806105f057505f610190836105ee91906109cf565b145b9050919050565b5f81519050919050565b5f82825260208201905092915050565b8281835e5f83830152505050565b5f601f19601f8301169050919050565b5f610639826105f7565b6106438185610601565b9350610653818560208601610611565b61065c8161061f565b840191505092915050565b5f6020820190508181035f83015261067f818461062f565b905092915050565b7f4e487b71000000000000000000000000000000000000000000000000000000005f52602260045260245ffd5b5f60028204905060018216806106cb57607f821691505b6020821081036106de576106dd610687565b5b50919050565b5f81905092915050565b5f819050815f5260205f209050919050565b5f815461070c816106b4565b61071681866106e4565b9450600182165f8114610730576001811461074557610777565b60ff1983168652811515820286019350610777565b61074e856106ee565b5f5b8381101561076f57815481890152600182019150602081019050610750565b838801955050505b50505092915050565b7f2028000000000000000000000000000000000000000000000000000000000000815250565b5f6107b0826105f7565b6107ba81856106e4565b93506107ca818560208601610611565b80840191505092915050565b7f2900000000000000000000000000000000000000000000000000000000000000815250565b5f6108078285610700565b915061081282610780565b60028201915061082282846107a6565b915061082d826107d6565b6001820191508190509392505050565b5f819050919050565b7f4e487b71000000000000000000000000000000000000000000000000000000005f52601160045260245ffd5b5f61087d8261083d565b91506108888361083d565b92508282019050808211156108a05761089f610846565b5b92915050565b7f2000000000000000000000000000000000000000000000000000000000000000815250565b5f6108d782856107a6565b91506108e2826108a6565b6001820191506108f282846107a6565b91508190509392505050565b7f2d00000000000000000000000000000000000000000000000000000000000000815250565b5f61092f82866107a6565b915061093a826108fe565b60018201915061094a82856107a6565b9150610955826108fe565b60018201915061096582846107a6565b9150819050949350505050565b7f4e487b71000000000000000000000000000000000000000000000000000000005f52601260045260245ffd5b5f6109a98261083d565b91506109b48361083d565b9250826109c4576109c3610972565b5b828204905092915050565b5f6109d98261083d565b91506109e48361083d565b9250826109f4576109f3610972565b5b828206905092915050565b7f3a00000000000000000000000000000000000000000000000000000000000000815250565b5f610a3082866107a6565b9150610a3b826109ff565b600182019150610a4b82856107a6565b9150610a56826109ff565b600182019150610a6682846107a6565b9150819050949350505050565b5f610a7d8261083d565b9150610a888361083d565b9250828202610a968161083d565b91508282048414831517610aad57610aac610846565b5b5092915050565b5f610abe8261083d565b91507fffffffffffffffffffffffffffffffffffffffffffffffffffffffffffffffff8203610af057610aef610846565b5b600182019050919050565b5f610b058261083d565b9150610b108361083d565b9250828203905081811115610b2857610b27610846565b5b92915050565b5f610b388261083d565b91505f8203610b4a57610b49610846565b5b600182039050919050565b7f4e487b71000000000000000000000000000000000000000000000000000000005f52603260045260245ffd5b7f4e487b71000000000000000000000000000000000000000000000000000000005f52604160045260245ffd5b7f3000000000000000000000000000000000000000000000000000000000000000815250565b5f610bdf82610baf565b600182019150610bef82846107a6565b91508190509291505056fea264697066735822122003f34cc30fb5079ae69ce1197f8975469791680b0807f2c495447f6c8fcf3a5c64736f6c634300081e0033",
					"opcodes": "PUSH1 0x80 PUSH1 0x40 MSTORE CALLVALUE DUP1 ISZERO PUSH2 0xF JUMPI PUSH0 PUSH0 REVERT JUMPDEST POP PUSH1 0x40 MLOAD DUP1 PUSH1 0x40 ADD PUSH1 0x40 MSTORE DUP1 PUSH1 0xD DUP2 MSTORE PUSH1 0x20 ADD PUSH32 0x48656C6C6F2C20576F726C642100000000000000000000000000000000000000 DUP2 MSTORE POP PUSH0 SWAP1 DUP2 PUSH2 0x53 SWAP2 SWAP1 PUSH2 0x296 JUMP JUMPDEST POP PUSH2 0x365 JUMP JUMPDEST PUSH0 DUP2 MLOAD SWAP1 POP SWAP2 SWAP1 POP JUMP JUMPDEST PUSH32 0x4E487B7100000000000000000000000000000000000000000000000000000000 PUSH0 MSTORE PUSH1 0x41 PUSH1 0x4 MSTORE PUSH1 0x24 PUSH0 REVERT JUMPDEST PUSH32 0x4E487B7100000000000000000000000000000000000000000000000000000000 PUSH0 MSTORE PUSH1 0x22 PUSH1 0x4 MSTORE PUSH1 0x24 PUSH0 REVERT JUMPDEST PUSH0 PUSH1 0x2 DUP3 DIV SWAP1 POP PUSH1 0x1 DUP3 AND DUP1 PUSH2 0xD4 JUMPI PUSH1 0x7F DUP3 AND SWAP2 POP JUMPDEST PUSH1 0x20 DUP3 LT DUP2 SUB PUSH2 0xE7 JUMPI PUSH2 0xE6 PUSH2 0x90 JUMP JUMPDEST JUMPDEST POP SWAP2 SWAP1 POP JUMP JUMPDEST PUSH0 DUP2 SWAP1 POP DUP2 PUSH0 MSTORE PUSH1 0x20 PUSH0 KECCAK256 SWAP1 POP SWAP2 SWAP1 POP JUMP JUMPDEST PUSH0 PUSH1 0x20 PUSH1 0x1F DUP4 ADD DIV SWAP1 POP SWAP2 SWAP1 POP JUMP JUMPDEST PUSH0 DUP3 DUP3 SHL SWAP1 POP SWAP3 SWAP2 POP POP JUMP JUMPDEST PUSH0 PUSH1 0x8 DUP4 MUL PUSH2 0x149 PUSH32 0xFFFFFFFFFFFFFFFFFFFFFFFFFFFFFFFFFFFFFFFFFFFFFFFFFFFFFFFFFFFFFFFF DUP3 PUSH2 0x10E JUMP JUMPDEST PUSH2 0x153 DUP7 DUP4 PUSH2 0x10E JUMP JUMPDEST SWAP6 POP DUP1 NOT DUP5 AND SWAP4 POP DUP1 DUP7 AND DUP5 OR SWAP3 POP POP POP SWAP4 SWAP3 POP POP POP JUMP JUMPDEST PUSH0 DUP2 SWAP1 POP SWAP2 SWAP1 POP JUMP JUMPDEST PUSH0 DUP2 SWAP1 POP SWAP2 SWAP1 POP JUMP JUMPDEST PUSH0 PUSH2 0x197 PUSH2 0x192 PUSH2 0x18D DUP5 PUSH2 0x16B JUMP JUMPDEST PUSH2 0x174 JUMP JUMPDEST PUSH2 0x16B JUMP JUMPDEST SWAP1 POP SWAP2 SWAP1 POP JUMP JUMPDEST PUSH0 DUP2 SWAP1 POP SWAP2 SWAP1 POP JUMP JUMPDEST PUSH2 0x1B0 DUP4 PUSH2 0x17D JUMP JUMPDEST PUSH2 0x1C4 PUSH2 0x1BC DUP3 PUSH2 0x19E JUMP JUMPDEST DUP5 DUP5 SLOAD PUSH2 0x11A JUMP JUMPDEST DUP3 SSTORE POP POP POP POP JUMP JUMPDEST PUSH0 PUSH0 SWAP1 POP SWAP1 JUMP JUMPDEST PUSH2 0x1DB PUSH2 0x1CC JUMP JUMPDEST PUSH2 0x1E6 DUP2 DUP5 DUP5 PUSH2 0x1A7 JUMP JUMPDEST POP POP POP JUMP JUMPDEST JUMPDEST DUP2 DUP2 LT ISZERO PUSH2 0x209 JUMPI PUSH2 0x1FE PUSH0 DUP3 PUSH2 0x1D3 JUMP JUMPDEST PUSH1 0x1 DUP2 ADD SWAP1 POP PUSH2 0x1EC JUMP JUMPDEST POP POP JUMP JUMPDEST PUSH1 0x1F DUP3 GT ISZERO PUSH2 0x24E JUMPI PUSH2 0x21F DUP2 PUSH2 0xED JUMP JUMPDEST PUSH2 0x228 DUP5 PUSH2 0xFF JUMP JUMPDEST DUP2 ADD PUSH1 0x20 DUP6 LT ISZERO PUSH2 0x237 JUMPI DUP2 SWAP1 POP JUMPDEST PUSH2 0x24B PUSH2 0x243 DUP6 PUSH2 0xFF JUMP JUMPDEST DUP4 ADD DUP3 PUSH2 0x1EB JUMP JUMPDEST POP POP JUMPDEST POP POP POP JUMP JUMPDEST PUSH0 DUP3 DUP3 SHR SWAP1 POP SWAP3 SWAP2 POP POP JUMP JUMPDEST PUSH0 PUSH2 0x26E PUSH0 NOT DUP5 PUSH1 0x8 MUL PUSH2 0x253 JUMP JUMPDEST NOT DUP1 DUP4 AND SWAP2 POP POP SWAP3 SWAP2 POP POP JUMP JUMPDEST PUSH0 PUSH2 0x286 DUP4 DUP4 PUSH2 0x25F JUMP JUMPDEST SWAP2 POP DUP3 PUSH1 0x2 MUL DUP3 OR SWAP1 POP SWAP3 SWAP2 POP POP JUMP JUMPDEST PUSH2 0x29F DUP3 PUSH2 0x59 JUMP JUMPDEST PUSH8 0xFFFFFFFFFFFFFFFF DUP2 GT ISZERO PUSH2 0x2B8 JUMPI PUSH2 0x2B7 PUSH2 0x63 JUMP JUMPDEST JUMPDEST PUSH2 0x2C2 DUP3 SLOAD PUSH2 0xBD JUMP JUMPDEST PUSH2 0x2CD DUP3 DUP3 DUP6 PUSH2 0x20D JUMP JUMPDEST PUSH0 PUSH1 0x20 SWAP1 POP PUSH1 0x1F DUP4 GT PUSH1 0x1 DUP2 EQ PUSH2 0x2FE JUMPI PUSH0 DUP5 ISZERO PUSH2 0x2EC JUMPI DUP3 DUP8 ADD MLOAD SWAP1 POP JUMPDEST PUSH2 0x2F6 DUP6 DUP3 PUSH2 0x27B JUMP JUMPDEST DUP7 SSTORE POP PUSH2 0x35D JUMP JUMPDEST PUSH1 0x1F NOT DUP5 AND PUSH2 0x30C DUP7 PUSH2 0xED JUMP JUMPDEST PUSH0 JUMPDEST DUP3 DUP2 LT ISZERO PUSH2 0x333 JUMPI DUP5 DUP10 ADD MLOAD DUP3 SSTORE PUSH1 0x1 DUP3 ADD SWAP2 POP PUSH1 0x20 DUP6 ADD SWAP5 POP PUSH1 0x20 DUP2 ADD SWAP1 POP PUSH2 0x30E JUMP JUMPDEST DUP7 DUP4 LT ISZERO PUSH2 0x350 JUMPI DUP5 DUP10 ADD MLOAD PUSH2 0x34C PUSH1 0x1F DUP10 AND DUP3 PUSH2 0x25F JUMP JUMPDEST DUP4 SSTORE POP JUMPDEST PUSH1 0x1 PUSH1 0x2 DUP9 MUL ADD DUP9 SSTORE POP POP POP JUMPDEST POP POP POP POP POP POP JUMP JUMPDEST PUSH2 0xC30 DUP1 PUSH2 0x372 PUSH0 CODECOPY PUSH0 RETURN INVALID PUSH1 0x80 PUSH1 0x40 MSTORE CALLVALUE DUP1 ISZERO PUSH2 0xF JUMPI PUSH0 PUSH0 REVERT JUMPDEST POP PUSH1 0x4 CALLDATASIZE LT PUSH2 0x29 JUMPI PUSH0 CALLDATALOAD PUSH1 0xE0 SHR DUP1 PUSH4 0xCE6D41DE EQ PUSH2 0x2D JUMPI JUMPDEST PUSH0 PUSH0 REVERT JUMPDEST PUSH2 0x35 PUSH2 0x4B JUMP JUMPDEST PUSH1 0x40 MLOAD PUSH2 0x42 SWAP2 SWAP1 PUSH2 0x667 JUMP JUMPDEST PUSH1 0x40 MLOAD DUP1 SWAP2 SUB SWAP1 RETURN JUMPDEST PUSH1 0x60 PUSH2 0x55 PUSH2 0x5A JUMP JUMPDEST SWAP1 POP SWAP1 JUMP JUMPDEST PUSH1 0x60 PUSH0 PUSH2 0x66 TIMESTAMP PUSH2 0x8B JUMP JUMPDEST PUSH1 0x40 MLOAD PUSH1 0x20 ADD PUSH2 0x77 SWAP3 SWAP2 SWAP1 PUSH2 0x7FC JUMP JUMPDEST PUSH1 0x40 MLOAD PUSH1 0x20 DUP2 DUP4 SUB SUB DUP2 MSTORE SWAP1 PUSH1 0x40 MSTORE SWAP1 POP SWAP1 JUMP JUMPDEST PUSH1 0x60 PUSH0 PUSH2 0x7080 DUP4 PUSH2 0x9C SWAP2 SWAP1 PUSH2 0x873 JUMP JUMPDEST SWAP1 POP PUSH0 PUSH2 0xA8 DUP3 PUSH2 0xE2 JUMP JUMPDEST SWAP1 POP PUSH0 PUSH2 0xB4 DUP4 PUSH2 0x14C JUMP JUMPDEST SWAP1 POP DUP2 DUP2 PUSH1 0x40 MLOAD PUSH1 0x20 ADD PUSH2 0xC9 SWAP3 SWAP2 SWAP1 PUSH2 0x8CC JUMP JUMPDEST PUSH1 0x40 MLOAD PUSH1 0x20 DUP2 DUP4 SUB SUB DUP2 MSTORE SWAP1 PUSH1 0x40 MSTORE SWAP4 POP POP POP POP SWAP2 SWAP1 POP JUMP JUMPDEST PUSH1 0x60 PUSH0 PUSH0 PUSH0 PUSH2 0xF0 DUP6 PUSH2 0x1F9 JUMP JUMPDEST SWAP3 POP SWAP3 POP SWAP3 POP PUSH2 0xFF DUP4 PUSH2 0x41F JUMP JUMPDEST PUSH2 0x110 PUSH2 0x10B DUP5 PUSH2 0x41F JUMP JUMPDEST PUSH2 0x578 JUMP JUMPDEST PUSH2 0x121 PUSH2 0x11C DUP5 PUSH2 0x41F JUMP JUMPDEST PUSH2 0x578 JUMP JUMPDEST PUSH1 0x40 MLOAD PUSH1 0x20 ADD PUSH2 0x133 SWAP4 SWAP3 SWAP2 SWAP1 PUSH2 0x924 JUMP JUMPDEST PUSH1 0x40 MLOAD PUSH1 0x20 DUP2 DUP4 SUB SUB DUP2 MSTORE SWAP1 PUSH1 0x40 MSTORE SWAP4 POP POP POP POP SWAP2 SWAP1 POP JUMP JUMPDEST PUSH1 0x60 PUSH0 DUP3 SWAP1 POP PUSH0 DUP2 SWAP1 POP PUSH0 PUSH1 0x3C DUP3 PUSH2 0x164 SWAP2 SWAP1 PUSH2 0x99F JUMP JUMPDEST SWAP1 POP PUSH0 PUSH1 0x3C DUP3 PUSH2 0x174 SWAP2 SWAP1 PUSH2 0x99F JUMP JUMPDEST SWAP1 POP PUSH2 0x193 PUSH2 0x18E PUSH1 0x18 DUP4 PUSH2 0x189 SWAP2 SWAP1 PUSH2 0x9CF JUMP JUMPDEST PUSH2 0x41F JUMP JUMPDEST PUSH2 0x578 JUMP JUMPDEST PUSH2 0x1B0 PUSH2 0x1AB PUSH1 0x3C DUP6 PUSH2 0x1A6 SWAP2 SWAP1 PUSH2 0x9CF JUMP JUMPDEST PUSH2 0x41F JUMP JUMPDEST PUSH2 0x578 JUMP JUMPDEST PUSH2 0x1CD PUSH2 0x1C8 PUSH1 0x3C DUP8 PUSH2 0x1C3 SWAP2 SWAP1 PUSH2 0x9CF JUMP JUMPDEST PUSH2 0x41F JUMP JUMPDEST PUSH2 0x578 JUMP JUMPDEST PUSH1 0x40 MLOAD PUSH1 0x20 ADD PUSH2 0x1DF SWAP4 SWAP3 SWAP2 SWAP1 PUSH2 0xA25 JUMP JUMPDEST PUSH1 0x40 MLOAD PUSH1 0x20 DUP2 DUP4 SUB SUB DUP2 MSTORE SWAP1 PUSH1 0x40 MSTORE SWAP5 POP POP POP POP POP SWAP2 SWAP1 POP JUMP JUMPDEST PUSH0 PUSH0 PUSH0 PUSH0 PUSH3 0x15180 SWAP1 POP PUSH0 PUSH2 0x7B2 SWAP1 POP PUSH0 DUP3 DUP8 PUSH2 0x216 SWAP2 SWAP1 PUSH2 0x99F JUMP JUMPDEST SWAP1 POP PUSH0 PUSH2 0x8EAD SWAP1 POP PUSH0 DUP2 PUSH1 0x64 DUP5 PUSH2 0x22D SWAP2 SWAP1 PUSH2 0xA73 JUMP JUMPDEST PUSH2 0x237 SWAP2 SWAP1 PUSH2 0x99F JUMP JUMPDEST SWAP1 POP DUP1 DUP5 PUSH2 0x245 SWAP2 SWAP1 PUSH2 0x873 JUMP JUMPDEST SWAP8 POP PUSH0 PUSH0 SWAP1 POP PUSH0 DUP6 SWAP1 POP JUMPDEST DUP10 DUP2 LT ISZERO PUSH2 0x295 JUMPI PUSH2 0x261 DUP2 PUSH2 0x5B1 JUMP JUMPDEST PUSH2 0x26D JUMPI PUSH2 0x16D PUSH2 0x271 JUMP JUMPDEST PUSH2 0x16E JUMPDEST PUSH2 0xFFFF AND DUP3 PUSH2 0x280 SWAP2 SWAP1 PUSH2 0x873 JUMP JUMPDEST SWAP2 POP DUP1 DUP1 PUSH2 0x28D SWAP1 PUSH2 0xAB4 JUMP JUMPDEST SWAP2 POP POP PUSH2 0x250 JUMP JUMPDEST PUSH0 DUP3 DUP7 PUSH2 0x2A2 SWAP2 SWAP1 PUSH2 0xAFB JUMP JUMPDEST SWAP1 POP JUMPDEST PUSH0 DUP2 SLT ISZERO PUSH2 0x2EA JUMPI DUP11 DUP1 PUSH2 0x2B8 SWAP1 PUSH2 0xB2E JUMP JUMPDEST SWAP12 POP POP PUSH2 0x2C4 DUP12 PUSH2 0x5B1 JUMP JUMPDEST PUSH2 0x2D0 JUMPI PUSH2 0x16D PUSH2 0x2D4 JUMP JUMPDEST PUSH2 0x16E JUMPDEST PUSH2 0xFFFF AND DUP2 PUSH2 0x2E3 SWAP2 SWAP1 PUSH2 0x873 JUMP JUMPDEST SWAP1 POP PUSH2 0x2A5 JUMP JUMPDEST PUSH0 PUSH1 0x40 MLOAD DUP1 PUSH2 0x180 ADD PUSH1 0x40 MSTORE DUP1 PUSH1 0x1F PUSH1 0xFF AND DUP2 MSTORE PUSH1 0x20 ADD PUSH2 0x30A DUP15 PUSH2 0x5B1 JUMP JUMPDEST PUSH2 0x315 JUMPI PUSH1 0x1C PUSH2 0x318 JUMP JUMPDEST PUSH1 0x1D JUMPDEST PUSH1 0xFF AND PUSH1 0xFF AND DUP2 MSTORE PUSH1 0x20 ADD PUSH1 0x1F PUSH1 0xFF AND DUP2 MSTORE PUSH1 0x20 ADD PUSH1 0x1E PUSH1 0xFF AND DUP2 MSTORE PUSH1 0x20 ADD PUSH1 0x1F PUSH1 0xFF AND DUP2 MSTORE PUSH1 0x20 ADD PUSH1 0x1E PUSH1 0xFF AND DUP2 MSTORE PUSH1 0x20 ADD PUSH1 0x1F PUSH1 0xFF AND DUP2 MSTORE PUSH1 0x20 ADD PUSH1 0x1F PUSH1 0xFF AND DUP2 MSTORE PUSH1 0x20 ADD PUSH1 0x1E PUSH1 0xFF AND DUP2 MSTORE PUSH1 0x20 ADD PUSH1 0x1F PUSH1 0xFF AND DUP2 MSTORE PUSH1 0x20 ADD PUSH1 0x1E PUSH1 0xFF AND DUP2 MSTORE PUSH1 0x20 ADD PUSH1 0x1F PUSH1 0xFF AND DUP2 MSTORE POP SWAP1 POP PUSH1 0x1 SWAP11 POP JUMPDEST DUP1 PUSH1 0x1 DUP13 PUSH2 0x39A SWAP2 SWAP1 PUSH2 0xAFB JUMP JUMPDEST PUSH1 0xC DUP2 LT PUSH2 0x3AB JUMPI PUSH2 0x3AA PUSH2 0xB55 JUMP JUMPDEST JUMPDEST PUSH1 0x20 MUL ADD MLOAD PUSH1 0xFF AND DUP3 LT PUSH2 0x400 JUMPI DUP1 PUSH1 0x1 DUP13 PUSH2 0x3C7 SWAP2 SWAP1 PUSH2 0xAFB JUMP JUMPDEST PUSH1 0xC DUP2 LT PUSH2 0x3D8 JUMPI PUSH2 0x3D7 PUSH2 0xB55 JUMP JUMPDEST JUMPDEST PUSH1 0x20 MUL ADD MLOAD PUSH1 0xFF AND DUP3 PUSH2 0x3EB SWAP2 SWAP1 PUSH2 0xAFB JUMP JUMPDEST SWAP2 POP DUP11 DUP1 PUSH2 0x3F8 SWAP1 PUSH2 0xAB4 JUMP JUMPDEST SWAP12 POP POP PUSH2 0x38C JUMP JUMPDEST PUSH1 0x1 DUP3 PUSH2 0x40D SWAP2 SWAP1 PUSH2 0x873 JUMP JUMPDEST SWAP10 POP POP POP POP POP POP POP POP POP POP SWAP2 SWAP4 SWAP1 SWAP3 POP JUMP JUMPDEST PUSH1 0x60 PUSH0 DUP3 SUB PUSH2 0x465 JUMPI PUSH1 0x40 MLOAD DUP1 PUSH1 0x40 ADD PUSH1 0x40 MSTORE DUP1 PUSH1 0x1 DUP2 MSTORE PUSH1 0x20 ADD PUSH32 0x3000000000000000000000000000000000000000000000000000000000000000 DUP2 MSTORE POP SWAP1 POP PUSH2 0x573 JUMP JUMPDEST PUSH0 DUP3 SWAP1 POP PUSH0 JUMPDEST PUSH0 DUP3 EQ PUSH2 0x494 JUMPI DUP1 DUP1 PUSH2 0x47D SWAP1 PUSH2 0xAB4 JUMP JUMPDEST SWAP2 POP POP PUSH1 0xA DUP3 PUSH2 0x48D SWAP2 SWAP1 PUSH2 0x99F JUMP JUMPDEST SWAP2 POP PUSH2 0x46B JUMP JUMPDEST PUSH0 DUP2 PUSH8 0xFFFFFFFFFFFFFFFF DUP2 GT ISZERO PUSH2 0x4AF JUMPI PUSH2 0x4AE PUSH2 0xB82 JUMP JUMPDEST JUMPDEST PUSH1 0x40 MLOAD SWAP1 DUP1 DUP3 MSTORE DUP1 PUSH1 0x1F ADD PUSH1 0x1F NOT AND PUSH1 0x20 ADD DUP3 ADD PUSH1 0x40 MSTORE DUP1 ISZERO PUSH2 0x4E1 JUMPI DUP2 PUSH1 0x20 ADD PUSH1 0x1 DUP3 MUL DUP1 CALLDATASIZE DUP4 CALLDATACOPY DUP1 DUP3 ADD SWAP2 POP POP SWAP1 POP JUMPDEST POP SWAP1 POP JUMPDEST PUSH0 DUP6 EQ PUSH2 0x56C JUMPI PUSH1 0x1 DUP3 PUSH2 0x4F9 SWAP2 SWAP1 PUSH2 0xAFB JUMP JUMPDEST SWAP2 POP PUSH1 0xA DUP6 PUSH2 0x508 SWAP2 SWAP1 PUSH2 0x9CF JUMP JUMPDEST PUSH1 0x30 PUSH2 0x514 SWAP2 SWAP1 PUSH2 0x873 JUMP JUMPDEST PUSH1 0xF8 SHL DUP2 DUP4 DUP2 MLOAD DUP2 LT PUSH2 0x52A JUMPI PUSH2 0x529 PUSH2 0xB55 JUMP JUMPDEST JUMPDEST PUSH1 0x20 ADD ADD SWAP1 PUSH31 0xFFFFFFFFFFFFFFFFFFFFFFFFFFFFFFFFFFFFFFFFFFFFFFFFFFFFFFFFFFFFFF NOT AND SWAP1 DUP2 PUSH0 BYTE SWAP1 MSTORE8 POP PUSH1 0xA DUP6 PUSH2 0x565 SWAP2 SWAP1 PUSH2 0x99F JUMP JUMPDEST SWAP5 POP PUSH2 0x4E5 JUMP JUMPDEST DUP1 SWAP4 POP POP POP POP JUMPDEST SWAP2 SWAP1 POP JUMP JUMPDEST PUSH1 0x60 PUSH1 0x1 DUP3 MLOAD EQ PUSH2 0x589 JUMPI DUP2 PUSH2 0x5AA JUMP JUMPDEST DUP2 PUSH1 0x40 MLOAD PUSH1 0x20 ADD PUSH2 0x59A SWAP2 SWAP1 PUSH2 0xBD5 JUMP JUMPDEST PUSH1 0x40 MLOAD PUSH1 0x20 DUP2 DUP4 SUB SUB DUP2 MSTORE SWAP1 PUSH1 0x40 MSTORE JUMPDEST SWAP1 POP SWAP2 SWAP1 POP JUMP JUMPDEST PUSH0 PUSH0 PUSH1 0x4 DUP4 PUSH2 0x5C0 SWAP2 SWAP1 PUSH2 0x9CF JUMP JUMPDEST EQ DUP1 ISZERO PUSH2 0x5D9 JUMPI POP PUSH0 PUSH1 0x64 DUP4 PUSH2 0x5D6 SWAP2 SWAP1 PUSH2 0x9CF JUMP JUMPDEST EQ ISZERO JUMPDEST DUP1 PUSH2 0x5F0 JUMPI POP PUSH0 PUSH2 0x190 DUP4 PUSH2 0x5EE SWAP2 SWAP1 PUSH2 0x9CF JUMP JUMPDEST EQ JUMPDEST SWAP1 POP SWAP2 SWAP1 POP JUMP JUMPDEST PUSH0 DUP2 MLOAD SWAP1 POP SWAP2 SWAP1 POP JUMP JUMPDEST PUSH0 DUP3 DUP3 MSTORE PUSH1 0x20 DUP3 ADD SWAP1 POP SWAP3 SWAP2 POP POP JUMP JUMPDEST DUP3 DUP2 DUP4 MCOPY PUSH0 DUP4 DUP4 ADD MSTORE POP POP POP JUMP JUMPDEST PUSH0 PUSH1 0x1F NOT PUSH1 0x1F DUP4 ADD AND SWAP1 POP SWAP2 SWAP1 POP JUMP JUMPDEST PUSH0 PUSH2 0x639 DUP3 PUSH2 0x5F7 JUMP JUMPDEST PUSH2 0x643 DUP2 DUP6 PUSH2 0x601 JUMP JUMPDEST SWAP4 POP PUSH2 0x653 DUP2 DUP6 PUSH1 0x20 DUP7 ADD PUSH2 0x611 JUMP JUMPDEST PUSH2 0x65C DUP2 PUSH2 0x61F JUMP JUMPDEST DUP5 ADD SWAP2 POP POP SWAP3 SWAP2 POP POP JUMP JUMPDEST PUSH0 PUSH1 0x20 DUP3 ADD SWAP1 POP DUP2 DUP2 SUB PUSH0 DUP4 ADD MSTORE PUSH2 0x67F DUP2 DUP5 PUSH2 0x62F JUMP JUMPDEST SWAP1 POP SWAP3 SWAP2 POP POP JUMP JUMPDEST PUSH32 0x4E487B7100000000000000000000000000000000000000000000000000000000 PUSH0 MSTORE PUSH1 0x22 PUSH1 0x4 MSTORE PUSH1 0x24 PUSH0 REVERT JUMPDEST PUSH0 PUSH1 0x2 DUP3 DIV SWAP1 POP PUSH1 0x1 DUP3 AND DUP1 PUSH2 0x6CB JUMPI PUSH1 0x7F DUP3 AND SWAP2 POP JUMPDEST PUSH1 0x20 DUP3 LT DUP2 SUB PUSH2 0x6DE JUMPI PUSH2 0x6DD PUSH2 0x687 JUMP JUMPDEST JUMPDEST POP SWAP2 SWAP1 POP JUMP JUMPDEST PUSH0 DUP2 SWAP1 POP SWAP3 SWAP2 POP POP JUMP JUMPDEST PUSH0 DUP2 SWAP1 POP DUP2 PUSH0 MSTORE PUSH1 0x20 PUSH0 KECCAK256 SWAP1 POP SWAP2 SWAP1 POP JUMP JUMPDEST PUSH0 DUP2 SLOAD PUSH2 0x70C DUP2 PUSH2 0x6B4 JUMP JUMPDEST PUSH2 0x716 DUP2 DUP7 PUSH2 0x6E4 JUMP JUMPDEST SWAP5 POP PUSH1 0x1 DUP3 AND PUSH0 DUP2 EQ PUSH2 0x730 JUMPI PUSH1 0x1 DUP2 EQ PUSH2 0x745 JUMPI PUSH2 0x777 JUMP JUMPDEST PUSH1 0xFF NOT DUP4 AND DUP7 MSTORE DUP2 ISZERO ISZERO DUP3 MUL DUP7 ADD SWAP4 POP PUSH2 0x777 JUMP JUMPDEST PUSH2 0x74E DUP6 PUSH2 0x6EE JUMP JUMPDEST PUSH0 JUMPDEST DUP4 DUP2 LT ISZERO PUSH2 0x76F JUMPI DUP2 SLOAD DUP2 DUP10 ADD MSTORE PUSH1 0x1 DUP3 ADD SWAP2 POP PUSH1 0x20 DUP2 ADD SWAP1 POP PUSH2 0x750 JUMP JUMPDEST DUP4 DUP9 ADD SWAP6 POP POP POP JUMPDEST POP POP POP SWAP3 SWAP2 POP POP JUMP JUMPDEST PUSH32 0x2028000000000000000000000000000000000000000000000000000000000000 DUP2 MSTORE POP JUMP JUMPDEST PUSH0 PUSH2 0x7B0 DUP3 PUSH2 0x5F7 JUMP JUMPDEST PUSH2 0x7BA DUP2 DUP6 PUSH2 0x6E4 JUMP JUMPDEST SWAP4 POP PUSH2 0x7CA DUP2 DUP6 PUSH1 0x20 DUP7 ADD PUSH2 0x611 JUMP JUMPDEST DUP1 DUP5 ADD SWAP2 POP POP SWAP3 SWAP2 POP POP JUMP JUMPDEST PUSH32 0x2900000000000000000000000000000000000000000000000000000000000000 DUP2 MSTORE POP JUMP JUMPDEST PUSH0 PUSH2 0x807 DUP3 DUP6 PUSH2 0x700 JUMP JUMPDEST SWAP2 POP PUSH2 0x812 DUP3 PUSH2 0x780 JUMP JUMPDEST PUSH1 0x2 DUP3 ADD SWAP2 POP PUSH2 0x822 DUP3 DUP5 PUSH2 0x7A6 JUMP JUMPDEST SWAP2 POP PUSH2 0x82D DUP3 PUSH2 0x7D6 JUMP JUMPDEST PUSH1 0x1 DUP3 ADD SWAP2 POP DUP2 SWAP1 POP SWAP4 SWAP3 POP POP POP JUMP JUMPDEST PUSH0 DUP2 SWAP1 POP SWAP2 SWAP1 POP JUMP JUMPDEST PUSH32 0x4E487B7100000000000000000000000000000000000000000000000000000000 PUSH0 MSTORE PUSH1 0x11 PUSH1 0x4 MSTORE PUSH1 0x24 PUSH0 REVERT JUMPDEST PUSH0 PUSH2 0x87D DUP3 PUSH2 0x83D JUMP JUMPDEST SWAP2 POP PUSH2 0x888 DUP4 PUSH2 0x83D JUMP JUMPDEST SWAP3 POP DUP3 DUP3 ADD SWAP1 POP DUP1 DUP3 GT ISZERO PUSH2 0x8A0 JUMPI PUSH2 0x89F PUSH2 0x846 JUMP JUMPDEST JUMPDEST SWAP3 SWAP2 POP POP JUMP JUMPDEST PUSH32 0x2000000000000000000000000000000000000000000000000000000000000000 DUP2 MSTORE POP JUMP JUMPDEST PUSH0 PUSH2 0x8D7 DUP3 DUP6 PUSH2 0x7A6 JUMP JUMPDEST SWAP2 POP PUSH2 0x8E2 DUP3 PUSH2 0x8A6 JUMP JUMPDEST PUSH1 0x1 DUP3 ADD SWAP2 POP PUSH2 0x8F2 DUP3 DUP5 PUSH2 0x7A6 JUMP JUMPDEST SWAP2 POP DUP2 SWAP1 POP SWAP4 SWAP3 POP POP POP JUMP JUMPDEST PUSH32 0x2D00000000000000000000000000000000000000000000000000000000000000 DUP2 MSTORE POP JUMP JUMPDEST PUSH0 PUSH2 0x92F DUP3 DUP7 PUSH2 0x7A6 JUMP JUMPDEST SWAP2 POP PUSH2 0x93A DUP3 PUSH2 0x8FE JUMP JUMPDEST PUSH1 0x1 DUP3 ADD SWAP2 POP PUSH2 0x94A DUP3 DUP6 PUSH2 0x7A6 JUMP JUMPDEST SWAP2 POP PUSH2 0x955 DUP3 PUSH2 0x8FE JUMP JUMPDEST PUSH1 0x1 DUP3 ADD SWAP2 POP PUSH2 0x965 DUP3 DUP5 PUSH2 0x7A6 JUMP JUMPDEST SWAP2 POP DUP2 SWAP1 POP SWAP5 SWAP4 POP POP POP POP JUMP JUMPDEST PUSH32 0x4E487B7100000000000000000000000000000000000000000000000000000000 PUSH0 MSTORE PUSH1 0x12 PUSH1 0x4 MSTORE PUSH1 0x24 PUSH0 REVERT JUMPDEST PUSH0 PUSH2 0x9A9 DUP3 PUSH2 0x83D JUMP JUMPDEST SWAP2 POP PUSH2 0x9B4 DUP4 PUSH2 0x83D JUMP JUMPDEST SWAP3 POP DUP3 PUSH2 0x9C4 JUMPI PUSH2 0x9C3 PUSH2 0x972 JUMP JUMPDEST JUMPDEST DUP3 DUP3 DIV SWAP1 POP SWAP3 SWAP2 POP POP JUMP JUMPDEST PUSH0 PUSH2 0x9D9 DUP3 PUSH2 0x83D JUMP JUMPDEST SWAP2 POP PUSH2 0x9E4 DUP4 PUSH2 0x83D JUMP JUMPDEST SWAP3 POP DUP3 PUSH2 0x9F4 JUMPI PUSH2 0x9F3 PUSH2 0x972 JUMP JUMPDEST JUMPDEST DUP3 DUP3 MOD SWAP1 POP SWAP3 SWAP2 POP POP JUMP JUMPDEST PUSH32 0x3A00000000000000000000000000000000000000000000000000000000000000 DUP2 MSTORE POP JUMP JUMPDEST PUSH0 PUSH2 0xA30 DUP3 DUP7 PUSH2 0x7A6 JUMP JUMPDEST SWAP2 POP PUSH2 0xA3B DUP3 PUSH2 0x9FF JUMP JUMPDEST PUSH1 0x1 DUP3 ADD SWAP2 POP PUSH2 0xA4B DUP3 DUP6 PUSH2 0x7A6 JUMP JUMPDEST SWAP2 POP PUSH2 0xA56 DUP3 PUSH2 0x9FF JUMP JUMPDEST PUSH1 0x1 DUP3 ADD SWAP2 POP PUSH2 0xA66 DUP3 DUP5 PUSH2 0x7A6 JUMP JUMPDEST SWAP2 POP DUP2 SWAP1 POP SWAP5 SWAP4 POP POP POP POP JUMP JUMPDEST PUSH0 PUSH2 0xA7D DUP3 PUSH2 0x83D JUMP JUMPDEST SWAP2 POP PUSH2 0xA88 DUP4 PUSH2 0x83D JUMP JUMPDEST SWAP3 POP DUP3 DUP3 MUL PUSH2 0xA96 DUP2 PUSH2 0x83D JUMP JUMPDEST SWAP2 POP DUP3 DUP3 DIV DUP5 EQ DUP4 ISZERO OR PUSH2 0xAAD JUMPI PUSH2 0xAAC PUSH2 0x846 JUMP JUMPDEST JUMPDEST POP SWAP3 SWAP2 POP POP JUMP JUMPDEST PUSH0 PUSH2 0xABE DUP3 PUSH2 0x83D JUMP JUMPDEST SWAP2 POP PUSH32 0xFFFFFFFFFFFFFFFFFFFFFFFFFFFFFFFFFFFFFFFFFFFFFFFFFFFFFFFFFFFFFFFF DUP3 SUB PUSH2 0xAF0 JUMPI PUSH2 0xAEF PUSH2 0x846 JUMP JUMPDEST JUMPDEST PUSH1 0x1 DUP3 ADD SWAP1 POP SWAP2 SWAP1 POP JUMP JUMPDEST PUSH0 PUSH2 0xB05 DUP3 PUSH2 0x83D JUMP JUMPDEST SWAP2 POP PUSH2 0xB10 DUP4 PUSH2 0x83D JUMP JUMPDEST SWAP3 POP DUP3 DUP3 SUB SWAP1 POP DUP2 DUP2 GT ISZERO PUSH2 0xB28 JUMPI PUSH2 0xB27 PUSH2 0x846 JUMP JUMPDEST JUMPDEST SWAP3 SWAP2 POP POP JUMP JUMPDEST PUSH0 PUSH2 0xB38 DUP3 PUSH2 0x83D JUMP JUMPDEST SWAP2 POP PUSH0 DUP3 SUB PUSH2 0xB4A JUMPI PUSH2 0xB49 PUSH2 0x846 JUMP JUMPDEST JUMPDEST PUSH1 0x1 DUP3 SUB SWAP1 POP SWAP2 SWAP1 POP JUMP JUMPDEST PUSH32 0x4E487B7100000000000000000000000000000000000000000000000000000000 PUSH0 MSTORE PUSH1 0x32 PUSH1 0x4 MSTORE PUSH1 0x24 PUSH0 REVERT JUMPDEST PUSH32 0x4E487B7100000000000000000000000000000000000000000000000000000000 PUSH0 MSTORE PUSH1 0x41 PUSH1 0x4 MSTORE PUSH1 0x24 PUSH0 REVERT JUMPDEST PUSH32 0x3000000000000000000000000000000000000000000000000000000000000000 DUP2 MSTORE POP JUMP JUMPDEST PUSH0 PUSH2 0xBDF DUP3 PUSH2 0xBAF JUMP JUMPDEST PUSH1 0x1 DUP3 ADD SWAP2 POP PUSH2 0xBEF DUP3 DUP5 PUSH2 0x7A6 JUMP JUMPDEST SWAP2 POP DUP2 SWAP1 POP SWAP3 SWAP2 POP POP JUMP INVALID LOG2 PUSH5 0x6970667358 0x22 SLT KECCAK256 SUB RETURN 0x4C 0xC3 0xF 0xB5 SMOD SWAP11 DUPN 0x9C RJUMPI 0x197F DUP10 PUSH22 0x469791680B0807F2C495447F6C8FCF3A5C64736F6C63 NUMBER STOP ADDMOD 0x1E STOP CALLER "
				},
				"gasEstimates": {
					"creation": {
						"codeDepositCost": "624000",
						"executionCost": "infinite",
						"totalCost": "infinite"
					},
					"external": {
						"getMessage()": "infinite"
					},
					"internal": {
						"_formatDatePart(uint256)": "infinite",
						"_formatTimePart(uint256)": "infinite",
						"_formatTimestamp(uint256)": "infinite",
						"_getMessageWithTimestamp()": "infinite",
						"_isLeapYear(uint256)": "infinite",
						"_padZero(string memory)": "infinite",
						"_timestampToDate(uint256)": "infinite",
						"_uintToString(uint256)": "infinite"
					}
				},
				"methodIdentifiers": {
					"getMessage()": "ce6d41de"
				}
			},
			"storageLayout": {
				"storage": [
					{
						"astId": 4,
						"contract": "blank.sol:HelloWorld",
						"label": "_message",
						"offset": 0,
						"slot": "0",
						"type": "t_string_storage"
					}
				],
				"types": {
					"t_string_storage": {
						"encoding": "bytes",
						"label": "string",
						"numberOfBytes": "32"
					}
				}
			},
			"userdoc": {
				"kind": "user",
				"methods": {},
				"version": 1
			}
		}
	}
}