{
	"data": {
		"bytecode": {
			"linkReferences": {},
			"object": "608060405234801561000f575f5ffd5b506040518060400160405280600d81526020017f48656c6c6f2c20576f726c6421000000000000000000000000000000000000008152505f90816100539190610296565b50610365565b5f81519050919050565b7f4e487b71000000000000000000000000000000000000000000000000000000005f52604160045260245ffd5b7f4e487b71000000000000000000000000000000000000000000000000000000005f52602260045260245ffd5b5f60028204905060018216806100d457607f821691505b6020821081036100e7576100e6610090565b5b50919050565b5f819050815f5260205f209050919050565b5f6020601f8301049050919050565b5f82821b905092915050565b5f600883026101497fffffffffffffffffffffffffffffffffffffffffffffffffffffffffffffffff8261010e565b610153868361010e565b95508019841693508086168417925050509392505050565b5f819050919050565b5f819050919050565b5f61019761019261018d8461016b565b610174565b61016b565b9050919050565b5f819050919050565b6101b08361017d565b6101c46101bc8261019e565b84845461011a565b825550505050565b5f5f905090565b6101db6101cc565b6101e68184846101a7565b505050565b5b81811015610209576101fe5f826101d3565b6001810190506101ec565b5050565b601f82111561024e5761021f816100ed565b610228846100ff565b81016020851015610237578190505b61024b610243856100ff565b8301826101eb565b50505b505050565b5f82821c905092915050565b5f61026e5f1984600802610253565b1980831691505092915050565b5f610286838361025f565b9150826002028217905092915050565b61029f82610059565b67ffffffffffffffff8111156102b8576102b7610063565b5b6102c282546100bd565b6102cd82828561020d565b5f60209050601f8311600181146102fe575f84156102ec578287015190505b6102f6858261027b565b86555061035d565b601f19841661030c866100ed565b5f5b828110156103335784890151825560018201915060208501945060208101905061030e565b86831015610350578489015161034c601f89168261025f565b8355505b6001600288020188555050505b505050505050565b610c30806103725f395ff3fe608060405234801561000f575f5ffd5b5060043610610029575f3560e01c8063ce6d41de1461002d575b5f5ffd5b61003561004b565b6040516100429190610667565b60405180910390f35b606061005561005a565b905090565b60605f6100664261008b565b6040516020016100779291906107fc565b604051602081830303815290604052905090565b60605f6170808361009c9190610873565b90505f6100a8826100e2565b90505f6100b48361014c565b905081816040516020016100c99291906108cc565b6040516020818303038152906040529350505050919050565b60605f5f5f6100f0856101f9565b9250925092506100ff8361041f565b61011061010b8461041f565b610578565b61012161011c8461041f565b610578565b60405160200161013393929190610924565b6040516020818303038152906040529350505050919050565b60605f8290505f8190505f603c82610164919061099f565b90505f603c82610174919061099f565b905061019361018e60188361018991906109cf565b61041f565b610578565b6101b06101ab603c856101a691906109cf565b61041f565b610578565b6101cd6101c8603c876101c391906109cf565b61041f565b610578565b6040516020016101df93929190610a25565b604051602081830303815290604052945050505050919050565b5f5f5f5f6201518090505f6107b290505f8287610216919061099f565b90505f618ead90505f8160648461022d9190610a73565b610237919061099f565b905080846102459190610873565b97505f5f90505f8590505b8981101561029557610261816105b1565b61026d5761016d610271565b61016e5b61ffff16826102809190610873565b9150808061028d90610ab4565b915050610250565b5f82866102a29190610afb565b90505b5f8112156102ea578a806102b890610b2e565b9b50506102c48b6105b1565b6102d05761016d6102d4565b61016e5b61ffff16816102e39190610873565b90506102a5565b5f604051806101800160405280601f60ff16815260200161030a8e6105b1565b61031557601c610318565b601d5b60ff1660ff168152602001601f60ff168152602001601e60ff168152602001601f60ff168152602001601e60ff168152602001601f60ff168152602001601f60ff168152602001601e60ff168152602001601f60ff168152602001601e60ff168152602001601f60ff16815250905060019a505b8060018c61039a9190610afb565b600c81106103ab576103aa610b55565b5b602002015160ff168210610400578060018c6103c79190610afb565b600c81106103d8576103d7610b55565b5b602002015160ff16826103eb9190610afb565b91508a806103f890610ab4565b9b505061038c565b60018261040d9190610873565b99505050505050505050509193909250565b60605f8203610465576040518060400160405280600181526020017f30000000000000000000000000000000000000000000000000000000000000008152509050610573565b5f8290505f5b5f821461049457808061047d90610ab4565b915050600a8261048d919061099f565b915061046b565b5f8167ffffffffffffffff8111156104af576104ae610b82565b5b6040519080825280601f01601f1916602001820160405280156104e15781602001600182028036833780820191505090505b5090505b5f851461056c576001826104f99190610afb565b9150600a8561050891906109cf565b60306105149190610873565b60f81b81838151811061052a57610529610b55565b5b60200101907effffffffffffffffffffffffffffffffffffffffffffffffffffffffffffff191690815f1a905350600a85610565919061099f565b94506104e5565b8093505050505b919050565b6060600182511461058957816105aa565b8160405160200161059a9190610bd5565b6040516020818303038152906040525b9050919050565b5f5f6004836105c091906109cf565b1480156105d957505f6064836105d691906109cf565b14155b806105f057505f610190836105ee91906109cf565b145b9050919050565b5f81519050919050565b5f82825260208201905092915050565b8281835e5f83830152505050565b5f601f19601f8301169050919050565b5f610639826105f7565b6106438185610601565b9350610653818560208601610611565b61065c8161061f565b840191505092915050565b5f6020820190508181035f83015261067f818461062f565b905092915050565b7f4e487b71000000000000000000000000000000000000000000000000000000005f52602260045260245ffd5b5f60028204905060018216806106cb57607f821691505b6020821081036106de576106dd610687565b5b50919050565b5f81905092915050565b5f819050815f5260205f209050919050565b5f815461070c816106b4565b61071681866106e4565b9450600182165f8114610730576001811461074557610777565b60ff1983168652811515820286019350610777565b61074e856106ee565b5f5b8381101561076f57815481890152600182019150602081019050610750565b838801955050505b50505092915050565b7f2028000000000000000000000000000000000000000000000000000000000000815250565b5f6107b0826105f7565b6107ba81856106e4565b93506107ca818560208601610611565b80840191505092915050565b7f2900000000000000000000000000000000000000000000000000000000000000815250565b5f6108078285610700565b915061081282610780565b60028201915061082282846107a6565b915061082d826107d6565b6001820191508190509392505050565b5f819050919050565b7f4e487b71000000000000000000000000000000000000000000000000000000005f52601160045260245ffd5b5f61087d8261083d565b91506108888361083d565b92508282019050808211156108a05761089f610846565b5b92915050565b7f2000000000000000000000000000000000000000000000000000000000000000815250565b5f6108d782856107a6565b91506108e2826108a6565b6001820191506108f282846107a6565b91508190509392505050565b7f2d00000000000000000000000000000000000000000000000000000000000000815250565b5f61092f82866107a6565b915061093a826108fe565b60018201915061094a82856107a6565b9150610955826108fe565b60018201915061096582846107a6565b9150819050949350505050565b7f4e487b71000000000000000000000000000000000000000000000000000000005f52601260045260245ffd5b5f6109a98261083d565b91506109b48361083d565b9250826109c4576109c3610972565b5b828204905092915050565b5f6109d98261083d565b91506109e48361083d565b9250826109f4576109f3610972565b5b828206905092915050565b7f3a00000000000000000000000000000000000000000000000000000000000000815250565b5f610a3082866107a6565b9150610a3b826109ff565b600182019150610a4b82856107a6565b9150610a56826109ff565b600182019150610a6682846107a6565b9150819050949350505050565b5f610a7d8261083d565b9150610a888361083d565b9250828202610a968161083d565b91508282048414831517610aad57610aac610846565b5b5092915050565b5f610abe8261083d565b91507fffffffffffffffffffffffffffffffffffffffffffffffffffffffffffffffff8203610af057610aef610846565b5b600182019050919050565b5f610b058261083d565b9150610b108361083d565b9250828203905081811115610b2857610b27610846565b5b92915050565b5f610b388261083d565b91505f8203610b4a57610b49610846565b5b600182039050919050565b7f4e487b71000000000000000000000000000000000000000000000000000000005f52603260045260245ffd5b7f4e487b71000000000000000000000000000000000000000000000000000000005f52604160045260245ffd5b7f3000000000000000000000000000000000000000000000000000000000000000815250565b5f610bdf82610baf565b600182019150610bef82846107a6565b91508190509291505056fea264697066735822122003f34cc30fb5079ae69ce1197f8975469791680b0807f2c495447f6c8fcf3a5c64736f6c634300081e0033",
			"opcodes": "PUSH1 0x80 PUSH1 0x40 MSTORE CALLVALUE DUP1 ISZERO PUSH2 0xF JUMPI PUSH0 PUSH0 REVERT JUMPDEST POP PUSH1 0x40 MLOAD DUP1 PUSH1 0x40 ADD PUSH1 0x40 MSTORE DUP1 PUSH1 0xD DUP2 MSTORE PUSH1 0x20 ADD PUSH32 0x48656C6C6F2C20576F726C642100000000000000000000000000000000000000 DUP2 MSTORE POP PUSH0 SWAP1 DUP2 PUSH2 0x53 SWAP2 SWAP1 PUSH2 0x296 JUMP JUMPDEST POP PUSH2 0x365 JUMP JUMPDEST PUSH0 DUP2 MLOAD SWAP1 POP SWAP2 SWAP1 POP JUMP JUMPDEST PUSH32 0x4E487B7100000000000000000000000000000000000000000000000000000000 PUSH0 MSTORE PUSH1 0x41 PUSH1 0x4 MSTORE PUSH1 0x24 PUSH0 REVERT JUMPDEST PUSH32 0x4E487B7100000000000000000000000000000000000000000000000000000000 PUSH0 MSTORE PUSH1 0x22 PUSH1 0x4 MSTORE PUSH1 0x24 PUSH0 REVERT JUMPDEST PUSH0 PUSH1 0x2 DUP3 DIV SWAP1 POP PUSH1 0x1 DUP3 AND DUP1 PUSH2 0xD4 JUMPI PUSH1 0x7F DUP3 AND SWAP2 POP JUMPDEST PUSH1 0x20 DUP3 LT DUP2 SUB PUSH2 0xE7 JUMPI PUSH2 0xE6 PUSH2 0x90 JUMP JUMPDEST JUMPDEST POP SWAP2 SWAP1 POP JUMP JUMPDEST PUSH0 DUP2 SWAP1 POP DUP2 PUSH0 MSTORE PUSH1 0x20 PUSH0 KECCAK256 SWAP1 POP SWAP2 SWAP1 POP JUMP JUMPDEST PUSH0 PUSH1 0x20 PUSH1 0x1F DUP4 ADD DIV SWAP1 POP SWAP2 SWAP1 POP JUMP JUMPDEST PUSH0 DUP3 DUP3 SHL SWAP1 POP SWAP3 SWAP2 POP POP JUMP JUMPDEST PUSH0 PUSH1 0x8 DUP4 MUL PUSH2 0x149 PUSH32 0xFFFFFFFFFFFFFFFFFFFFFFFFFFFFFFFFFFFFFFFFFFFFFFFFFFFFFFFFFFFFFFFF DUP3 PUSH2 0x10E JUMP JUMPDEST PUSH2 0x153 DUP7 DUP4 PUSH2 0x10E JUMP JUMPDEST SWAP6 POP DUP1 NOT DUP5 AND SWAP4 POP DUP1 DUP7 AND DUP5 OR SWAP3 POP POP POP SWAP4 SWAP3 POP POP POP JUMP JUMPDEST PUSH0 DUP2 SWAP1 POP SWAP2 SWAP1 POP JUMP JUMPDEST PUSH0 DUP2 SWAP1 POP SWAP2 SWAP1 POP JUMP JUMPDEST PUSH0 PUSH2 0x197 PUSH2 0x192 PUSH2 0x18D DUP5 PUSH2 0x16B JUMP JUMPDEST PUSH2 0x174 JUMP JUMPDEST PUSH2 0x16B JUMP JUMPDEST SWAP1 POP SWAP2 SWAP1 POP JUMP JUMPDEST PUSH0 DUP2 SWAP1 POP SWAP2 SWAP1 POP JUMP JUMPDEST PUSH2 0x1B0 DUP4 PUSH2 0x17D JUMP JUMPDEST PUSH2 0x1C4 PUSH2 0x1BC DUP3 PUSH2 0x19E JUMP JUMPDEST DUP5 DUP5 SLOAD PUSH2 0x11A JUMP JUMPDEST DUP3 SSTORE POP POP POP POP JUMP JUMPDEST PUSH0 PUSH0 SWAP1 POP SWAP1 JUMP JUMPDEST PUSH2 0x1DB PUSH2 0x1CC JUMP JUMPDEST PUSH2 0x1E6 DUP2 DUP5 DUP5 PUSH2 0x1A7 JUMP JUMPDEST POP POP POP JUMP JUMPDEST JUMPDEST DUP2 DUP2 LT ISZERO PUSH2 0x209 JUMPI PUSH2 0x1FE PUSH0 DUP3 PUSH2 0x1D3 JUMP JUMPDEST PUSH1 0x1 DUP2 ADD SWAP1 POP PUSH2 0x1EC JUMP JUMPDEST POP POP JUMP JUMPDEST PUSH1 0x1F DUP3 GT ISZERO PUSH2 0x24E JUMPI PUSH2 0x21F DUP2 PUSH2 0xED JUMP JUMPDEST PUSH2 0x228 DUP5 PUSH2 0xFF JUMP JUMPDEST DUP2 ADD PUSH1 0x20 DUP6 LT ISZERO PUSH2 0x237 JUMPI DUP2 SWAP1 POP JUMPDEST PUSH2 0x24B PUSH2 0x243 DUP6 PUSH2 0xFF JUMP JUMPDEST DUP4 ADD DUP3 PUSH2 0x1EB JUMP JUMPDEST POP POP JUMPDEST POP POP POP JUMP JUMPDEST PUSH0 DUP3 DUP3 SHR SWAP1 POP SWAP3 SWAP2 POP POP JUMP JUMPDEST PUSH0 PUSH2 0x26E PUSH0 NOT DUP5 PUSH1 0x8 MUL PUSH2 0x253 JUMP JUMPDEST NOT DUP1 DUP4 AND SWAP2 POP POP SWAP3 SWAP2 POP POP JUMP JUMPDEST PUSH0 PUSH2 0x286 DUP4 DUP4 PUSH2 0x25F JUMP JUMPDEST SWAP2 POP DUP3 PUSH1 0x2 MUL DUP3 OR SWAP1 POP SWAP3 SWAP2 POP POP JUMP JUMPDEST PUSH2 0x29F DUP3 PUSH2 0x59 JUMP JUMPDEST PUSH8 0xFFFFFFFFFFFFFFFF DUP2 GT ISZERO PUSH2 0x2B8 JUMPI PUSH2 0x2B7 PUSH2 0x63 JUMP JUMPDEST JUMPDEST PUSH2 0x2C2 DUP3 SLOAD PUSH2 0xBD JUMP JUMPDEST PUSH2 0x2CD DUP3 DUP3 DUP6 PUSH2 0x20D JUMP JUMPDEST PUSH0 PUSH1 0x20 SWAP1 POP PUSH1 0x1F DUP4 GT PUSH1 0x1 DUP2 EQ PUSH2 0x2FE JUMPI PUSH0 DUP5 ISZERO PUSH2 0x2EC JUMPI DUP3 DUP8 ADD MLOAD SWAP1 POP JUMPDEST PUSH2 0x2F6 DUP6 DUP3 PUSH2 0x27B JUMP JUMPDEST DUP7 SSTORE POP PUSH2 0x35D JUMP JUMPDEST PUSH1 0x1F NOT DUP5 AND PUSH2 0x30C DUP7 PUSH2 0xED JUMP JUMPDEST PUSH0 JUMPDEST DUP3 DUP2 LT ISZERO PUSH2 0x333 JUMPI DUP5 DUP10 ADD MLOAD DUP3 SSTORE PUSH1 0x1 DUP3 ADD SWAP2 POP PUSH1 0x20 DUP6 ADD SWAP5 POP PUSH1 0x20 DUP2 ADD SWAP1 POP PUSH2 0x30E JUMP JUMPDEST DUP7 DUP4 LT ISZERO PUSH2 0x350 JUMPI DUP5 DUP10 ADD MLOAD PUSH2 0x34C PUSH1 0x1F DUP10 AND DUP3 PUSH2 0x25F JUMP JUMPDEST DUP4 SSTORE POP JUMPDEST PUSH1 0x1 PUSH1 0x2 DUP9 MUL ADD DUP9 SSTORE POP POP POP JUMPDEST POP POP POP POP POP POP JUMP JUMPDEST PUSH2 0xC30 DUP1 PUSH2 0x372 PUSH0 CODECOPY PUSH0 RETURN INVALID PUSH1 0x80 PUSH1 0x40 MSTORE CALLVALUE DUP1 ISZERO PUSH2 0xF JUMPI PUSH0 PUSH0 REVERT JUMPDEST POP PUSH1 0x4 CALLDATASIZE LT PUSH2 0x29 JUMPI PUSH0 CALLDATALOAD PUSH1 0xE0 SHR DUP1 PUSH4 0xCE6D41DE EQ PUSH2 0x2D JUMPI JUMPDEST PUSH0 PUSH0 REVERT JUMPDEST PUSH2 0x35 PUSH2 0x4B JUMP JUMPDEST PUSH1 0x40 MLOAD PUSH2 0x42 SWAP2 SWAP1 PUSH2 0x667 JUMP JUMPDEST PUSH1 0x40 MLOAD DUP1 SWAP2 SUB SWAP1 RETURN JUMPDEST PUSH1 0x60 PUSH2 0x55 PUSH2 0x5A JUMP JUMPDEST SWAP1 POP SWAP1 JUMP JUMPDEST PUSH1 0x60 PUSH0 PUSH2 0x66 TIMESTAMP PUSH2 0x8B JUMP JUMPDEST PUSH1 0x40 MLOAD PUSH1 0x20 ADD PUSH2 0x77 SWAP3 SWAP2 SWAP1 PUSH2 0x7FC JUMP JUMPDEST PUSH1 0x40 MLOAD PUSH1 0x20 DUP2 DUP4 SUB SUB DUP2 MSTORE SWAP1 PUSH1 0x40 MSTORE SWAP1 POP SWAP1 JUMP JUMPDEST PUSH1 0x60 PUSH0 PUSH2 0x7080 DUP4 PUSH2 0x9C SWAP2 SWAP1 PUSH2 0x873 JUMP JUMPDEST SWAP1 POP PUSH0 PUSH2 0xA8 DUP3 PUSH2 0xE2 JUMP JUMPDEST SWAP1 POP PUSH0 PUSH2 0xB4 DUP4 PUSH2 0x14C JUMP JUMPDEST SWAP1 POP DUP2 DUP2 PUSH1 0x40 MLOAD PUSH1 0x20 ADD PUSH2 0xC9 SWAP3 SWAP2 SWAP1 PUSH2 0x8CC JUMP JUMPDEST PUSH1 0x40 MLOAD PUSH1 0x20 DUP2 DUP4 SUB SUB DUP2 MSTORE SWAP1 PUSH1 0x40 MSTORE SWAP4 POP POP POP POP SWAP2 SWAP1 POP JUMP JUMPDEST PUSH1 0x60 PUSH0 PUSH0 PUSH0 PUSH2 0xF0 DUP6 PUSH2 0x1F9 JUMP JUMPDEST SWAP3 POP SWAP3 POP SWAP3 POP PUSH2 0xFF DUP4 PUSH2 0x41F JUMP JUMPDEST PUSH2 0x110 PUSH2 0x10B DUP5 PUSH2 0x41F JUMP JUMPDEST PUSH2 0x578 JUMP JUMPDEST PUSH2 0x121 PUSH2 0x11C DUP5 PUSH2 0x41F JUMP JUMPDEST PUSH2 0x578 JUMP JUMPDEST PUSH1 0x40 MLOAD PUSH1 0x20 ADD PUSH2 0x133 SWAP4 SWAP3 SWAP2 SWAP1 PUSH2 0x924 JUMP JUMPDEST PUSH1 0x40 MLOAD PUSH1 0x20 DUP2 DUP4 SUB SUB DUP2 MSTORE SWAP1 PUSH1 0x40 MSTORE SWAP4 POP POP POP POP SWAP2 SWAP1 POP JUMP JUMPDEST PUSH1 0x60 PUSH0 DUP3 SWAP1 POP PUSH0 DUP2 SWAP1 POP PUSH0 PUSH1 0x3C DUP3 PUSH2 0x164 SWAP2 SWAP1 PUSH2 0x99F JUMP JUMPDEST SWAP1 POP PUSH0 PUSH1 0x3C DUP3 PUSH2 0x174 SWAP2 SWAP1 PUSH2 0x99F JUMP JUMPDEST SWAP1 POP PUSH2 0x193 PUSH2 0x18E PUSH1 0x18 DUP4 PUSH2 0x189 SWAP2 SWAP1 PUSH2 0x9CF JUMP JUMPDEST PUSH2 0x41F JUMP JUMPDEST PUSH2 0x578 JUMP JUMPDEST PUSH2 0x1B0 PUSH2 0x1AB PUSH1 0x3C DUP6 PUSH2 0x1A6 SWAP2 SWAP1 PUSH2 0x9CF JUMP JUMPDEST PUSH2 0x41F JUMP JUMPDEST PUSH2 0x578 JUMP JUMPDEST PUSH2 0x1CD PUSH2 0x1C8 PUSH1 0x3C DUP8 PUSH2 0x1C3 SWAP2 SWAP1 PUSH2 0x9CF JUMP JUMPDEST PUSH2 0x41F JUMP JUMPDEST PUSH2 0x578 JUMP JUMPDEST PUSH1 0x40 MLOAD PUSH1 0x20 ADD PUSH2 0x1DF SWAP4 SWAP3 SWAP2 SWAP1 PUSH2 0xA25 JUMP JUMPDEST PUSH1 0x40 MLOAD PUSH1 0x20 DUP2 DUP4 SUB SUB DUP2 MSTORE SWAP1 PUSH1 0x40 MSTORE SWAP5 POP POP POP POP POP SWAP2 SWAP1 POP JUMP JUMPDEST PUSH0 PUSH0 PUSH0 PUSH0 PUSH3 0x15180 SWAP1 POP PUSH0 PUSH2 0x7B2 SWAP1 POP PUSH0 DUP3 DUP8 PUSH2 0x216 SWAP2 SWAP1 PUSH2 0x99F JUMP JUMPDEST SWAP1 POP PUSH0 PUSH2 0x8EAD SWAP1 POP PUSH0 DUP2 PUSH1 0x64 DUP5 PUSH2 0x22D SWAP2 SWAP1 PUSH2 0xA73 JUMP JUMPDEST PUSH2 0x237 SWAP2 SWAP1 PUSH2 0x99F JUMP JUMPDEST SWAP1 POP DUP1 DUP5 PUSH2 0x245 SWAP2 SWAP1 PUSH2 0x873 JUMP JUMPDEST SWAP8 POP PUSH0 PUSH0 SWAP1 POP PUSH0 DUP6 SWAP1 POP JUMPDEST DUP10 DUP2 LT ISZERO PUSH2 0x295 JUMPI PUSH2 0x261 DUP2 PUSH2 0x5B1 JUMP JUMPDEST PUSH2 0x26D JUMPI PUSH2 0x16D PUSH2 0x271 JUMP JUMPDEST PUSH2 0x16E JUMPDEST PUSH2 0xFFFF AND DUP3 PUSH2 0x280 SWAP2 SWAP1 PUSH2 0x873 JUMP JUMPDEST SWAP2 POP DUP1 DUP1 PUSH2 0x28D SWAP1 PUSH2 0xAB4 JUMP JUMPDEST SWAP2 POP POP PUSH2 0x250 JUMP JUMPDEST PUSH0 DUP3 DUP7 PUSH2 0x2A2 SWAP2 SWAP1 PUSH2 0xAFB JUMP JUMPDEST SWAP1 POP JUMPDEST PUSH0 DUP2 SLT ISZERO PUSH2 0x2EA JUMPI DUP11 DUP1 PUSH2 0x2B8 SWAP1 PUSH2 0xB2E JUMP JUMPDEST SWAP12 POP POP PUSH2 0x2C4 DUP12 PUSH2 0x5B1 JUMP JUMPDEST PUSH2 0x2D0 JUMPI PUSH2 0x16D PUSH2 0x2D4 JUMP JUMPDEST PUSH2 0x16E JUMPDEST PUSH2 0xFFFF AND DUP2 PUSH2 0x2E3 SWAP2 SWAP1 PUSH2 0x873 JUMP JUMPDEST SWAP1 POP PUSH2 0x2A5 JUMP JUMPDEST PUSH0 PUSH1 0x40 MLOAD DUP1 PUSH2 0x180 ADD PUSH1 0x40 MSTORE DUP1 PUSH1 0x1F PUSH1 0xFF AND DUP2 MSTORE PUSH1 0x20 ADD PUSH2 0x30A DUP15 PUSH2 0x5B1 JUMP JUMPDEST PUSH2 0x315 JUMPI PUSH1 0x1C PUSH2 0x318 JUMP JUMPDEST PUSH1 0x1D JUMPDEST PUSH1 0xFF AND PUSH1 0xFF AND DUP2 MSTORE PUSH1 0x20 ADD PUSH1 0x1F PUSH1 0xFF AND DUP2 MSTORE PUSH1 0x20 ADD PUSH1 0x1E PUSH1 0xFF AND DUP2 MSTORE PUSH1 0x20 ADD PUSH1 0x1F PUSH1 0xFF AND DUP2 MSTORE PUSH1 0x20 ADD PUSH1 0x1E PUSH1 0xFF AND DUP2 MSTORE PUSH1 0x20 ADD PUSH1 0x1F PUSH1 0xFF AND DUP2 MSTORE PUSH1 0x20 ADD PUSH1 0x1F PUSH1 0xFF AND DUP2 MSTORE PUSH1 0x20 ADD PUSH1 0x1E PUSH1 0xFF AND DUP2 MSTORE PUSH1 0x20 ADD PUSH1 0x1F PUSH1 0xFF AND DUP2 MSTORE PUSH1 0x20 ADD PUSH1 0x1E PUSH1 0xFF AND DUP2 MSTORE PUSH1 0x20 ADD PUSH1 0x1F PUSH1 0xFF AND DUP2 MSTORE POP SWAP1 POP PUSH1 0x1 SWAP11 POP JUMPDEST DUP1 PUSH1 0x1 DUP13 PUSH2 0x39A SWAP2 SWAP1 PUSH2 0xAFB JUMP JUMPDEST PUSH1 0xC DUP2 LT PUSH2 0x3AB JUMPI PUSH2 0x3AA PUSH2 0xB55 JUMP JUMPDEST JUMPDEST PUSH1 0x20 MUL ADD MLOAD PUSH1 0xFF AND DUP3 LT PUSH2 0x400 JUMPI DUP1 PUSH1 0x1 DUP13 PUSH2 0x3C7 SWAP2 SWAP1 PUSH2 0xAFB JUMP JUMPDEST PUSH1 0xC DUP2 LT PUSH2 0x3D8 JUMPI PUSH2 0x3D7 PUSH2 0xB55 JUMP JUMPDEST JUMPDEST PUSH1 0x20 MUL ADD MLOAD PUSH1 0xFF AND DUP3 PUSH2 0x3EB SWAP2 SWAP1 PUSH2 0xAFB JUMP JUMPDEST SWAP2 POP DUP11 DUP1 PUSH2 0x3F8 SWAP1 PUSH2 0xAB4 JUMP JUMPDEST SWAP12 POP POP PUSH2 0x38C JUMP JUMPDEST PUSH1 0x1 DUP3 PUSH2 0x40D SWAP2 SWAP1 PUSH2 0x873 JUMP JUMPDEST SWAP10 POP POP POP POP POP POP POP POP POP POP SWAP2 SWAP4 SWAP1 SWAP3 POP JUMP JUMPDEST PUSH1 0x60 PUSH0 DUP3 SUB PUSH2 0x465 JUMPI PUSH1 0x40 MLOAD DUP1 PUSH1 0x40 ADD PUSH1 0x40 MSTORE DUP1 PUSH1 0x1 DUP2 MSTORE PUSH1 0x20 ADD PUSH32 0x3000000000000000000000000000000000000000000000000000000000000000 DUP2 MSTORE POP SWAP1 POP PUSH2 0x573 JUMP JUMPDEST PUSH0 DUP3 SWAP1 POP PUSH0 JUMPDEST PUSH0 DUP3 EQ PUSH2 0x494 JUMPI DUP1 DUP1 PUSH2 0x47D SWAP1 PUSH2 0xAB4 JUMP JUMPDEST SWAP2 POP POP PUSH1 0xA DUP3 PUSH2 0x48D SWAP2 SWAP1 PUSH2 0x99F JUMP JUMPDEST SWAP2 POP PUSH2 0x46B JUMP JUMPDEST PUSH0 DUP2 PUSH8 0xFFFFFFFFFFFFFFFF DUP2 GT ISZERO PUSH2 0x4AF JUMPI PUSH2 0x4AE PUSH2 0xB82 JUMP JUMPDEST JUMPDEST PUSH1 0x40 MLOAD SWAP1 DUP1 DUP3 MSTORE DUP1 PUSH1 0x1F ADD PUSH1 0x1F NOT AND PUSH1 0x20 ADD DUP3 ADD PUSH1 0x40 MSTORE DUP1 ISZERO PUSH2 0x4E1 JUMPI DUP2 PUSH1 0x20 ADD PUSH1 0x1 DUP3 MUL DUP1 CALLDATASIZE DUP4 CALLDATACOPY DUP1 DUP3 ADD SWAP2 POP POP SWAP1 POP JUMPDEST POP SWAP1 POP JUMPDEST PUSH0 DUP6 EQ PUSH2 0x56C JUMPI PUSH1 0x1 DUP3 PUSH2 0x4F9 SWAP2 SWAP1 PUSH2 0xAFB JUMP JUMPDEST SWAP2 POP PUSH1 0xA DUP6 PUSH2 0x508 SWAP2 SWAP1 PUSH2 0x9CF JUMP JUMPDEST PUSH1 0x30 PUSH2 0x514 SWAP2 SWAP1 PUSH2 0x873 JUMP JUMPDEST PUSH1 0xF8 SHL DUP2 DUP4 DUP2 MLOAD DUP2 LT PUSH2 0x52A JUMPI PUSH2 0x529 PUSH2 0xB55 JUMP JUMPDEST JUMPDEST PUSH1 0x20 ADD ADD SWAP1 PUSH31 0xFFFFFFFFFFFFFFFFFFFFFFFFFFFFFFFFFFFFFFFFFFFFFFFFFFFFFFFFFFFFFF NOT AND SWAP1 DUP2 PUSH0 BYTE SWAP1 MSTORE8 POP PUSH1 0xA DUP6 PUSH2 0x565 SWAP2 SWAP1 PUSH2 0x99F JUMP JUMPDEST SWAP5 POP PUSH2 0x4E5 JUMP JUMPDEST DUP1 SWAP4 POP POP POP POP JUMPDEST SWAP2 SWAP1 POP JUMP JUMPDEST PUSH1 0x60 PUSH1 0x1 DUP3 MLOAD EQ PUSH2 0x589 JUMPI DUP2 PUSH2 0x5AA JUMP JUMPDEST DUP2 PUSH1 0x40 MLOAD PUSH1 0x20 ADD PUSH2 0x59A SWAP2 SWAP1 PUSH2 0xBD5 JUMP JUMPDEST PUSH1 0x40 MLOAD PUSH1 0x20 DUP2 DUP4 SUB SUB DUP2 MSTORE SWAP1 PUSH1 0x40 MSTORE JUMPDEST SWAP1 POP SWAP2 SWAP1 POP JUMP JUMPDEST PUSH0 PUSH0 PUSH1 0x4 DUP4 PUSH2 0x5C0 SWAP2 SWAP1 PUSH2 0x9CF JUMP JUMPDEST EQ DUP1 ISZERO PUSH2 0x5D9 JUMPI POP PUSH0 PUSH1 0x64 DUP4 PUSH2 0x5D6 SWAP2 SWAP1 PUSH2 0x9CF JUMP JUMPDEST EQ ISZERO JUMPDEST DUP1 PUSH2 0x5F0 JUMPI POP PUSH0 PUSH2 0x190 DUP4 PUSH2 0x5EE SWAP2 SWAP1 PUSH2 0x9CF JUMP JUMPDEST EQ JUMPDEST SWAP1 POP SWAP2 SWAP1 POP JUMP JUMPDEST PUSH0 DUP2 MLOAD SWAP1 POP SWAP2 SWAP1 POP JUMP JUMPDEST PUSH0 DUP3 DUP3 MSTORE PUSH1 0x20 DUP3 ADD SWAP1 POP SWAP3 SWAP2 POP POP JUMP JUMPDEST DUP3 DUP2 DUP4 MCOPY PUSH0 DUP4 DUP4 ADD MSTORE POP POP POP JUMP JUMPDEST PUSH0 PUSH1 0x1F NOT PUSH1 0x1F DUP4 ADD AND SWAP1 POP SWAP2 SWAP1 POP JUMP JUMPDEST PUSH0 PUSH2 0x639 DUP3 PUSH2 0x5F7 JUMP JUMPDEST PUSH2 0x643 DUP2 DUP6 PUSH2 0x601 JUMP JUMPDEST SWAP4 POP PUSH2 0x653 DUP2 DUP6 PUSH1 0x20 DUP7 ADD PUSH2 0x611 JUMP JUMPDEST PUSH2 0x65C DUP2 PUSH2 0x61F JUMP JUMPDEST DUP5 ADD SWAP2 POP POP SWAP3 SWAP2 POP POP JUMP JUMPDEST PUSH0 PUSH1 0x20 DUP3 ADD SWAP1 POP DUP2 DUP2 SUB PUSH0 DUP4 ADD MSTORE PUSH2 0x67F DUP2 DUP5 PUSH2 0x62F JUMP JUMPDEST SWAP1 POP SWAP3 SWAP2 POP POP JUMP JUMPDEST PUSH32 0x4E487B7100000000000000000000000000000000000000000000000000000000 PUSH0 MSTORE PUSH1 0x22 PUSH1 0x4 MSTORE PUSH1 0x24 PUSH0 REVERT JUMPDEST PUSH0 PUSH1 0x2 DUP3 DIV SWAP1 POP PUSH1 0x1 DUP3 AND DUP1 PUSH2 0x6CB JUMPI PUSH1 0x7F DUP3 AND SWAP2 POP JUMPDEST PUSH1 0x20 DUP3 LT DUP2 SUB PUSH2 0x6DE JUMPI PUSH2 0x6DD PUSH2 0x687 JUMP JUMPDEST JUMPDEST POP SWAP2 SWAP1 POP JUMP JUMPDEST PUSH0 DUP2 SWAP1 POP SWAP3 SWAP2 POP POP JUMP JUMPDEST PUSH0 DUP2 SWAP1 POP DUP2 PUSH0 MSTORE PUSH1 0x20 PUSH0 KECCAK256 SWAP1 POP SWAP2 SWAP1 POP JUMP JUMPDEST PUSH0 DUP2 SLOAD PUSH2 0x70C DUP2 PUSH2 0x6B4 JUMP JUMPDEST PUSH2 0x716 DUP2 DUP7 PUSH2 0x6E4 JUMP JUMPDEST SWAP5 POP PUSH1 0x1 DUP3 AND PUSH0 DUP2 EQ PUSH2 0x730 JUMPI PUSH1 0x1 DUP2 EQ PUSH2 0x745 JUMPI PUSH2 0x777 JUMP JUMPDEST PUSH1 0xFF NOT DUP4 AND DUP7 MSTORE DUP2 ISZERO ISZERO DUP3 MUL DUP7 ADD SWAP4 POP PUSH2 0x777 JUMP JUMPDEST PUSH2 0x74E DUP6 PUSH2 0x6EE JUMP JUMPDEST PUSH0 JUMPDEST DUP4 DUP2 LT ISZERO PUSH2 0x76F JUMPI DUP2 SLOAD DUP2 DUP10 ADD MSTORE PUSH1 0x1 DUP3 ADD SWAP2 POP PUSH1 0x20 DUP2 ADD SWAP1 POP PUSH2 0x750 JUMP JUMPDEST DUP4 DUP9 ADD SWAP6 POP POP POP JUMPDEST POP POP POP SWAP3 SWAP2 POP POP JUMP JUMPDEST PUSH32 0x2028000000000000000000000000000000000000000000000000000000000000 DUP2 MSTORE POP JUMP JUMPDEST PUSH0 PUSH2 0x7B0 DUP3 PUSH2 0x5F7 JUMP JUMPDEST PUSH2 0x7BA DUP2 DUP6 PUSH2 0x6E4 JUMP JUMPDEST SWAP4 POP PUSH2 0x7CA DUP2 DUP6 PUSH1 0x20 DUP7 ADD PUSH2 0x611 JUMP JUMPDEST DUP1 DUP5 ADD SWAP2 POP POP SWAP3 SWAP2 POP POP JUMP JUMPDEST PUSH32 0x2900000000000000000000000000000000000000000000000000000000000000 DUP2 MSTORE POP JUMP JUMPDEST PUSH0 PUSH2 0x807 DUP3 DUP6 PUSH2 0x700 JUMP JUMPDEST SWAP2 POP PUSH2 0x812 DUP3 PUSH2 0x780 JUMP JUMPDEST PUSH1 0x2 DUP3 ADD SWAP2 POP PUSH2 0x822 DUP3 DUP5 PUSH2 0x7A6 JUMP JUMPDEST SWAP2 POP PUSH2 0x82D DUP3 PUSH2 0x7D6 JUMP JUMPDEST PUSH1 0x1 DUP3 ADD SWAP2 POP DUP2 SWAP1 POP SWAP4 SWAP3 POP POP POP JUMP JUMPDEST PUSH0 DUP2 SWAP1 POP SWAP2 SWAP1 POP JUMP JUMPDEST PUSH32 0x4E487B7100000000000000000000000000000000000000000000000000000000 PUSH0 MSTORE PUSH1 0x11 PUSH1 0x4 MSTORE PUSH1 0x24 PUSH0 REVERT JUMPDEST PUSH0 PUSH2 0x87D DUP3 PUSH2 0x83D JUMP JUMPDEST SWAP2 POP PUSH2 0x888 DUP4 PUSH2 0x83D JUMP JUMPDEST SWAP3 POP DUP3 DUP3 ADD SWAP1 POP DUP1 DUP3 GT ISZERO PUSH2 0x8A0 JUMPI PUSH2 0x89F PUSH2 0x846 JUMP JUMPDEST JUMPDEST SWAP3 SWAP2 POP POP JUMP JUMPDEST PUSH32 0x2000000000000000000000000000000000000000000000000000000000000000 DUP2 MSTORE POP JUMP JUMPDEST PUSH0 PUSH2 0x8D7 DUP3 DUP6 PUSH2 0x7A6 JUMP JUMPDEST SWAP2 POP PUSH2 0x8E2 DUP3 PUSH2 0x8A6 JUMP JUMPDEST PUSH1 0x1 DUP3 ADD SWAP2 POP PUSH2 0x8F2 DUP3 DUP5 PUSH2 0x7A6 JUMP JUMPDEST SWAP2 POP DUP2 SWAP1 POP SWAP4 SWAP3 POP POP POP JUMP JUMPDEST PUSH32 0x2D00000000000000000000000000000000000000000000000000000000000000 DUP2 MSTORE POP JUMP JUMPDEST PUSH0 PUSH2 0x92F DUP3 DUP7 PUSH2 0x7A6 JUMP JUMPDEST SWAP2 POP PUSH2 0x93A DUP3 PUSH2 0x8FE JUMP JUMPDEST PUSH1 0x1 DUP3 ADD SWAP2 POP PUSH2 0x94A DUP3 DUP6 PUSH2 0x7A6 JUMP JUMPDEST SWAP2 POP PUSH2 0x955 DUP3 PUSH2 0x8FE JUMP JUMPDEST PUSH1 0x1 DUP3 ADD SWAP2 POP PUSH2 0x965 DUP3 DUP5 PUSH2 0x7A6 JUMP JUMPDEST SWAP2 POP DUP2 SWAP1 POP SWAP5 SWAP4 POP POP POP POP JUMP JUMPDEST PUSH32 0x4E487B7100000000000000000000000000000000000000000000000000000000 PUSH0 MSTORE PUSH1 0x12 PUSH1 0x4 MSTORE PUSH1 0x24 PUSH0 REVERT JUMPDEST PUSH0 PUSH2 0x9A9 DUP3 PUSH2 0x83D JUMP JUMPDEST SWAP2 POP PUSH2 0x9B4 DUP4 PUSH2 0x83D JUMP JUMPDEST SWAP3 POP DUP3 PUSH2 0x9C4 JUMPI PUSH2 0x9C3 PUSH2 0x972 JUMP JUMPDEST JUMPDEST DUP3 DUP3 DIV SWAP1 POP SWAP3 SWAP2 POP POP JUMP JUMPDEST PUSH0 PUSH2 0x9D9 DUP3 PUSH2 0x83D JUMP JUMPDEST SWAP2 POP PUSH2 0x9E4 DUP4 PUSH2 0x83D JUMP JUMPDEST SWAP3 POP DUP3 PUSH2 0x9F4 JUMPI PUSH2 0x9F3 PUSH2 0x972 JUMP JUMPDEST JUMPDEST DUP3 DUP3 MOD SWAP1 POP SWAP3 SWAP2 POP POP JUMP JUMPDEST PUSH32 0x3A00000000000000000000000000000000000000000000000000000000000000 DUP2 MSTORE POP JUMP JUMPDEST PUSH0 PUSH2 0xA30 DUP3 DUP7 PUSH2 0x7A6 JUMP JUMPDEST SWAP2 POP PUSH2 0xA3B DUP3 PUSH2 0x9FF JUMP JUMPDEST PUSH1 0x1 DUP3 ADD SWAP2 POP PUSH2 0xA4B DUP3 DUP6 PUSH2 0x7A6 JUMP JUMPDEST SWAP2 POP PUSH2 0xA56 DUP3 PUSH2 0x9FF JUMP JUMPDEST PUSH1 0x1 DUP3 ADD SWAP2 POP PUSH2 0xA66 DUP3 DUP5 PUSH2 0x7A6 JUMP JUMPDEST SWAP2 POP DUP2 SWAP1 POP SWAP5 SWAP4 POP POP POP POP JUMP JUMPDEST PUSH0 PUSH2 0xA7D DUP3 PUSH2 0x83D JUMP JUMPDEST SWAP2 POP PUSH2 0xA88 DUP4 PUSH2 0x83D JUMP JUMPDEST SWAP3 POP DUP3 DUP3 MUL PUSH2 0xA96 DUP2 PUSH2 0x83D JUMP JUMPDEST SWAP2 POP DUP3 DUP3 DIV DUP5 EQ DUP4 ISZERO OR PUSH2 0xAAD JUMPI PUSH2 0xAAC PUSH2 0x846 JUMP JUMPDEST JUMPDEST POP SWAP3 SWAP2 POP POP JUMP JUMPDEST PUSH0 PUSH2 0xABE DUP3 PUSH2 0x83D JUMP JUMPDEST SWAP2 POP PUSH32 0xFFFFFFFFFFFFFFFFFFFFFFFFFFFFFFFFFFFFFFFFFFFFFFFFFFFFFFFFFFFFFFFF DUP3 SUB PUSH2 0xAF0 JUMPI PUSH2 0xAEF PUSH2 0x846 JUMP JUMPDEST JUMPDEST PUSH1 0x1 DUP3 ADD SWAP1 POP SWAP2 SWAP1 POP JUMP JUMPDEST PUSH0 PUSH2 0xB05 DUP3 PUSH2 0x83D JUMP JUMPDEST SWAP2 POP PUSH2 0xB10 DUP4 PUSH2 0x83D JUMP JUMPDEST SWAP3 POP DUP3 DUP3 SUB SWAP1 POP DUP2 DUP2 GT ISZERO PUSH2 0xB28 JUMPI PUSH2 0xB27 PUSH2 0x846 JUMP JUMPDEST JUMPDEST SWAP3 SWAP2 POP POP JUMP JUMPDEST PUSH0 PUSH2 0xB38 DUP3 PUSH2 0x83D JUMP JUMPDEST SWAP2 POP PUSH0 DUP3 SUB PUSH2 0xB4A JUMPI PUSH2 0xB49 PUSH2 0x846 JUMP JUMPDEST JUMPDEST PUSH1 0x1 DUP3 SUB SWAP1 POP SWAP2 SWAP1 POP JUMP JUMPDEST PUSH32 0x4E487B7100000000000000000000000000000000000000000000000000000000 PUSH0 MSTORE PUSH1 0x32 PUSH1 0x4 MSTORE PUSH1 0x24 PUSH0 REVERT JUMPDEST PUSH32 0x4E487B7100000000000000000000000000000000000000000000000000000000 PUSH0 MSTORE PUSH1 0x41 PUSH1 0x4 MSTORE PUSH1 0x24 PUSH0 REVERT JUMPDEST PUSH32 0x3000000000000000000000000000000000000000000000000000000000000000 DUP2 MSTORE POP JUMP JUMPDEST PUSH0 PUSH2 0xBDF DUP3 PUSH2 0xBAF JUMP JUMPDEST PUSH1 0x1 DUP3 ADD SWAP2 POP PUSH2 0xBEF DUP3 DUP5 PUSH2 0x7A6 JUMP JUMPDEST SWAP2 POP DUP2 SWAP1 POP SWAP3 SWAP2 POP POP JUMP INVALID LOG2 PUSH5 0x6970667358 0x22 SLT KECCAK256 SUB RETURN 0x4C 0xC3 0xF 0xB5 SMOD SWAP11 DUPN 0x9C RJUMPI 0x197F DUP10 PUSH22 0x469791680B0807F2C495447F6C8FCF3A5C64736F6C63 NUMBER STOP ADDMOD 0x1E STOP CALLER "
		},
		"gasEstimates": {
			"creation": {
				"codeDepositCost": "624000",
				"executionCost": "infinite",
				"totalCost": "infinite"
			},
			"external": {
				"getMessage()": "infinite"
			},
			"internal": {
				"_formatDatePart(uint256)": "infinite",
				"_formatTimePart(uint256)": "infinite",
				"_formatTimestamp(uint256)": "infinite",
				"_getMessageWithTimestamp()": "infinite",
				"_isLeapYear(uint256)": "infinite",
				"_padZero(string memory)": "infinite",
				"_timestampToDate(uint256)": "infinite",
				"_uintToString(uint256)": "infinite"
			}
		},
		"methodIdentifiers": {
			"getMessage()": "ce6d41de"
		}
	},
	"abi": [
		{
			"inputs": [],
			"stateMutability": "nonpayable",
			"type": "constructor"
		},
		{
			"inputs": [],
			"name": "getMessage",
			"outputs": [
				{
					"internalType": "string",
					"name": "",
					"type": "string"
				}
			],
			"stateMutability": "view",
			"type": "function"
		}
	]
}